:1000000070220020250100002101000021010000D4
:1000100000000000000000000000000000000000E0
:1000200000000000000000000000000021010000AE
:10003000000000000000000021010000210100007C
:100040002101000021010000210100002101000028
:1000500021010000190E000021010000B11700006D
:100060002101000021010000210100002101000008
:1000700021010000210100002101000021010000F8
:1000800021010000210100002101000021010000E8
:10009000210100000000000000000000210100001C
:1000A00021010000210100002101000021010000C8
:1000B0000000000010B5064C2378002B07D1054B3B
:1000C000002B02D0044800E000BF0123237010BDC4
:1000D00004000020000000002C1C0000084B10B59C
:1000E000002B03D00749084800E000BF0748036819
:1000F000002B00D110BD064B002BFBD09847F9E731
:1001000000000000080000202C1C00002C1C000037
:100110000000000010B5014B984710BD69040000B5
:10012000FEE700002148224970B5884204D0002330
:10013000204CCA18A24232D300211F4B1F4A9342BF
:1001400031D3FF211E4B1F4A8B43936002220C25A3
:10015000082430261C4B1D485A62C378FC398B4357
:100160001343C370C378AB432343C370184B987BCE
:10017000B0430600202030439873987BA843044383
:100180009C73987B884302439A738023114A516879
:100190000B435360104B9847104B9847FEE7C558E8
:1001A00004331560C5E702C3C9E7C0462C1C000034
:1001B0000000002004000020040000206C02002049
:1001C0000000000000ED00E0FC7000410050004124
:1001D0000048004100400041DD1A00009D19000068
:1001E00070B51F244209C0B20440FF234D1C09D141
:1001F0001A40D201144BA218D218137802318B4343
:10020000137070BD01251340104ADB019B181E19A5
:1002100040363278AA432A4332706208284209D015
:100220000F209A1830321378090103401943C9B2DC
:100230001170E6E70F209B1830331A780140824393
:1002400011431970DDE7C0464044004100440041BD
:1002500010B5012A19D0002A07D0022A25D045223C
:1002600015490020154B98471EE0C023C001DB054F
:10027000C318596080238AB2DB051343104A090C66
:1002800080188362C0231B060CE0C023C001DB057D
:10029000C31859600B4B8AB21343094A090C8018E2
:1002A0008362094B1943816210BDC023C001DB0585
:1002B000C3189960DEE7C046461B0000D90A00005B
:1002C0000044004100000240000002C00422C001BE
:1002D000034B0918C9180B7893430B707047C0463D
:1002E000404400410423024AD1690B43D361704763
:1002F0000004004010B5034B984703490348044BE2
:10030000984710BDE502000000400041380200207F
:1003100045080000802170B50122104D49010020E0
:10032000A8470F4B0C21002098470E4C0E490C207B
:10033000A04780210D4EC900316002220120A8474C
:100340000B492A20A04780210901316002220120A7
:10035000A84708492B20A04770BDC04651020000A5
:10036000CD020000E101000003000C0094000060D9
:1003700003002A0003002B004023044A116A0B43A8
:100380001362034A034B5A807047C0460004004082
:1003900018400000000C004010B5044B9847044979
:1003A000044B05489847054B984710BD790300005A
:1003B00000180042AD09000054020020150300009F
:1003C000012270B510000F4D0821A8470E4B0321E4
:1003D000012098470D4C0E492320A04780210D4E47
:1003E000C903316002220120A8470B493620A047EB
:1003F00080210904316002220120A84707493720E3
:10040000A04770BD51020000CD020000E1010000D4
:10041000030023009400006003003600030037004F
:100420008023044A116A0B431362034A034B5A8028
:100430007047C0460004004019400000000C004016
:1004400010B5044B98470449044B05489847054BA1
:10045000984710BD21040000001C0042AD090000B7
:1004600020020020C1030000F8B5114BC0279847B7
:100470001021FF050F4CB9610F4E02220020B0473A
:10048000220001258021443213788901AB430020EA
:1004900013704D34B9610222B0472378AB43237007
:1004A000064B9847064B9847064B9847F8BDC04601
:1004B000E10A00000044004151020000F502000082
:1004C00099030000410400001F21084B1A68D2B2B2
:1004D00053090A401E399140C022DB01D2059B1806
:1004E000002801D1996170475961FCE72000002084
:1004F00010B5034B034898470422034B1A6010BD04
:10050000FD09000054020020200000201FB56B46AA
:100510006A469870023301930123D41C002203938E
:1005200001A9044B0448227002949847207804B033
:1005300010BDC046250A000054020020F8B5012075
:10054000234FB847234D9F20A8470020A847060007
:100550000020A847204C0002A0800020A847A388C4
:100560001843A0800020B847C22E19D0EF2E28D003
:1005700000201F2E0DD18421A288C901174B8A4269
:1005800008D180229202A260802252001A80134B6E
:100590001888F8BD12498A42F9D180221203F2E785
:1005A000A28810490D4B8A4205D180225203A260D5
:1005B00080225201EAE70C498A42E8D180221204E3
:1005C000F5E780238022DB02A3605201034BDDE7C5
:1005D000C90400000D0500002000002000000020DC
:1005E00002440000142800001728000070B5012004
:1005F000064DA847064C0520A0470020A047040050
:100600000020A8470120204070BDC046C90400005A
:100610000D05000010B50400002906D006200021B9
:10062000FFF7F8FF0020064B9847064B9847002835
:10063000FBD10130024B98472000034B984710BD77
:10064000C9040000ED0500000D05000070B50400B0
:1006500000210A4B03209847200C094DC0B2A8473F
:10066000200AC0B2A847E0B2A8470020A84704006B
:10067000044B00209847200070BDC04615060000BE
:100680000D050000C9040000F0B54E4C4E4BA544CA
:10069000984701214D4B080098474D4B0020984743
:1006A00000204C4B984700204B4DA847462831D19D
:1006B0004538A8474C2827D14A38A847582823D17D
:1006C0005238A8473A281FD12F38A8473A281BD1BB
:1006D0008023424EDB023338F360A8470400082031
:1006E000A8472406000404430920A84707000A205D
:1006F000A8473F020443274305D0B3689F4202D86E
:10070000F3689F4209D9F468002580235B01E31850
:100710009D423CD9324B9D44F0BD00243148324BC0
:100720009847802526000090AD01731C9BB2019371
:1007300080235B01E018284B984702AB9855019E37
:10074000009BB3420ED1274E290001223000274BD7
:100750009847009B2900300002AA254EB04700268A
:10076000009BED180134A742DFD1002E0BD01D4EA7
:10077000290001221D4B300098472900009B02AA46
:1007800030001B4DA8470122144B1A74BCE7194BCB
:100790009847061EFBD1012152200C4B9847280C8C
:1007A0000B4BC0B29847280A094BC0B29847084B78
:1007B00030009847074B3000984780231B02ED1804
:1007C000A3E7C046F4FBFFFF3D050000150600004F
:1007D0000D050000C90400004D06000020000020A7
:1007E0000C04000038020020850900000509000003
:1007F00089080000ED050000436910B5002B00D00A
:10080000984710BD836910B5002B00D0984710BDE4
:1008100070B518220500431E98410C00C0B2FF328B
:100820000549064B98472800054B9847013820405A
:1008300001D00E20404270BD621B0000D90A0000AA
:100840002D0C000070B504000D00002803D0080036
:10085000431E9841C0B20749074B382298472900E8
:100860002000064B9847002803D1054B2360054B19
:10087000636070BD621B0000D90A0000CD0B000050
:10088000F907000005080000F7B504000D00160088
:100890001F00002804D0101E02D01800431E9841EB
:1008A0006A221249124B9847124B20009847124B6C
:1008B000019020009847019B5843A84211D37B190F
:1008C00098420ED3290020000C4B98470190002835
:1008D0000AD120003B0032002900094CA0470198B2
:1008E000FEBD0E204042FBE71120FBE7621B00002B
:1008F000D90A00002D0C0000310C0000010E000090
:10090000810C0000F7B504000F001600002803D08A
:100910001000431E9841C0B29A221349134B9847C6
:10092000134B20009847134B019020009847390043
:100930000090114B20009847051E0FD1009B9E424E
:100940000ED80E4B019938009847009B80198342BE
:1009500006D3320039002000094B98472800FEBD1D
:100960000D256D42FAE7C046621B0000D90A00005F
:100970002D0C0000310C000011080000C51900000A
:10098000590D000010B50400431E9841F722044998
:10099000C0B2044B98472000034B984710BDC04697
:1009A000621B0000D90A00002D0C000070B5040085
:1009B0000D00002803D00800431E9841C0B2094929
:1009C000094B402298476560201D2900074B984736
:1009D000002806DB0020064BA382064B2361064B52
:1009E000E36070BD791B0000D90A0000990E000079
:1009F0000080FFFFA10A0000690A000010B5040092
:100A0000431E984157220449C0B2044B9847201D09
:100A1000034B984710BDC046791B0000D90A00005F
:100A20006110000030B5040087B00D00002803D02D
:100A30000800431E9841C0B2B3220849084B9847AA
:100A40002B68201D03936B6803A90493AB68019383
:100A50000593044B984707B030BDC046791B000092
:100A6000D90A00008D1000007FB50400431E984194
:100A70000E001500C0B2A3220649074B9847002379
:100A80002000029301A9054B0C3801960395984765
:100A900004B070BD791B0000D90A0000250A0000CF
:100AA0007FB50400431E98410E001500C0B2872296
:100AB0000649074B984700232000019301A9054BE5
:100AC0000C3802960395984704B070BD791B00005E
:100AD000D90A0000250A0000002800D100BE704796
:100AE00010B50224074A536823435360064B9847C6
:100AF000064B98472000064CA047064B9847FD2020
:100B0000A04710BD00400041490E000069110000DF
:100B1000190B000081110000C3070BD4830708D50F
:100B20000222094BFF329A60084A5A605A78D20969
:100B3000FCD170478022044B52009A60044A5A60EC
:100B40005A78D209FCD1E9E7000C0040010301000A
:100B500000070100F7B50126040017003000C52288
:100B60000D000193884352001449154B9847F540F6
:100B7000237D3342FCD0134B23800123227D1A4274
:100B8000FCD02023FF33238300236900019A934282
:100B900007D30123227D1A42FCD00B4BE561238051
:100BA000F7BDF85C82B23E2B03D8FA1852781202D5
:100BB000024302330A809BB20231E7E7951B000033
:100BC000D90A000044A5FFFF04A5FFFF70B504008B
:100BD0000D00002804D00F4BC81843425841C0B242
:100BE00046220D490D4B98479E2225616B680C49A2
:100BF00013406B600B4B0C4A1C602023CB67BFF388
:100C00004F8FBFF36F8FC0214900535000201360F6
:100C100070BDC04600C0FFBE951B0000D90A000091
:100C200004E100E03400002000E100E040207047D3
:100C300080204001704770B5012500694C08067D91
:100C40002E42FCD02026FF3606830020294205D004
:100C5000A94309880134090A117001306400241A7B
:100C60005E1E984200D370BD0119098889B21154E3
:100C7000B04202D21518090A69700230F1E700008B
:100C8000F0B50D00C7B0029003920193FF232C0032
:100C90009C432300661CFF330493FF360094009BA3
:100CA00000991A1B06ABD21802984023274FB84769
:100CB000009B40330093B342F1D13F222E002B1B07
:100CC00099091340039A501B039F721BBA1805928F
:100CD000049A964202D8019A002A26D10122029B48
:100CE0001B69197D1142FCD020222500FF321A8396
:100CF0006208DA61164A1A8002982A1B06ABD218DB
:100D0000290040230069134FB847009B4035AB4290
:100D1000F2D1059B049A0393019BF318013B9A427D
:100D200001D347B0F0BD3500B0E78A0106AFD21954
:100D3000875D0136D7543F22013313405A425A414E
:100D40008918019A013A0192BEE7C046370C0000AB
:100D500002A5FFFF550B0000F0B50D00FF212E008E
:100D600093B00090170002A84022224B8E43984770
:100D7000B54217D1012331003A009C461E4C032A8C
:100D800025D80025BC08A3002402FF1AA419AF42ED
:100D90002DD02100402302AA0098184EB0474034BD
:100DA0000135F4E72B000136C033FF3601934023B1
:100DB00002AA29000098114C013FA047002F16D02D
:100DC0004035AE42D6D0019B9D42F0D1D2E7009B88
:100DD0001B6960461D7D0542FBD020204D08FF3079
:100DE00001311883FF31DD61043A1C80C7E713B07D
:100DF000F0BDC046371B000002A5FFFF810C0000BC
:100E000003690120890B89B288401B8C184043423A
:100E10005841C0B27047000001210A4B10B5186854
:100E200003691A7D0A4204D00368002B00D098475A
:100E300010BD1A7D52080A42FAD002221A75436880
:100E4000F3E7C04634000020064B1A7AD2B21A7279
:100E50005A7AD2B25A729A7AD2B29A72DA7AD2B2F2
:100E6000DA72704700040040C3691942FCD1704730
:100E7000012310B5C4691C4008D10268DB18134374
:100E800003600321034B9847200010BD042040421B
:100E9000FBE7C046690E0000654BF7B5CA18920A19
:100EA000D2B207000D00634B042A00D184E0052A6A
:100EB00000D0B1E0043A1124002062435E4C1834A3
:100EC000A418874203D02800421E9041C0B25B4A5A
:100ED0005B499847002C00D1A6E0EB69594EDB072F
:100EE0001AD41C23227803211A4028000192B0470B
:100EF00002222B68134208D02B6803219343280059
:100F00002B60B04702212800B0470123019A03213A
:100F100013432B602800B04701212800B0471C2252
:100F200023783D601340082B48D1474A44490120AB
:100F3000404B98476278237812021A43A378032122
:100F40001B041A43E37828001B0613433F4A13404F
:100F50002B60B0476279237912021A43A3790721E3
:100F60001B041A43E37928001B061343384A134035
:100F7000384A13436B60B047627A237A12021A43ED
:100F8000A37A1B041A43E37A1B0613436B622B00FC
:100F9000627B30331A70EB69002BFCD10722237976
:100FA000002013405A1E934101333B71E37BA27B27
:100FB0001B021343FB80FEBD00227CE7264A20492A
:100FC00001201C4B98476278237812021A43A378B9
:100FD00028001B041A43E37803211B0613431B4A12
:100FE00013402B60B0476279237912021A43A37928
:100FF00028001B041A43E37907211B061343174AF1
:1010000013408022920213436B60B047237B2B7303
:10101000637B30352B70C1E70024A04200D052E73B
:10102000064A0749380098470D204042C3E7C046AA
:1010300000F8FFBDD90A0000B41B0000250900001C
:10104000EE1B0000690E000003090000FCFEFFFF1C
:10105000BFDDFDFF40020200EF080000BF1DFDFFE5
:1010600010B5041E03D00068431E9841C0B29822F8
:1010700003491201034B98472068034B984710BD62
:10108000EE1B0000D90A0000710E0000F0B50568E3
:1010900085B001900291037928000393431E984183
:1010A0000F684E68C0B22C4A2C492D4B9847072038
:1010B000EC69044031D12B4B0321280098472B6861
:1010C0009B072DD5012321009C4604232A7ED2B202
:1010D0001A4227D0AB6A002E04D00398337001283F
:1010E00012D80136013152B2002A2DDA0123132021
:1010F0005B426B8381332B76404203232A7E1A4264
:10110000FCD02B7605B0F0BD1B0A73700236E9E700
:101110007B7802371B02034313E004204042F1E7CF
:101120001420FBE7A142DED363461A42DBD0019BC9
:10113000DB88002F05D0039B3878012BE8D803000B
:1011400001370134AB62CEE7029B9B689C42BCD363
:101150009942BAD32000D0E7850A0000EE1B0000B8
:10116000D90A0000690E00000222044B99690A4363
:101170001F219A611A7F0A401A77704700080040C1
:10118000822302221949DB014B80194B9A840E32CB
:10119000D8681042FCD0174ADA62174A1268920ED9
:1011A0003F2A0ED080209202800002439A620622DB
:1011B0009A849A8C520707D41022D8681042FCD027
:1011C00007E0FC22D201F1E7D020DA680240D02A01
:1011D000FBD18022988C02439A844A78D209FCD1B0
:1011E00002219A698A439A617047C046000C004008
:1011F00000080040B905010424608000074B9A8C68
:10120000920605D4D021DA680A40D02AFBD1704773
:101210001022D9681142FCD0F9E7C046000800400E
:101220000F2370B50100807C072503401A00CC7C99
:10123000083225405B01012D08D014495201521893
:101240001021D171124A9B18597270BD40252C4251
:1012500006D08026AC43CC740D4C1C196671A57168
:101260000825CC7C5201AC43CC7400240949483198
:10127000C9188C728C76054952186F21D171044AB5
:101280009B185972044B9B689847DEE70050004159
:10129000FF500041B80000203800002020220F231A
:1012A0008A4010B50400807C054903405B015B184F
:1012B000D2B25A72034BA2681B690121984710BD34
:1012C000FF5000413800002010B50300807CFF284B
:1012D00009D04024DA7C224205D0A243DA74024AC3
:1012E00014699A68A04710BD38000020F7B525247E
:1012F00001AD837C2C70241994466C70FF2B1AD09E
:101300004027C47C3C4216D00F2423401C000834E4
:101310006601002910D00A4FF61980273771084A54
:101320006401A418074A695C5B019B18E17159725A
:101330006146054B9847F7BD014AB6187771EEE74D
:1013400000500041FF500041C9120000F7B50F22C4
:10135000847C01AF14400B3A3A7004327A70220058
:1013600008320B002D4D61015601002B24D0AD5DDC
:101370006D066D0F2A4E4836B4461E017618B444E9
:101380006646B67AF6B2022D1AD1013D2E4217D02A
:101390006446A47A5201AC436546AC721F4DFC5CB6
:1013A0005219D4711F4A89184C72591E8B4104225C
:1013B000D9B21D4B9847F7BDAE5D07253540D9E73B
:1013C00002252E4019D06646B67AC47CAE436546E7
:1013D000AE72124EFD5C52019219D571114A8918F4
:1013E00007224D722240012AE5D16206E3D5C17C75
:1013F000C9098B42DFD00022DBE76000084AC01831
:101400004832000112189672084A6401A418054A6D
:10141000FB5C8918E3714B72CDE7C0460050004178
:10142000B8000020FF500041ED12000000510041C3
:1014300070B50A4DFF262C00C83514340321200056
:10144000074B98470021A674E1741434AC42F5D1DF
:1014500004486022044B4830984770BD3800002093
:10146000C9120000B8000020371B0000F0B50F259E
:1014700085B00091837C04001D4001936B010293B1
:101480000023994206D04D4B6A0148339B185B6993
:101490009B049B0C268A4A4A0396964202D0721EEF
:1014A00092B20392E27C9446072261461140009A70
:1014B0000291002A04D043496A0152180221D171D5
:1014C000A26867689918A1606A01B94240D2604673
:1014D0007F1ABBB2394F80062ED5321C9E4200D9EE
:1014E0001A1C236896B259183200374BE0689847A7
:1014F000324BE26869015B189A656B01FF18FB6D5E
:10150000B604B20C9E0BB6031643FE65FB6D2F4A64
:101510001340FB65009B002B08D1029B4E22012B40
:1015200000D0043A2A496B015B189A72254B6D0171
:10153000ED1880236B713AE080201E1C80018342ED
:1015400000D9061C2368BA185918B6B29165D4E7B9
:101550001027604638420ED0E37C6A01BB43E37437
:10156000164B1A499B18DA6D920B9203DA65DA6D05
:101570000A40DA65CEE7029801281AD14B251448B3
:1015800012185572039A13409E420CD14025E37CF9
:101590000198AB43E3740F4BDB689847002806D1F2
:1015A000E37C2B43E374002120000B4B984705B0EC
:1015B000F0BD07484A251218E3E7C046B8000020EE
:1015C000FF03000000510041251B0000FF3F00F019
:1015D000FF50004138000020C91200000F23F0B571
:1015E000827C87B01A40530104000D1E01920593BE
:1015F00068D0059A674B9B18D86C0001820C039247
:10160000DF6CBF04BF0C238A0293029A624B9A429A
:1016100003D01300013B9BB202930723E27C029E9E
:1016200013403E400493002D05D0019B5B495B01B4
:101630005B180121D97193060DD56268002A0AD082
:10164000A0682368121A92B21818E168964200D274
:101650003200534B9847019A63685101002B34D1F3
:101660001020E27C024200D18BE0824320331A43F7
:10167000E274484B059AE1689B189964218A1A0024
:101680004848DB6C8904090903400B43D364D36CDD
:101690009B0B9B03D364002D0DD1019B04995A0130
:1016A0002523012904D13B4B48339B189D762D23DC
:1016B0003D4952189372019B384A5B019B184022A6
:1016C0001A711FE003910F009DE7002D1CD0228AA4
:1016D000B24219D91022E37C9343E374A368DF1963
:1016E000A760049B012B48D12F4BC9182D234B72A7
:1016F000019B002B02D1274BE2689A640021200055
:101700002A4B984707B0F0BDA668039AB4466244D6
:101710001000A2609342E4D920269B1AE27C9BB27F
:10172000278A324212D0381C9F4200D9181C019AD5
:1017300083B25001174AE46810188464154A1948A6
:101740005218D16C9B041B0901409EE7BB420DD986
:101750008026B601B3420ED8029A93432468019AB8
:10176000201854010B4A1419A064E7E7BB42F5D2D4
:101770001643E674F2E73300F0E70B4BC918252354
:10178000B5E7002DA3D1A268039B94466344A360F0
:10179000A7E7C046B8000020FF0300000051004149
:1017A000251B0000FF3F00F0FF500041C912000060
:1017B000F7B5654B654D1A8C92B20192002A57D14C
:1017C0009A8B1F8B042017403A00024003D0988365
:1017D0002B689847F7BD80218900394020D05C49AB
:1017E000998399829239FF3919835A4B18004830EE
:1017F00001890907090F032906D0008D1100000790
:10180000000F032808D10122483352019A180023FF
:10181000118913814904490D03206B689847D9E762
:1018200080223E00164003D09A836B680520F5E7BE
:1018300070223C00144009D09A839A82444A1A8349
:10184000454B98476B6831000220E7E708263900CE
:1018500031400BD041494C709E839A823C4A1A8396
:101860003F4B98476B6821000120D7E7FC0726D43F
:101870002C00002701261434A27CFF2A3ED00F231F
:101880001A40330093400199194237D0354953012A
:101890005B183249520152181B78927A13402DD0AE
:1018A000142247217A43AA181032D27D114001290F
:1018B00015D1DA0609D520002B4B98471EE0244CA1
:1018C0009C839C821A836B68A8E74021194001D051
:1018D000310001E09B0611D52000244B0DE051B2F0
:1018E00000291ADA5906F3D4190701D531001BE093
:1018F000990708D5310020001D4B98470137143453
:10190000092FB9D166E707210A40012AF6D1002143
:101910005A0709D4DB06F1D5CDE72021194001D0C3
:101920000021D9E7580702D52000124BE5E73342E2
:1019300003D031002000104BDFE707210A40012AC5
:10194000DCD11A07E6D5D1E700500041380000206D
:1019500001020000B8000020FD110000FF5000410E
:101960003114000007510041211200009D120000B7
:101970006D1400004D130000DD15000080239B0155
:1019800010B51A6882F30888024A9360024B1B68FC
:10199000984710BD00ED00E00420000010B5054B95
:1019A0009847054B9847054B9847054B98470020AB
:1019B00010BDC04615010000F104000089060000BA
:1019C0007D190000002243088B4274D303098B4227
:1019D0005FD3030A8B4244D3030B8B4228D3030CFF
:1019E0008B420DD3FF22090212BA030C8B4202D3A1
:1019F0001212090265D0030B8B4219D300E0090AC9
:101A0000C30B8B4201D3CB03C01A5241830B8B42D1
:101A100001D38B03C01A5241430B8B4201D34B03BA
:101A2000C01A5241030B8B4201D30B03C01A52411F
:101A3000C30A8B4201D3CB02C01A5241830A8B42A4
:101A400001D38B02C01A5241430A8B4201D34B028D
:101A5000C01A5241030A8B4201D30B02C01A5241F1
:101A6000CDD2C3098B4201D3CB01C01A52418309A5
:101A70008B4201D38B01C01A524143098B4201D3DF
:101A80004B01C01A524103098B4201D30B01C01A0A
:101A90005241C3088B4201D3CB00C01A5241830884
:101AA0008B4201D38B00C01A524143088B4201D3B1
:101AB0004B00C01A5241411A00D201465241104611
:101AC0007047FFE701B5002000F006F802BDC046F0
:101AD0000029F7D076E770477047C04670B50026FA
:101AE0000C4D0D4C641BA410A64209D1002600F039
:101AF0008DF80A4D0A4C641BA410A64205D170BD96
:101B0000B300EB5898470136EEE7B300EB5898471F
:101B10000136F2E7181C0000181C0000181C000019
:101B20001C1C0000002310B59A4200D110BDCC5CF3
:101B3000C4540133F8E703008218934200D1704780
:101B400019700133F9E72E2E2F68706C2F706F72A9
:101B5000742F68706C5F6770696F5F626173652E68
:101B600068002E2E2F68616C2F7372632F68616C72
:101B70005F666C6173682E63002E2E2F68616C2F78
:101B80007372632F68616C5F7370695F6D5F7379E7
:101B90006E632E63002E2E2F68706C2F6E766D6331
:101BA00074726C2F68706C5F6E766D6374726C2EDD
:101BB00063000000000000000000000000000000C2
:101BC0000000000000000000000000000C00010008
:101BD00000000200000000000500FF01040C0011DD
:101BE0000000000200000000000500FF01052E2E8D
:101BF0002F68706C2F736572636F6D2F68706C5FE8
:101C0000736572636F6D2E6300000000F8B5C04607
:101C1000F8BC08BC9E467047DD000000F8B5C04621
:0C1C2000F8BC08BC9E467047B5000000F0
:041C2C0000010000B3
:00000001FF
