:10000000007C002015050000000000000D05000028
:1000100000000000000000000000000000000000E0
:1000200000000000000000000000000000000000D0
:10003000000000000000000011050000B9140000DD
:1000400010B5064C2378002B07D1054B002B02D0AE
:10005000044800E000BF0123237010BD58000020B9
:1000600000000000A8230000084B10B5002B03D0AF
:100070000749084800E000BF07480368002B00D18B
:1000800010BD064B002BFBD09847F9E7000000009D
:100090005C000020A82300005400002000000000A5
:1000A00010B5014B984710BDD9070000036808211F
:1000B0001A0070B50400988BFF32084227D099834C
:1000C0007831997211234020C0255370134B9071E1
:1000D00051715968124EAD05314029435960596933
:1000E00031400D430F495D6119600F490F4D196192
:1000F00059680D4080218902294359605968890B4C
:1001000089035960002350712371207970BD137ADF
:10011000DB06FAD52000064B9847F6E7B40100202D
:10012000FFFFFF8FB400002034010020FF3F00F0EC
:10013000951B0000002303714371044B0160836031
:1001400002230A7813430B707047C046AD000000CD
:10015000202370B5354A0F20D1690B43D3610122AA
:1001600033490B7813430B70324B19788143197064
:1001700006211C78214319702F490C7822430A70FC
:100180001A7802401A70602219780A431A702B4BB1
:100190002B4A5A805A7852B2002AFBDB0122294BA3
:1001A00019780A431A709A78D207FCD41F2026497E
:1001B0000A68520B0240824200D105221C8D234D59
:1001C000024092012C4022431A850A68920C024098
:1001D0001F2A00D1023A1F24188D2240A043024357
:1001E00007201A850A68D20D0240824200D10322FC
:1001F000198D02401648120301400A437F211A85D7
:100200001A7814480A401A70042219780A430C21FB
:100210001A7058621A898A431A811A890B398A43DB
:100220001A81002180220C4B984770BD00040040C9
:10023000584400413C44004159440041000C0040F6
:100240000640000000500041246080003FF8FFFF9E
:10025000FF8FFFFFB4010020FF1F0000F7B50090E3
:1002600001201E4E1C005B0117000193F218536918
:1002700010325B005B0F03339840B84221D88023D3
:1002800050681B06034353606301F61831617369BC
:10029000B9049B0B890C9B030B4373617369104971
:1002A00008340B407361009B64011C190223E37145
:1002B0006279823B13436371E3799B07FCD5380075
:1002C000FEBD25006B1E9D41064BAD01ED183A00A9
:1002D0002800054B98472900D6E7C046B401002006
:1002E000FF3F00F034010020ED1F0000F8B51A4F69
:1002F00006003B7808001400002B12D1174B184A57
:1003000018491A645A6C920B92035A645A6C0A4048
:100310005A64A22240235200B15C0B43B354012320
:100320003B704825FF35735DDB07DB0F12D00B4AAE
:10033000536C9B049B0CA34202D2546CA404A40CE7
:10034000094B2200064998470123735500233B704F
:100350002000F8BD1C00FBE774000020B401002061
:10036000F4000020FF3F00F0ED1F0000FF30827915
:100370002023002900D1102313438371704700000C
:10038000074AFF3053699B0B9B035361022303729F
:100390008279823B13438371037A9B07FCD57047B4
:1003A000B401002080235B421943C9B281727047B7
:1003B000A0230322C02170B55B00C254124B134C22
:1003C0005A6C890522400A435A6446224025FF326E
:1003D00085540F4A30261A649022520086545A6B74
:1003E0002240114392225963802152008154094ACC
:1003F0001A63B022520085545A6F22405A67B223C2
:100400005B00C15470BDC046B4010020FFFFFF8FE8
:10041000F400002074010020024A53785BB2002BE4
:10042000FBDB7047000C004010230249CA681A42E7
:10043000FCD0704700080040F7B51E222649274C23
:100440004B6893431C3A13434B60254BA382A38A0A
:100450001343A3820192E368019A1342FBD0012364
:10046000204D214EAB60B047204B6B60B0478223DC
:10047000DB016B80B0478022A38C1D4F9343A38484
:10048000B8471C4BE362B847A28C1B4B1343A384B1
:10049000B847A38C019A1A43A28480234022E168C2
:1004A0001942FCD0E1681142F9D00024B847AC6091
:1004B000B047124B6B60B047C021114A114B124834
:1004C0005360036A09061B021B0A0B4303620723DE
:1004D00094601360F7BDC046004000410008004032
:1004E0000C060000000C004019040000010501008A
:1004F00029040000B805FF7D040A0000000703007E
:1005000010E000E0E703000000ED00E00DBEFEE7B4
:1005100002BEFEE70D4A0E4870B5824207D10D4B70
:100520000D4A002193420ED10C4B9847FEE70C4C2C
:1005300000239442F3D0D1188842F0D9E55804330F
:100540000D60F8E702C39342FCD3EDE70000002002
:10055000580000205800002000030020E513000090
:10056000AC23000070B51F244209C0B20440FF2331
:100570004D1C09D11A40D201144BA218D21813787D
:1005800002318B43137070BD01251340104ADB010B
:100590009B181E1940363278AA432A4332706208EB
:1005A000284209D00F209A183032137809010340ED
:1005B0001943C9B21170E6E70F209B1830331A783F
:1005C0000140824311431970DDE7C04640440041B9
:1005D0000044004110B5012A19D0002A07D0022A90
:1005E00025D0452215490020154B98471EE0C02311
:1005F000C001DB05C318596080238AB2DB051343B1
:10060000104A090C80188362C0231B060CE0C0232B
:10061000C001DB05C31859600B4B8AB21343094A6A
:10062000090C80188362094B1943816210BDC023F5
:10063000C001DB05C3189960DEE7C0463420000026
:10064000D90C00000044004100000240000002C03C
:100650000423024AD1690B43D36170470004004070
:1006600010B5034B984703490348044B984710BD06
:1006700051060000004000414C0200206D0A0000BD
:10068000802170B50122104D49010020A8470421A6
:100690000E4A0F4C13780C208B4313700D49A04762
:1006A00080210D4EC900316002220120A8470B496C
:1006B0002A20A04780210901316002220120A84799
:1006C00007492B20A04770BDD50500004C440041D0
:1006D0006505000003000C009400006003002A0080
:1006E00003002B004023044A116A0B431362034AA0
:1006F000034B5A807047C046000400401840000079
:10070000000C004010B5044B98470449044B0548C1
:100710009847054B984710BDE506000000180042B9
:10072000D50B00006802002081060000012270B590
:100730001000104D0821A84704210F4A0F4C1378D0
:1007400023208B4313700E49A04780210D4EC9030F
:10075000316002220120A8470B493620A0478021A2
:100760000904316002220120A84708493720A04728
:1007700070BDC046D5050000C344004165050000BA
:1007800003002300940000600300360003003700DC
:100790008023044A116A0B431362034A034B5A80B5
:1007A0007047C0460004004019400000000C0040A3
:1007B00010B5044B98470449044B05489847054B2E
:1007C000984710BD91070000001C0042D50B0000A7
:1007D000340200202D070000F8B5114BC0279847C0
:1007E0001021FF050F4CB9610F4E02220020B047C7
:1007F000220001258021443213788901AB43002077
:1008000013704D34B9610222B0472378AB43237093
:10081000064B9847064B9847064B9847F8BDC0468D
:10082000E10C000000440041D50500006106000015
:1008300005070000B10700001F21084B1A68D2B25B
:1008400053090A401E399140C022DB01D2059B1892
:10085000002801D1996170475961FCE778000020B8
:100860007047000070B50024044D0120A847044BD8
:1008700020009C80A847200070BDC04639080000B9
:100880007800002010B50120024CA0470020A047AE
:10089000002010BD3908000010B5002906D0062040
:1008A0000021FFF7F9FF0020044B9847044B9847BD
:1008B0000028FBD10130014B984710BD39080000DA
:1008C0008508000010B500210320034B9847002045
:1008D000024B9847002010BD99080000390800001D
:1008E000F0B5434C434BA54498470121424B0800C7
:1008F00098470020414B9847414CA0470026462886
:100900002ED1A0474C2823D1A047582820D1A0475A
:100910003A281DD1A0473A281AD18023394DDB024D
:10092000AB60A0470700A0473F06000407430097BD
:10093000A0470700A047009B3F0218430743B74268
:1009400005D0EB689F4202D8AB689F420CD9AD68D6
:10095000002480235B01EB189C423AD9294B1E7C72
:100960003000294B9D44F0BD2848294B98478024EE
:1009700035000090E401731C9BB20193204B984713
:1009800002AB9855019E009BB3420ED11F4E210031
:10099000012230001F4B9847009B2100300002AA23
:1009A0001D4EB0470026009BE4180135AF42E2D14E
:1009B000002E0AD021000122164B1448984721002E
:1009C000009B02AA1148144CA04701220D4B1A7437
:1009D000BEE7124B9847061EFBD101215220064B61
:1009E0009847064B3000984780231B02E418B0E775
:1009F000F4FBFFFF650800009908000039080000BB
:100A0000C5080000780000200C0400004C02002003
:100A1000AD0B00002D0B0000B10A0000850800009E
:100A2000436910B5002B00D0984710BD836910B5FD
:100A3000002B00D0984710BD70B518220500431E4A
:100A400098410C00C0B2FF320549064B9847280078
:100A5000054B98470138204001D00E20404270BD20
:100A600050200000D90C00002D0E000070B50400CD
:100A70000D00002803D00800431E9841C0B207496A
:100A8000074B3822984729002000064B984700283A
:100A900003D1054B2360054B636070BD50200000FF
:100AA000D90C0000CD0D0000210A00002D0A000025
:100AB000F7B504000D0016001F00002804D0101E1A
:100AC00002D01800431E98416A221249124B9847DF
:100AD000124B20009847124B019020009847019B31
:100AE0005843A84211D37B1998420ED32900200005
:100AF0000C4B9847019000280AD120003B0032009F
:100B00002900094CA0470198FEBD0E204042FBE79A
:100B10001120FBE750200000D90C00002D0E000032
:100B2000310E000001100000810E0000F7B5040036
:100B30000F001600002803D01000431E9841C0B2D9
:100B40009A221349134B9847134B20009847134B95
:100B500001902000984739000090114B20009847E1
:100B6000051E0FD1009B9E420ED80E4B01993800F6
:100B70009847009B8019834206D332003900200039
:100B8000094B98472800FEBD0D256D42FAE7C04687
:100B900050200000D90C00002D0E0000310E000086
:100BA000390A0000D51E0000590F000010B50400DE
:100BB000431E9841F7220449C0B2044B98472000D5
:100BC000034B984710BDC04650200000D90C0000D0
:100BD0002D0E000070B504000D00002803D00800A1
:100BE000431E9841C0B20949094B402298476560AD
:100BF000201D2900074B9847002806DB0020064BE4
:100C0000A382064B2361064BE36070BD67200000A2
:100C1000D90C0000411000000080FFFFA10C000073
:100C2000690C000030B5040087B00D00002803D027
:100C30000800431E9841C0B2B3220849084B9847A8
:100C40002B68201D03936B6803A90493AB68019381
:100C50000593044B984707B030BDC046672000009D
:100C6000D90C0000091200007FB50400431E984112
:100C70000E001500C0B2A3220649074B9847002377
:100C80002000029301A9054B0C3801960395984763
:100C900004B070BD67200000D90C0000250C0000D6
:100CA0007FB50400431E98410E001500C0B2872294
:100CB0000649074B984700232000019301A9054BE3
:100CC0000C3802960395984704B070BD6720000069
:100CD000D90C0000250C0000002800D100BE704790
:100CE00010B50224074A536823435360064B9847C4
:100CF000064B98472000064CA047064B9847FD201E
:100D0000A04710BD0040004119100000E51200008E
:100D1000190D0000FD120000C3070BD4830708D58E
:100D20000222094BFF329A60084A5A605A78D20967
:100D3000FCD170478022044B52009A60044A5A60EA
:100D40005A78D209FCD1E9E7000C00400103010008
:100D500000070100F7B50126040017003000C52286
:100D60000D000193884352001449154B9847F540F4
:100D7000237D3342FCD0134B23800123227D1A4272
:100D8000FCD02023FF33238300236900019A934280
:100D900007D30123227D1A42FCD00B4BE56123804F
:100DA000F7BDF85C82B23E2B03D8FA1852781202D3
:100DB000024302330A809BB20231E7E7832000003E
:100DC000D90C000044A5FFFF04A5FFFF70B5040087
:100DD0000D00002804D00F4BC81843425841C0B240
:100DE00046220D490D4B98479E2225616B680C49A0
:100DF00013406B600B4B0C4A1C602023CB67BFF386
:100E00004F8FBFF36F8FC0214900535000201360F4
:100E100070BDC04600C0FFBE83200000D90C00009A
:100E200004E100E08C00002000E100E04020704779
:100E300080204001704770B5012500694C08067D8F
:100E40002E42FCD02026FF3606830020294205D002
:100E5000A94309880134090A117001306400241A79
:100E60005E1E984200D370BD0119098889B21154E1
:100E7000B04202D21518090A69700230F1E7000089
:100E8000F0B50D00C7B0029003920193FF232C0030
:100E90009C432300661CFF330493FF360094009BA1
:100EA00000991A1B06ABD21802984023274FB84767
:100EB000009B40330093B342F1D13F222E002B1B05
:100EC00099091340039A501B039F721BBA1805928D
:100ED000049A964202D8019A002A26D10122029B46
:100EE0001B69197D1142FCD020222500FF321A8394
:100EF0006208DA61164A1A8002982A1B06ABD218D9
:100F0000290040230069134FB847009B4035AB428E
:100F1000F2D1059B049A0393019BF318013B9A427B
:100F200001D347B0F0BD3500B0E78A0106AFD21952
:100F3000875D0136D7543F22013313405A425A414C
:100F40008918019A013A0192BEE7C046370E0000A7
:100F500002A5FFFF550D0000F0B50D00FF212E008A
:100F600093B00090170002A84022224B8E4398476E
:100F7000B54217D1012331003A009C461E4C032A8A
:100F800025D80025BC08A3002402FF1AA419AF42EB
:100F90002DD02100402302AA0098184EB0474034BB
:100FA0000135F4E72B000136C033FF3601934023AF
:100FB00002AA29000098114C013FA047002F16D02B
:100FC0004035AE42D6D0019B9D42F0D1D2E7009B86
:100FD0001B6960461D7D0542FBD020204D08FF3077
:100FE00001311883FF31DD61043A1C80C7E713B07B
:100FF000F0BDC046FF1F000002A5FFFF810E0000EC
:1010000003690120890B89B288401B8C1840434238
:101010005841C0B270470000064B1A7AD2B21A7219
:101020005A7AD2B25A729A7AD2B29A72DA7AD2B220
:10103000DA72704700040040C3691942FCD170475E
:10104000654BF7B5CA18920AD2B207000D00634B80
:10105000042A00D184E0052A00D0B1E0043A11242A
:10106000002062435E4C1834A418874203D0280045
:10107000421E9041C0B25B4A5B499847002C00D1A8
:10108000A6E0EB69594EDB071AD41C232278032112
:101090001A4028000192B04702222B68134208D060
:1010A0002B680321934328002B60B04702212800BE
:1010B000B0470123019A032113432B602800B04756
:1010C00001212800B0471C2223783D601340082BE3
:1010D00048D1474A44490120404B984762782378D9
:1010E00012021A43A37803211B041A43E378280051
:1010F0001B0613433F4A13402B60B04762792379A4
:1011000012021A43A37907211B041A43E37928002A
:101110001B061343384A1340384A13436B60B047E9
:10112000627A237A12021A43A37A1B041A43E37ADF
:101130001B0613436B622B00627B30331A70EB6922
:10114000002BFCD107222379002013405A1E934123
:1011500001333B71E37BA27B1B021343FB80FEBD8B
:1011600000227CE7264A204901201C4B98476278E0
:10117000237812021A43A37828001B041A43E37849
:1011800003211B0613431B4A13402B60B0476279AF
:10119000237912021A43A37928001B041A43E37926
:1011A00007211B061343174A134080229202134360
:1011B0006B60B047237B2B73637B30352B70C1E7AB
:1011C0000024A04200D052E7064A07493800984759
:1011D0000D204042C3E7C04600F8FFBDD90C000017
:1011E000A020000025090000DA20000039100000CE
:1011F00003090000FCFEFFFFBFDDFDFF400202000F
:10120000EF080000BF1DFDFFF0B5056885B0019037
:101210000291037928000393431E98410F684E689A
:10122000C0B22C4A2C492D4B98470720EC6904404A
:1012300031D12B4B0321280098472B689B072DD5D4
:10124000012321009C4604232A7ED2B21A4227D0D1
:10125000AB6A002E04D003983370012812D80136EF
:10126000013152B2002A2DDA012313205B426B8335
:1012700081332B76404203232A7E1A42FCD02B7600
:1012800005B0F0BD1B0A73700236E9E77B780237C0
:101290001B02034313E004204042F1E71420FBE764
:1012A000A142DED363461A42DBD0019BDB88002FCC
:1012B00005D0039B3878012BE8D8030001370134AF
:1012C000AB62CEE7029B9B689C42BCD39942BAD3E7
:1012D0002000D0E7850A0000DA200000D90C0000C9
:1012E000391000000222044B99690A431F219A61B8
:1012F0001A7F0A401A7770470008004082230222B2
:101300001949DB014B80194B9A840E32D868104280
:10131000FCD0174ADA62174A1268920E3F2A0ED0A2
:1013200080209202800002439A6206229A849A8C5C
:10133000520707D41022D8681042FCD007E0FC22E4
:10134000D201F1E7D020DA680240D02AFBD1802216
:10135000988C02439A844A78D209FCD102219A6976
:101360008A439A617047C046000C00400008004064
:10137000B9050104246080008023DB0110B51A68E0
:1013800082F30888024A9360024B1B68984710BD9D
:1013900000ED00E0044000008023DB01186801300C
:1013A000431E9841C0B27047012010B5094B1A780E
:1013B000094B024002D00020186004E01C68074975
:1013C0008C4201D11A6010BD05481960013800280F
:1013D000FCD1F1E738040040FC7F00203581730721
:1013E00048E8010070B5244B984700280FD1234BE3
:1013F0009847234B9847234B9847002801D0224B0E
:101400009847224B9847002801D01F4B9847204B04
:10141000984762B61F4B9847C0211F4A1F4B204C6C
:101420005360236A09061B021B0A0B432362002335
:10143000050001269360073313602800AB689847C6
:10144000184A002800D016701378002B05D0002011
:10145000154B9847154B9847FCE753680133536089
:10146000134A9342E9D9BFF34F8F124BE360BFF3A6
:101470004F8FC046FDE7C046A9130000A100000041
:1014800061080000E10800007913000099130000D2
:10149000390400001D1B000010E000E0E70300001D
:1014A00000ED00E090000020D51500006916000056
:1014B000D01213000400FA0570470000012313B591
:1014C000019004481A0001A9034C0068A0470120BC
:1014D00016BDC046F40200205D02000013B56B4645
:1014E000DC1D044B012221001868034B984720782B
:1014F00016BDC046F4020020ED02000010B5074CF6
:10150000074B2000984703000020834205D0482362
:101510002268FF33D05CC007C00F10BDF40200206A
:10152000AD00000070B50C000A0001000348044D36
:1015300001230068A847200070BDC046F4020020C7
:101540005D02000070B5084C084B050020000E003D
:10155000984703000020834204D03200290020680D
:10156000034B984770BDC046F4020020AD00000058
:10157000ED020000F8B50B4F04000B4B38000E00D5
:1015800098473500002808D1060008E02A0021000D
:101590003868064B98472D1A2418002DF6D13000D4
:1015A000F8BDC046F4020020AD000000ED020000CE
:1015B00010B5030008001100984710BD0B0A434006
:1015C000034A5B00985A0902484080B27047C046FF
:1015D000F8200000002802D1014A024B1A6070472F
:1015E000F8220000E40200207FB51C4B0A001B78A3
:1015F000002B2ED004291BD1006869460F25302608
:10160000520004AB9B180B3B4C1DA34216D1302358
:101610000A2001A90B7048334B708B189870033067
:10162000D8700F4B04321B68D8680E4B98477FBDAB
:10163000022901D10088E0E70078DEE701002940B7
:10164000092904D8314319700009013BDDE737311E
:10165000F9E7034B01001B68E6E7C046980000204D
:10166000E4020020B1150000F0B58DB004A90A0015
:10167000B94BBA4F1C3331CB31C231CB31C211CB54
:1016800011C2BB68B64A5B035B0F9B005858B54B51
:10169000B5491860BB689BB20B60434313603B8B3A
:1016A000B249DB05DB0F4B700021B14B19607A2387
:1016B000B04901930B70B04BB04C1B6840211B69C3
:1016C000200098470022AE4B1860AE4B1C60AE4B1A
:1016D0001A60AD4DAA4E2B6832689342EBD2A94BEB
:1016E0001B681B78FF2B59D0A84C232B00D0D8E1C6
:1016F0009E4B1B78002B06D09F4B02221B68A449EF
:10170000D868A44B98479B4B1B78532B51D1326818
:101710002B689A421BD99B4801332B60D31A9B4AF2
:1017200001681268013101609B4C93423FD22360F3
:101730008F4B22681868994B984723682A6891490B
:10174000D2182A600A68D2180A60954A13702B686A
:101750008C4A013B2B601368013B1360904B8B4A12
:101760001B7811688B4206D2C91A834B804A1B68CA
:1017700010689B699847C0466A467E4B12791A707A
:101780000022824B1A60794B1B78934206D07A4B29
:1017900001321B688349D8687E4B98477A4A1368A0
:1017A00001331360774A13680133136091E72260B5
:1017B000BEE76E4E522B11D172786D4B002A05D0C8
:1017C000794A1968914201D8784A1A606A4A1968B8
:1017D0001068774B226840699847CDE76B4D4F2BD7
:1017E00004D1634B2A681B681A70C5E7482B04D1E3
:1017F0005F4B2A681B681A80BEE7572B04D15C4BED
:101800002A681B681A60B7E76F2B0ED17278584BA5
:10181000002A05D01A686749043A8A4200D81D6038
:1018200001211868644B9847A6E7682B11D173789B
:101830004F4A002B09D013685E49043B8B4204D801
:1018400000232B6002212000ECE713681B88236033
:10185000F8E7772B0FD17378454A002B08D013682F
:101860005449043B8B4203D800232B600421EAE750
:1018700013681B68F9E77278002A04D1472B02D15C
:101880004E4B984778E7542B09D1384A533B137095
:101890000222394B3E491B68D8683E4B9CE74E2BD1
:1018A0000CD13378002B06D1334B02221B68384908
:1018B000D868384B9847002333705DE7562B1FD10B
:1018C0002D4D344C2B6801223D49D868A0472B6828
:1018D000214903223C31D868A0472B6801223949AD
:1018E000D868A0472B681C490E224031D868A04711
:1018F0001722244B344919602B68D868A0473BE76E
:10190000582B1AD12B68002A01D08023DB01144AFE
:101910002E481168134A1268009292008B4204D339
:10192000154B03221B682A49B6E75C08FC61388026
:101930003C7DE407FCD59B18F0E7592B00D080E0F4
:101940002B68002B48D10A4B1B6873600A4B03229B
:101950001B682049A0E7C046F82200000040004173
:10196000900200209C020020940200209800002099
:10197000E00200208C020020E4020020A0020020EF
:10198000840200208802002098020020EC0200203F
:101990006E230000B1150000F0020020ED1F0000D2
:1019A0008002002071230000FFFFFF1F0050002075
:1019B000B1150000FBFFFF1FE915000079130000BF
:1019C00047230000492300004B23000002A5FFFF2E
:1019D0006323000067230000002A08D08021B36839
:1019E000C9018B4203D001224048414B98478024D3
:1019F000404B2A6819687B687068A3437B603E4B44
:101A00003E4E9C469208002AA0D063463B803B7D18
:101A1000DB07FCD500233A4C24680094A408A342B9
:101A200008D33E803C7DE407FCD59C0009190019D1
:101A3000D21AE8E79342F4D09C00055901330D51C6
:101A4000E9E75A2B00D097E600242A4B2D681E6840
:101A50007519B5421ED12B4D01222B682A49D86831
:101A60002A4B984707230F222240110024093031C6
:101A7000092A01DD3732110002AA9954013BF2D242
:101A80002B68082202A9D868204CA0472B680322A3
:101A90001F4932E7307821001E4B98470136040079
:101AA000D7E71A00303AD1B2092904D823681B01BC
:101AB0001343236072E61A00413A052A03D82268CC
:101AC000373B1201F4E71A00613A052A03D822686D
:101AD000573B1201ECE72C2B04D1064B22681A600D
:101AE0000023E6E70C4A1370FAE7C0464C020020D8
:101AF0002D0B0000E002002044A5FFFF04A5FFFF1E
:101B00009C020020E40200206B230000B1150000BD
:101B10006D230000BD1500008C02002010B5054BA0
:101B2000054C2360054B984721682000044B9847DB
:101B3000200010BD00500041F402002051010000BF
:101B40003501000070B5114BC0B00500080016004B
:101B50000C0098476B464000023018706A46032319
:101B600076085370023B5A1EA15C5A00002901D02E
:101B7000B34206DB002369462800054CA04740B06D
:101B800070BD684601338152EDE7C0460F2000006A
:101B90005D020000F7B5056810222900A54BA64C90
:101BA00006001878FF310A722070587860709878B3
:101BB0006080D87867880002384360801879A080F8
:101BC0005879A78800023843A0809879E080DB79B3
:101BD000E0881B020343E38040234B716378217844
:101BE0001B020B4395498B4200D1C4E024DCF03248
:101BF00093421CD00CDC812B04D0822B00D196E0C8
:101C0000802B14D1002321002381083102224AE0D5
:101C100081225200934200D1D3E000DAC9E0FF32C2
:101C2000FF32934203D0864A934200D1C1E00121A2
:101C30002800844B98476CE090221201934200D117
:101C400068E015DCD022D200934220D08822120115
:101C5000934200D167E0A022D2009342E7D128004E
:101C6000794B98476188306889B2784B984750E043
:101C7000774A934200D19CE0D9DD764A934200D165
:101C80001DE1754A9342D2D16388737191E06388F4
:101C90001B0A012B0BD11222E388934201D8E28860
:101CA00092B200236D4928006D4CA04731E0638853
:101CB0001B0A022B08D14322E388934201D8E28811
:101CC00092B200236749EEE763881B0A032BAED16B
:101CD0006388DBB2012B16D0002B05D0022BA6D1D6
:101CE000E2886149D2B211E05C4904225F4B1231B3
:101CF00001A898470422E388934201D8E28892B26F
:101D0000002301A9CFE7E2885949D2B22800594BF4
:101D10009847F7BD6388280033714B4B98472800DC
:101D2000554B9847F5E7311D00230122BBE70023FF
:101D300050222381A3881340A372A388413A134001
:101D4000A380A388032B00D971E7A37A002B0BD0C3
:101D5000A38808335B01EB189B799B062100DB0FFE
:101D600023810831002351E7A38808335B01EB1876
:101D70009B79DB06F2E77F21A3888B43DBB2A3725A
:101D8000A38870390B40A3806388002B00D04EE7F6
:101D9000A388002B00D14AE7A388032B00D946E78C
:101DA000A37A002B08D02022A38808335B01EB180C
:101DB0005A712800244BB4E7A38808335B01EB1861
:101DC000F6E77F22A3889343DBB2A372A388703A1D
:101DD0001340A3806388002B00D028E7A388002B42
:101DE00000D124E7A388032B00D920E7A37A002B96
:101DF00044D0A38808335B01EB189B799B06D8D5A8
:101E0000A388113208335B01EB181A71A3880833D9
:101E10005B01EB18DB795B06CBD5A3882032083356
:101E20005B01EB18DA71A3883E3A08335B01EB18CB
:101E30001A71BEE7B4000020A600002002030000D3
:101E4000010300006D03000081030000A5030000F2
:101E500021200000A12100002122000074230000A5
:101E60005D0200000800002096230000ED1F000026
:101E70008A230000451B0000B1030000A38808333B
:101E80005B01EB189B79DB0693D51022A3880833FE
:101E90005B01EB181A71A38808335B01EB18DB793F
:101EA0009B0600D485E7A388921808335B01EB18E2
:101EB000DA71A3881F3A08335B01EB18B8E70822F0
:101EC000E388934201D8E28892B200230049EAE60F
:101ED00000000020002243088B4274D303098B4288
:101EE0005FD3030A8B4244D3030B8B4228D3030CEA
:101EF0008B420DD3FF22090212BA030C8B4202D38C
:101F00001212090265D0030B8B4219D300E0090AB3
:101F1000C30B8B4201D3CB03C01A5241830B8B42BC
:101F200001D38B03C01A5241430B8B4201D34B03A5
:101F3000C01A5241030B8B4201D30B03C01A52410A
:101F4000C30A8B4201D3CB02C01A5241830A8B428F
:101F500001D38B02C01A5241430A8B4201D34B0278
:101F6000C01A5241030A8B4201D30B02C01A5241DC
:101F7000CDD2C3098B4201D3CB01C01A5241830990
:101F80008B4201D38B01C01A524143098B4201D3CA
:101F90004B01C01A524103098B4201D30B01C01AF5
:101FA0005241C3088B4201D3CB00C01A524183086F
:101FB0008B4201D38B00C01A524143088B4201D39C
:101FC0004B00C01A5241411A00D2014652411046FC
:101FD0007047FFE701B5002000F006F802BDC046DB
:101FE0000029F7D076E770477047C046002310B548
:101FF0009A4200D110BDCC5CC4540133F8E7030011
:102000008218934200D1704719700133F9E7002319
:10201000C25C0133002AFBD1581E7047F8B5C04698
:10202000F8BC08BC9E467047F8B5C046F8BC08BC72
:102030009E4670472E2E2F68706C2F706F72742F13
:1020400068706C5F6770696F5F626173652E6800AE
:102050002E2E2F68616C2F7372632F68616C5F6620
:102060006C6173682E63002E2E2F68616C2F737263
:10207000632F68616C5F7370695F6D5F73796E6306
:102080002E63002E2E2F68706C2F6E766D63747227
:102090006C2F68706C5F6E766D6374726C2E63006B
:1020A0000000000000000000000000000000000030
:1020B00000000000000000000C0001000000020011
:1020C000000000000500FF01040C001100000002E8
:1020D00000000000000500FF01052E2E2F68706C27
:1020E0002F736572636F6D2F68706C5F73657263B9
:1020F0006F6D2E630000000000002110422063304D
:102100008440A550C660E770088129914AA16BB14F
:102110008CC1ADD1CEE1EFF13112100273325222F7
:10212000B5529442F772D662399318837BB35AA39F
:10213000BDD39CC3FFF3DEE36224433420040114C7
:10214000E664C774A44485546AA54BB528850995EF
:10215000EEE5CFF5ACC58DD5533672261116300697
:10216000D776F6669556B4465BB77AA7199738873F
:10217000DFF7FEE79DD7BCC7C448E5588668A77857
:102180004008611802282338CCC9EDD98EE9AFF98F
:10219000488969990AA92BB9F55AD44AB77A966A37
:1021A000711A500A333A122AFDDBDCCBBFFB9EEBDF
:1021B000799B588B3BBB1AABA66C877CE44CC55C07
:1021C000222C033C600C411CAEED8FFDECCDCDDD2F
:1021D0002AAD0BBD688D499D977EB66ED55EF44ED7
:1021E000133E322E511E700E9FFFBEEFDDDFFCCF7F
:1021F0001BBF3AAF599F788F8891A981CAB1EBA1D3
:102200000CD12DC14EF16FE18010A100C230E3204E
:102210000450254046706760B9839893FBA3DAB3F6
:102220003DC31CD37FE35EF3B1029012F322D2329E
:102230003542145277625672EAB5CBA5A8958985C6
:102240006EF54FE52CD50DC5E234C324A0148104EE
:102250006674476424540544DBA7FAB79987B89796
:102260005FE77EF71DC73CD7D326F2369106B0163E
:1022700057667676154634564CD96DC90EF92FE956
:10228000C899E9898AB9ABA944586548067827688E
:10229000C018E1088238A3287DCB5CDB3FEB1EFB36
:1022A000F98BD89BBBAB9ABB754A545A376A167ADE
:1022B000F10AD01AB32A923A2EFD0FED6CDD4DCD06
:1022C000AABD8BADE89DC98D267C076C645C454C2E
:1022D000A23C832CE01CC10C1FEF3EFF5DCF7CDFD6
:1022E0009BAFBABFD98FF89F176E367E554E745E7E
:1022F000932EB23ED10EF01EBD140000DD1400007E
:10230000FD140000251500004515000025150000EE
:1023100075150000080000001000000020000000FB
:1023200040000000800000000001000000020000EA
:1023300000040000322E30005B41726475696E6FDC
:102340003A58595A505D00760020002046656220B8
:10235000313320323032332030373A30313A32386C
:102360000A0D00580A0D00590A0D005A00230A0DE3
:10237000003E000012010002020000409A231B00F0
:102380000002010200010403090441726475696ED0
:102390006F204C4C43004E5342204D3020426F6F13
:0C23A000746C6F61646572000000000046
:1023AC0000C2010000000800090243000201008085
:1023BC00320904000001020200000524001001048F
:1023CC0024020005240600010524010001070583F1
:1023DC00030800FF09040100020A00000007058140
:1023EC0002400000070502024000000069000000E6
:0823FC00410000000000000098
:0400000300000515DF
:00000001FF
