:10000000007C002015050000000000000D05000028
:1000100000000000000000000000000000000000E0
:1000200000000000000000000000000000000000D0
:10003000000000000000000011050000FD15000098
:1000400010B5064C2378002B07D1054B002B02D0AE
:10005000044800E000BF0123237010BD5C000020B5
:1000600000000000D8240000084B10B5002B03D07E
:100070000749084800E000BF07480368002B00D18B
:1000800010BD064B002BFBD09847F9E7000000009D
:1000900060000020D824000058000020000000006C
:1000A00010B5014B984710BDD9070000036808211F
:1000B0001A0070B50400988BFF32084227D099834C
:1000C0007831997211234020C0255370134B9071E1
:1000D00051715968124EAD05314029435960596933
:1000E00031400D430F495D6119600F490F4D196192
:1000F00059680D4080218902294359605968890B4C
:1001000089035960002350712371207970BD137ADF
:10011000DB06FAD52000064B9847F6E7B40100202D
:10012000FFFFFF8FB400002034010020FF3F00F0EC
:10013000C91C0000002303714371044B01608360FC
:1001400002230A7813430B707047C046AD000000CD
:10015000202370B5354A0F20D1690B43D3610122AA
:1001600033490B7813430B70324B19788143197064
:1001700006211C78214319702F490C7822430A70FC
:100180001A7802401A70602219780A431A702B4BB1
:100190002B4A5A805A7852B2002AFBDB0122294BA3
:1001A00019780A431A709A78D207FCD41F2026497E
:1001B0000A68520B0240824200D105221C8D234D59
:1001C000024092012C4022431A850A68920C024098
:1001D0001F2A00D1023A1F24188D2240A043024357
:1001E00007201A850A68D20D0240824200D10322FC
:1001F000198D02401648120301400A437F211A85D7
:100200001A7814480A401A70042219780A430C21FB
:100210001A7058621A898A431A811A890B398A43DB
:100220001A81002180220C4B984770BD00040040C9
:10023000584400413C44004159440041000C0040F6
:100240000640000000500041246080003FF8FFFF9E
:10025000FF8FFFFFB401002033210000F7B50090AD
:1002600001201E4E1C005B0117000193F218536918
:1002700010325B005B0F03339840B84221D88023D3
:1002800050681B06034353606301F61831617369BC
:10029000B9049B0B890C9B030B4373617369104971
:1002A00008340B407361009B64011C190223E37145
:1002B0006279823B13436371E3799B07FCD5380075
:1002C000FEBD25006B1E9D41064BAD01ED183A00A9
:1002D0002800054B98472900D6E7C046B401002006
:1002E000FF3F00F03401002021210000F8B51A4F33
:1002F00006003B7808001400002B12D1174B184A57
:1003000018491A645A6C920B92035A645A6C0A4048
:100310005A64A22240235200B15C0B43B354012320
:100320003B704825FF35735DDB07DB0F12D00B4AAE
:10033000536C9B049B0CA34202D2546CA404A40CE7
:10034000094B2200064998470123735500233B704F
:100350002000F8BD1C00FBE778000020B40100205D
:10036000F4000020FF3F00F021210000FF308279DF
:100370002023002900D1102313438371704700000C
:10038000074AFF3053699B0B9B035361022303729F
:100390008279823B13438371037A9B07FCD57047B4
:1003A000B401002080235B421943C9B281727047B7
:1003B000A0230322C02170B55B00C254124B134C22
:1003C0005A6C890522400A435A6446224025FF326E
:1003D00085540F4A30261A649022520086545A6B74
:1003E0002240114392225963802152008154094ACC
:1003F0001A63B022520085545A6F22405A67B223C2
:100400005B00C15470BDC046B4010020FFFFFF8FE8
:10041000F400002074010020024A53785BB2002BE4
:10042000FBDB7047000C004010230249CA681A42E7
:10043000FCD0704700080040F7B51E222649274C23
:100440004B6893431C3A13434B60254BA382A38A0A
:100450001343A3820192E368019A1342FBD0012364
:10046000204D214EAB60B047204B6B60B0478223DC
:10047000DB016B80B0478022A38C1D4F9343A38484
:10048000B8471C4BE362B847A28C1B4B1343A384B1
:10049000B847A38C019A1A43A28480234022E168C2
:1004A0001942FCD0E1681142F9D00024B847AC6091
:1004B000B047124B6B60B047C021114A114B124834
:1004C0005360036A09061B021B0A0B4303620723DE
:1004D00094601360F7BDC046004000410008004032
:1004E0000C060000000C004019040000010501008A
:1004F00029040000B805FF7D040A0000000703007E
:1005000010E000E0E703000000ED00E00DBEFEE7B4
:1005100002BEFEE70D4A0E4870B5824207D10D4B70
:100520000D4A002193420ED10C4B9847FEE70C4C2C
:1005300000239442F3D0D1188842F0D9E55804330F
:100540000D60F8E702C39342FCD3EDE70000002002
:100550005C0000205C000020000300206915000002
:10056000DC24000070B51F244209C0B20440FF2300
:100570004D1C09D11A40D201144BA218D21813787D
:1005800002318B43137070BD01251340104ADB010B
:100590009B181E1940363278AA432A4332706208EB
:1005A000284209D00F209A183032137809010340ED
:1005B0001943C9B21170E6E70F209B1830331A783F
:1005C0000140824311431970DDE7C04640440041B9
:1005D0000044004110B5012A19D0002A07D0022A90
:1005E00025D0452215490020154B98471EE0C02311
:1005F000C001DB05C318596080238AB2DB051343B1
:10060000104A090C80188362C0231B060CE0C0232B
:10061000C001DB05C31859600B4B8AB21343094A6A
:10062000090C80188362094B1943816210BDC023F5
:10063000C001DB05C3189960DEE7C04668210000F1
:10064000550E00000044004100000240000002C0BE
:100650000423024AD1690B43D36170470004004070
:1006600010B5034B984703490348044B984710BD06
:1006700051060000004000414C020020C10B000068
:10068000802170B50122104D49010020A8470421A6
:100690000E4A0F4C13780C208B4313700D49A04762
:1006A00080210D4EC900316002220120A8470B496C
:1006B0002A20A04780210901316002220120A84799
:1006C00007492B20A04770BDD50500004C440041D0
:1006D0006505000003000C009400006003002A0080
:1006E00003002B004023044A116A0B431362034AA0
:1006F000034B5A807047C046000400401840000079
:10070000000C004010B5044B98470449044B0548C1
:100710009847054B984710BDE506000000180042B9
:10072000290D00006802002081060000012270B53A
:100730001000104D0821A84704210F4A0F4C1378D0
:1007400023208B4313700E49A04780210D4EC9030F
:10075000316002220120A8470B493620A0478021A2
:100760000904316002220120A84708493720A04728
:1007700070BDC046D5050000C344004165050000BA
:1007800003002300940000600300360003003700DC
:100790008023044A116A0B431362034A034B5A80B5
:1007A0007047C0460004004019400000000C0040A3
:1007B00010B5044B98470449044B05489847054B2E
:1007C000984710BD91070000001C0042290D000051
:1007D000340200202D070000F8B5114BC0279847C0
:1007E0001021FF050F4CB9610F4E02220020B047C7
:1007F000220001258021443213788901AB43002077
:1008000013704D34B9610222B0472378AB43237093
:10081000064B9847064B9847064B9847F8BDC0468D
:100820005D0E000000440041D50500006106000097
:1008300005070000B10700001F21084B1A68D2B25B
:1008400053090A401E399140C022DB01D2059B1892
:10085000002801D1996170475961FCE77C000020B4
:1008600010B5034B034898470422034B1A6010BD90
:10087000790D0000680200207C0000201FB56B4647
:100880006A469870023301930123D41C002203931B
:1008900001A9044B0448227002949847207804B0C0
:1008A00010BDC046A10D000068020020F8B501206F
:1008B000234FB847234D9F20A8470020A847060094
:1008C0000020A847204C0002A0800020A847A38851
:1008D0001843A0800020B847C22E19D0EF2E28D090
:1008E00000201F2E0DD18421A288C901174B8A42F6
:1008F00008D180229202A260802252001A80134BFB
:100900001888F8BD12498A42F9D180221203F2E711
:10091000A28810490D4B8A4205D180225203A26061
:1009200080225201EAE70C498A42E8D1802212046F
:10093000F5E780238022DB02A3605201034BDDE751
:10094000390800007D0800007C0000200000002025
:1009500002440000142800001728000070B5012090
:10096000064DA847064C0520A0470020A0470400DC
:100970000020A8470120204070BDC0463908000073
:100980007D08000010B50400002906D006200021D3
:10099000FFF7F8FF0020064B9847064B98470028C2
:1009A000FBD10130024B98472000034B984710BD04
:1009B000390800005D0900007D08000070B50400E2
:1009C00000210A4B03209847200C094DC0B2A847CC
:1009D000200AC0B2A847E0B2A8470020A8470400F8
:1009E000044B00209847200070BDC04685090000D8
:1009F0007D08000039080000F0B5514C514BA5446A
:100A000098470121504B08009847504B00209847C9
:100A100000204F4B984700204E4CA0470026462808
:100A200036D14538A0474C282AD14A38A047582803
:100A300026D15238A0473A2822D12F38A0473A2849
:100A40001ED18023444DDB023338EB60A047070002
:100A50000820A0473F060004074309200097A0474D
:100A600007000A20A047009B3F0218430743B742F4
:100A700005D0AB689F4202D8EB689F420CD9ED6865
:100A8000002480235B01EB189C423ED9324B1E7C34
:100A90003000324B9D44F0BD3148324B98478024A2
:100AA00035000090E401731C9BB2019380235B012D
:100AB000E818284B984702AB9855019E009BB3421B
:100AC0000ED1274E210001223000274B9847009B72
:100AD0002100300002AA254EB0470026009BE418F2
:100AE0000135AF42DFD1002E0BD01D4E2100012277
:100AF0001D4B300098472100009B02AA30001B4C80
:100B0000A0470122144B1A74BAE7194B9847061EE6
:100B1000FBD1012152200C4B9847200C0B4BC0B24B
:100B20009847200A094BC0B29847084B30009847B5
:100B3000074B3000984780231B02E418A1E7C0460A
:100B4000F4FBFFFFAD080000850900007D080000F0
:100B500039080000BD0900007C0000200C040000E2
:100B60004C020020010D0000810C0000050C00006B
:100B70005D090000436910B5002B00D0984710BDF7
:100B8000836910B5002B00D0984710BD70B51822AE
:100B90000500431E98410C00C0B2FF320549064BC8
:100BA00098472800054B98470138204001D00E2077
:100BB000404270BD84210000550E0000A90F0000C6
:100BC00070B504000D00002803D00800431E9841B2
:100BD000C0B20749074B3822984729002000064B2E
:100BE0009847002803D1054B2360054B636070BD17
:100BF00084210000550E0000490F0000750B000015
:100C0000810B0000F7B504000D0016001F0000283E
:100C100004D0101E02D01800431E98416A221249C7
:100C2000124B9847124B20009847124B019020001E
:100C30009847019B5843A84211D37B1998420ED381
:100C4000290020000C4B9847019000280AD1200071
:100C50003B0032002900094CA0470198FEBD0E2040
:100C60004042FBE71120FBE784210000550E000005
:100C7000A90F0000AD0F00007D110000FD0F000066
:100C8000F7B504000F001600002803D01000431E23
:100C90009841C0B29A221349134B9847134B200036
:100CA0009847134B01902000984739000090114B52
:100CB00020009847051E0FD1009B9E420ED80E4B78
:100CC000019938009847009B8019834206D332006F
:100CD00039002000094B98472800FEBD0D256D42C4
:100CE000FAE7C04684210000550E0000A90F00005D
:100CF000AD0F00008D0B000009200000D510000092
:100D000010B50400431E9841F7220449C0B2044BB9
:100D100098472000034B984710BDC046842100002F
:100D2000550E0000A90F000070B504000D0000284A
:100D300003D00800431E9841C0B20949094B402224
:100D400098476560201D2900074B9847002806DB5F
:100D50000020064BA382064B2361064BE36070BD67
:100D60009B210000550E0000E51100000080FFFFF0
:100D70001D0E0000E50D000010B50400431E984153
:100D800057220449C0B2044B9847201D034B984793
:100D900010BDC0469B210000550E0000AD130000A1
:100DA00030B5040087B00D00002803D00800431EB2
:100DB0009841C0B2B3220849084B98472B68201DC0
:100DC00003936B6803A90493AB6801930593044BE9
:100DD000984707B030BDC0469B210000550E00006B
:100DE000D91300007FB50400431E98410E00150082
:100DF000C0B2A3220649074B984700232000029364
:100E000001A9054B0C3801960395984704B070BDB5
:100E10009B210000550E0000A10D00007FB50400CD
:100E2000431E98410E001500C0B287220649074BA9
:100E3000984700232000019301A9054B0C38029626
:100E40000395984704B070BD9B210000550E00002B
:100E5000A10D0000002800D100BE704710B502248B
:100E6000074A536823435360064B9847064B9847FD
:100E70002000064CA047064B9847FD20A04710BD18
:100E80000040004195110000B5140000950E0000CF
:100E9000CD140000C3070BD4830708D50222094BE9
:100EA000FF329A60084A5A605A78D209FCD17047DA
:100EB0008022044B52009A60044A5A605A78D20940
:100EC000FCD1E9E7000C004001030100000701002C
:100ED000F7B50126040017003000C5220D0001936C
:100EE000884352001449154B9847F540237D3342FF
:100EF000FCD0134B23800123227D1A42FCD02023F7
:100F0000FF33238300236900019A934207D301230F
:100F1000227D1A42FCD00B4BE5612380F7BDF85CC3
:100F200082B23E2B03D8FA185278120202430233DF
:100F30000A809BB20231E7E7B7210000550E00009E
:100F400044A5FFFF04A5FFFF70B504000D000028B5
:100F500004D00F4BC81843425841C0B246220D4935
:100F60000D4B98479E2225616B680C4913406B60BE
:100F70000B4B0C4A1C602023CB67BFF34F8FBFF392
:100F80006F8FC021490053500020136070BDC046D0
:100F900000C0FFBEB7210000550E000004E100E0D4
:100FA0009000002000E100E04020704780204001D8
:100FB000704770B5012500694C08067D2E42FCD0B3
:100FC0002026FF3606830020294205D0A943098840
:100FD0000134090A117001306400241A5E1E98421F
:100FE00000D370BD0119098889B21154B04202D2F0
:100FF0001518090A69700230F1E70000F0B50D001C
:10100000C7B0029003920193FF232C009C4323005E
:10101000661CFF330493FF360094009B00991A1B53
:1010200006ABD21802984023274FB847009B4033A5
:101030000093B342F1D13F222E002B1B990913409C
:10104000039A501B039F721BBA180592049A96428A
:1010500002D8019A002A26D10122029B1B69197D20
:101060001142FCD020222500FF321A836208DA6187
:10107000164A1A8002982A1B06ABD2182900402370
:101080000069134FB847009B4035AB42F2D1059B36
:10109000049A0393019BF318013B9A4201D347B092
:1010A000F0BD3500B0E78A0106AFD219875D013681
:1010B000D7543F22013313405A425A418918019AAA
:1010C000013A0192BEE7C046B30F000002A5FFFF40
:1010D000D10E0000F0B50D00FF212E0093B000905E
:1010E000170002A84022224B8E439847B54217D1E1
:1010F000012331003A009C461E4C032A25D80025C6
:10110000BC08A3002402FF1AA419AF422DD021006D
:10111000402302AA0098184EB04740340135F4E746
:101120002B000136C033FF360193402302AA290069
:101130000098114C013FA047002F16D04035AE4219
:10114000D6D0019B9D42F0D1D2E7009B1B6960463F
:101150001D7D0542FBD020204D08FF300131188352
:10116000FF31DD61043A1C80C7E713B0F0BDC04613
:101170003321000002A5FFFFFD0F000003690120DD
:10118000890B89B288401B8C184043425841C0B239
:1011900070470000064B1A7AD2B21A725A7AD2B24B
:1011A0005A729A7AD2B29A72DA7AD2B2DA727047F4
:1011B00000040040C3691942FCD17047012310B5F7
:1011C000C4691C4008D10268DB1813430360032183
:1011D000034B9847200010BD04204042FBE7C04667
:1011E000B5110000654BF7B5CA18920AD2B20700D4
:1011F0000D00634B042A00D184E0052A00D0B1E041
:10120000043A1124002062435E4C1834A41887422B
:1012100003D02800421E9041C0B25B4A5B49984708
:10122000002C00D1A6E0EB69594EDB071AD41C2331
:10123000227803211A4028000192B04702222B682D
:10124000134208D02B680321934328002B60B0473A
:1012500002212800B0470123019A032113432B6088
:101260002800B04701212800B0471C2223783D60A8
:101270001340082B48D1474A44490120404B984726
:101280006278237812021A43A37803211B041A43BD
:10129000E37828001B0613433F4A13402B60B047F6
:1012A0006279237912021A43A37907211B041A4396
:1012B000E37928001B061343384A1340384A134386
:1012C0006B60B047627A237A12021A43A37A1B0436
:1012D0001A43E37A1B0613436B622B00627B3033A5
:1012E0001A70EB69002BFCD10722237900201340F0
:1012F0005A1E934101333B71E37BA27B1B021343D4
:10130000FB80FEBD00227CE7264A204901201C4BC1
:1013100098476278237812021A43A37828001B04A6
:101320001A43E37803211B0613431B4A13402B6027
:10133000B0476279237912021A43A37928001B046B
:101340001A43E37907211B061343174A13408022EF
:10135000920213436B60B047237B2B73637B303562
:101360002B70C1E70024A04200D052E7064A07498B
:10137000380098470D204042C3E7C04600F8FFBD43
:10138000550E0000D4210000250900000E220000A7
:10139000B511000003090000FCFEFFFFBFDDFDFFEB
:1013A00040020200EF080000BF1DFDFF10B5041E43
:1013B00003D00068431E9841C0B29822034912012D
:1013C000034B98472068034B984710BD0E2200003E
:1013D000550E0000BD110000F0B5056885B0019004
:1013E0000291037928000393431E98410F684E68C9
:1013F000C0B22C4A2C492D4B98470720EC69044079
:1014000031D12B4B0321280098472B689B072DD502
:10141000012321009C4604232A7ED2B21A4227D0FF
:10142000AB6A002E04D003983370012812D801361D
:10143000013152B2002A2DDA012313205B426B8363
:1014400081332B76404203232A7E1A42FCD02B762E
:1014500005B0F0BD1B0A73700236E9E77B780237EE
:101460001B02034313E004204042F1E71420FBE792
:10147000A142DED363461A42DBD0019BDB88002FFA
:1014800005D0039B3878012BE8D8030001370134DD
:10149000AB62CEE7029B9B689C42BCD39942BAD315
:1014A0002000D0E7850A00000E220000550E000043
:1014B000B51100000222044B99690A431F219A6169
:1014C0001A7F0A401A7770470008004082230222E0
:1014D0001949DB014B80194B9A840E32D8681042AF
:1014E000FCD0174ADA62174A1268920E3F2A0ED0D1
:1014F00080209202800002439A6206229A849A8C8B
:10150000520707D41022D8681042FCD007E0FC2212
:10151000D201F1E7D020DA680240D02AFBD1802244
:10152000988C02439A844A78D209FCD102219A69A4
:101530008A439A617047C046000C00400008004092
:10154000B9050104246080008023DB0110B51A680E
:1015500082F30888024A9360024B1B68984710BDCB
:1015600000ED00E00440000070B5184B9847184BA0
:101570009847184B9847002801D0174B9847174BAE
:10158000984762B6164B9847C021164A164B04007E
:1015900016485360036A09061B021B0A0B430362C9
:1015A00000230125936007331360A3682000984748
:1015B0000F4B002800D01D701B78002BF5D00020A9
:1015C0000C4B98470C4B9847FCE7C046A100000025
:1015D00061080000F9090000491500003904000005
:1015E000511C000010E000E0E703000000ED00E007
:1015F0009400002019170000AD170000704700008C
:10160000012313B5019004481A0001A9034C006896
:10161000A047012016BDC046F40200205D02000074
:1016200013B56B46DC1D044B012221001868034BE7
:101630009847207816BDC046F4020020ED02000055
:1016400010B5074C074B2000984703000020834249
:1016500005D048232268FF33D05CC007C00F10BDFF
:10166000F4020020AD00000070B50C000A0001007B
:101670000348044D01230068A847200070BDC04600
:10168000F40200205D02000070B5084C084B050014
:1016900020000E00984703000020834204D032004F
:1016A00029002068034B984770BDC046F402002013
:1016B000AD000000ED020000F8B50B4F04000B4B2D
:1016C00038000E0098473500002808D1060008E0D1
:1016D0002A0021003868064B98472D1A2418002D3F
:1016E000F6D13000F8BDC046F4020020AD00000085
:1016F000ED02000010B5030008001100984710BD6E
:101700000B0A4340034A5B00985A0902484080B2E2
:101710007047C0462C220000002802D1014A024B2B
:101720001A6070472C240000E40200207FB51C4B97
:101730000A001B78002B2ED004291BD100686946B3
:101740000F253026520004AB9B180B3B4C1DA342C7
:1017500016D130230A2001A90B7048334B708B1827
:1017600098700330D8700F4B04321B68D8680E4B4A
:1017700098477FBD022901D10088E0E70078DEE7C5
:1017800001002940092904D8314319700009013B9F
:10179000DDE73731F9E7034B01001B68E6E7C04698
:1017A00098000020E4020020F5160000F0B58FB08C
:1017B00006A90A00B14BB24F1C3331CB31C231CB39
:1017C00031C211CB11C2AF4A93685B035B0F9B0020
:1017D0005858AD4BAD49186093689BB20B604343BA
:1017E000AB490B600021138BDB05DB0F7B70A94B32
:1017F00019607A23A84901920B700393A74BA84C58
:101800001B6840211B69200098470022A54B1860E7
:10181000A54B1C60A54B1A60A44DA24E2B683268E4
:101820009342EBD2A04B1B681B78FF2B57D0A04CE8
:10183000232B00D0CFE13B78002B06D0974B022220
:101840001B689C49D8689C4B9847934B1B78532B3B
:1018500050D132682B689A421BD9934801332B60D0
:10186000D31A934A0168126801310160934C934284
:101870003ED22360874B22681868914B98472368B3
:101880002A688949D2182A600A68D2180A608D4AE3
:1018900013702B68844A013B2B601368013B136073
:1018A000884B834A1B7811688B4206D2C91A7B4B3E
:1018B000784A1B6810689B699847C0466A46764B11
:1018C000127B1A7000227A4B1A603B78934206D042
:1018D000724B01321B687C49D868774B9847734A32
:1018E000136801331360704A13680133136093E780
:1018F0002260BFE7522B11D17A78664B002A05D0BF
:10190000724A1968914201D8714A1A60634A19688B
:101910001068704B226840699847CFE7644E4F2BA0
:1019200004D15C4B32681B681A70C7E7482B04D19E
:10193000584B32681B681A80C0E7572B04D1554BAF
:1019400032681B681A60B9E76F2B0ED17A78514B59
:10195000002A05D01A686049043A8A4200D81E60FD
:10196000012118685D4B9847A8E7682B11D17B7857
:10197000484A002B09D013685749043B8B4204D8CE
:101980000023336002212000ECE713681B882360EA
:10199000F8E7772B0FD17B783E4A002B08D01368ED
:1019A0004D49043B8B4203D8002333600421EAE70E
:1019B00013681B68F9E77A78002A04D1472B02D113
:1019C000474B98477AE7542B08D10222533B3B7090
:1019D000324B38491B68D868374B9DE74E2B0CD1EA
:1019E0003B78002B06D12D4B02221B683149D86869
:1019F000314B984700233B7060E7562B1FD1274D92
:101A00002D4C2B6801223749D868A0472B681B4909
:101A100003223C31D868A0472B6801223249D8689C
:101A2000A0472B6815490E224031D868A0471722DD
:101A30001D4B2E4919602B68D868A0473EE7582BEC
:101A40000ED1002A09D131680122294B2948984733
:101A5000124B03221B682849BDE78021C901F3E727
:101A6000592B00D087E03368002B49D1094B1B6804
:101A70007B600A4B03221B682049ACE72C24000042
:101A800098000020004000419C02002094020020A9
:101A900090020020E00200208C020020E4020020DE
:101AA000A00200208402002088020020980200206A
:101AB000EC020020A2240000F5160000F002002035
:101AC0002121000080020020A5240000FFFFFF1F4D
:101AD00000500020F5160000FBFFFF1F2D1700002F
:101AE000491500007B2400007D2400007F240000B5
:101AF000810C00004C020020972400009B24000071
:101B0000002A08D08021BB68C9018B4203D0012282
:101B10004348444B98478024434B32681968019BE3
:101B200078685B68414EA343019C92086360404B18
:101B30009C46002A9DD06446019B1C80019B1B7D16
:101B4000DB07FBD500233B4C24680294A408A34286
:101B50000AD3019C2680019C247DE407FBD59C00D0
:101B600009190019D21AE4E79342F2D09C000559F2
:101B700001330D51E7E75A2B00D09FE600242A4B92
:101B800036681D68AE19AE421ED12B4D01222B685E
:101B90002A49D8682A4B984707230F222240110070
:101BA00024093031092A01DD3732110004AA995481
:101BB000013BF2D22B68082204A9D868204CA04728
:101BC0002B6803221F4937E7287821001E4B9847CE
:101BD00001350400D7E71A00303AD1B2092904D8F8
:101BE00023681B011343236079E61A00413A052A52
:101BF00003D82268373B1201F4E71A00613A052A3C
:101C000003D82268573B1201ECE72C2B04D1064B7A
:101C100022681A600023E6E70C4A1370FAE7C04610
:101C20004C020020810C0000E002002004A5FFFF10
:101C300044A5FFFF9C020020E40200209F24000036
:101C4000F5160000A1240000011700008C020020FE
:101C500010B5054B054C2360054B984721682000C3
:101C6000044B9847200010BD00500041F4020020B2
:101C7000510100003501000070B5114BC0B00500E6
:101C8000080016000C0098476B46400002301870A0
:101C90006A46032376085370023B5A1EA15C5A0021
:101CA000002901D0B34206DB002369462800054C19
:101CB000A04740B070BD684601338152EDE7C04691
:101CC000432100005D020000F7B5056810222900DD
:101CD000A54BA64C06001878FF310A722070587880
:101CE000607098786080D878678800023843608098
:101CF0001879A0805879A78800023843A080987985
:101D0000E080DB79E0881B020343E38040234B71D2
:101D1000637821781B020B4395498B4200D1C4E0C4
:101D200024DCF03293421CD00CDC812B04D0822BBB
:101D300000D196E0802B14D10023210023810831AB
:101D400002224AE081225200934200D1D3E000DA1D
:101D5000C9E0FF32FF32934203D0864A934200D15A
:101D6000C1E001212800844B98476CE090221201C9
:101D7000934200D168E015DCD022D200934220D0FB
:101D800088221201934200D167E0A022D200934240
:101D9000E7D12800794B98476188306889B2784B41
:101DA000984750E0774A934200D19CE0D9DD764ACB
:101DB000934200D11DE1754A9342D2D16388737179
:101DC00091E063881B0A012B0BD11222E388934216
:101DD00001D8E28892B200236D4928006D4CA047DB
:101DE00031E063881B0A022B08D14322E388934227
:101DF00001D8E28892B200236749EEE763881B0AA4
:101E0000032BAED16388DBB2012B16D0002B05D09B
:101E1000022BA6D1E2886149D2B211E05C490422CA
:101E20005F4B123101A898470422E388934201D8FE
:101E3000E28892B2002301A9CFE7E2885949D2B2E1
:101E40002800594B9847F7BD6388280033714B4BE6
:101E500098472800554B9847F5E7311D002301228C
:101E6000BBE7002350222381A3881340A372A388D9
:101E7000413A1340A380A388032B00D971E7A37ACA
:101E8000002B0BD0A38808335B01EB189B799B06D2
:101E90002100DB0F23810831002351E7A388083399
:101EA0005B01EB189B79DB06F2E77F21A3888B436C
:101EB000DBB2A372A38870390B40A3806388002B28
:101EC00000D04EE7A388002B00D14AE7A388032B5C
:101ED00000D946E7A37A002B08D02022A388083334
:101EE0005B01EB185A712800244BB4E7A388083330
:101EF0005B01EB18F6E77F22A3889343DBB2A37262
:101F0000A388703A1340A3806388002B00D028E791
:101F1000A388002B00D124E7A388032B00D920E756
:101F2000A37A002B44D0A38808335B01EB189B797C
:101F30009B06D8D5A388113208335B01EB181A71C0
:101F4000A38808335B01EB18DB795B06CBD5A3884C
:101F5000203208335B01EB18DA71A3883E3A08336C
:101F60005B01EB181A71BEE7B4000020A600002048
:101F700002030000010300006D0300008103000064
:101F8000A503000021200000A12100002122000063
:101F9000A82400005D0200000C000020CA240000FC
:101FA00021210000BE240000791C0000B1030000C4
:101FB000A38808335B01EB189B79DB0693D51022CD
:101FC000A38808335B01EB181A71A38808335B01FF
:101FD000EB18DB799B0600D485E7A38892180833B9
:101FE0005B01EB18DA71A3881F3A08335B01EB1829
:101FF000B8E70822E388934201D8E28892B200232E
:102000000049EAE604000020002243088B4274D312
:1020100003098B425FD3030A8B4244D3030B8B42E9
:1020200028D3030C8B420DD3FF22090212BA030CF2
:102030008B4202D31212090265D0030B8B4219D3D3
:1020400000E0090AC30B8B4201D3CB03C01A5241F3
:10205000830B8B4201D38B03C01A5241430B8B423B
:1020600001D34B03C01A5241030B8B4201D30B0324
:10207000C01A5241C30A8B4201D3CB02C01A52414B
:10208000830A8B4201D38B02C01A5241430A8B420E
:1020900001D34B02C01A5241030A8B4201D30B02F7
:1020A000C01A5241CDD2C3098B4201D3CB01C01A11
:1020B000524183098B4201D38B01C01A524143091B
:1020C0008B4201D34B01C01A524103098B4201D309
:1020D0000B01C01A5241C3088B4201D3CB00C01A76
:1020E000524183088B4201D38B00C01A52414308EE
:1020F0008B4201D34B00C01A5241411A00D2014613
:10210000524110467047FFE701B5002000F006F885
:1021100002BDC0460029F7D076E770477047C04639
:10212000002310B59A4200D110BDCC5CC4540133D9
:10213000F8E703008218934200D170471970013309
:10214000F9E70023C25C0133002AFBD1581E704717
:10215000F8B5C046F8BC08BC9E467047F8B5C04606
:10216000F8BC08BC9E4670472E2E2F68706C2F70EE
:102170006F72742F68706C5F6770696F5F626173F4
:10218000652E68002E2E2F68616C2F7372632F6886
:10219000616C5F666C6173682E63002E2E2F686120
:1021A0006C2F7372632F68616C5F7370695F6D5F12
:1021B00073796E632E63002E2E2F68706C2F6E76EF
:1021C0006D6374726C2F68706C5F6E766D63747281
:1021D0006C2E630000000000000000000000000002
:1021E0000000000000000000000000000C000100E2
:1021F00000000200000000000500FF01040C0011B7
:102200000000000200000000000500FF01052E2E66
:102210002F68706C2F736572636F6D2F68706C5FC1
:10222000736572636F6D2E63000000000000211063
:10223000422063308440A550C660E7700881299130
:102240004AA16BB18CC1ADD1CEE1EFF131121002D8
:1022500073325222B5529442F772D6623993188380
:102260007BB35AA3BDD39CC3FFF3DEE362244334A4
:1022700020040114E664C774A44485546AA54BB5D0
:1022800028850995EEE5CFF5ACC58DD55336722678
:1022900011163006D776F6669556B4465BB77AA720
:1022A00019973887DFF7FEE79DD7BCC7C448E558C4
:1022B0008668A7784008611802282338CCC9EDD970
:1022C0008EE9AFF9488969990AA92BB9F55AD44A18
:1022D000B77A966A711A500A333A122AFDDBDCCBC0
:1022E000BFFB9EEB799B588B3BBB1AABA66C877CE4
:1022F000E44CC55C222C033C600C411CAEED8FFD10
:10230000ECCDCDDD2AAD0BBD688D499D977EB66EB7
:10231000D55EF44E133E322E511E700E9FFFBEEF5F
:10232000DDDFFCCF1BBF3AAF599F788F8891A98121
:10233000CAB1EBA10CD12DC14EF16FE18010A1000B
:10234000C230E3200450254046706760B9839893FB
:10235000FBA3DAB33DC31CD37FE35EF3B10290125B
:10236000F322D2323542145277625672EAB5CBA5C7
:10237000A89589856EF54FE52CD50DC5E234C324AB
:10238000A01481046674476424540544DBA7FAB79B
:102390009987B8975FE77EF71DC73CD7D326F236FB
:1023A0009106B01657667676154634564CD96DC9E7
:1023B0000EF92FE9C899E9898AB9ABA9445865484B
:1023C00006782768C018E1088238A3287DCB5CDB3B
:1023D0003FEB1EFBF98BD89BBBAB9ABB754A545A9B
:1023E000376A167AF10AD01AB32A923A2EFD0FED07
:1023F0006CDD4DCDAABD8BADE89DC98D267C076CEB
:10240000645C454CA23C832CE01CC10C1FEF3EFFDA
:102410005DCF7CDF9BAFBABFD98FF89F176E367E3A
:10242000554E745E932EB23ED10EF01E0116000082
:1024300021160000411600006916000089160000F0
:1024400069160000B9160000080000001000000026
:10245000200000004000000080000000000100009B
:102460000002000000040000322E30005B41726464
:1024700075696E6F3A58595A505D007600200020F9
:102480004A616E20323020323032332030393A34D3
:10249000313A31300A0D00580A0D00590A0D005A20
:1024A00000230A0D003E000012010002020000405D
:1024B00041234D000002010200010403090441729E
:1024C0006475696E6F204C4C430041726475696E8F
:0C24D0006F205A65726F000000000000D1
:1024DC000001000000C201000000080009024300D6
:1024EC0002010080320904000001020200000524F0
:1024FC00001001042402000524060001052401003B
:10250C0001070583030800FF09040100020A00000B
:10251C000007058102400000070502024000000090
:0C252C00690000004100000000000000F9
:0400000300000515DF
:00000001FF
