:10000000682C00201D0C0000190C0000190C0000C9
:1000100000000000000000000000000000000000E0
:10002000000000000000000000000000190C0000AB
:100030000000000000000000190C0000190C000076
:10004000190C0000190C0000190C0000190C00001C
:10005000190C0000190C0000190C0000190C00000C
:10006000190C0000190C0000190C00000000000021
:1000700000000000190C0000190C0000190C000011
:10008000190C0000190C0000190C00000000000001
:1000900000000000190C0000190C0000190C0000F1
:1000A000190C000010B5064C2378002B07D1054B26
:1000B000002B02D0044800E000BF0123237010BDD4
:1000C000B809002000000000241B0000044B10B5FC
:1000D000002B03D00349044800E000BF10BDC04618
:1000E00000000000BC090020241B000070B5064C75
:1000F00080252D0465610520044EB0470020B047DF
:10010000A5610123184070BD00440041E5050000D1
:1001100010B5040000290BD10A4B98470028FBD1E9
:10012000094B802212045A612000084B984710BDE9
:1001300000210620FFF7ECFF034B802212049A6196
:10014000EAE7C046ED00000000440041E50500007C
:1001500070B5040000210320084B9847200CC0B262
:10016000074DA847200AC0B2A847E0B2A847002020
:10017000A847044B802212049A6170BD110100004F
:10018000E50500000044004170B504000121812014
:10019000114B9847114B1A88114B9A420DD0200AE7
:1001A000012318400F4DA847E0B2A8470020A847F8
:1001B0000D4B802212049A6170BD200A072318405B
:1001C000084DA847E0B2A8470020A847064B802268
:1001D00012049A61F0E7C04611010000300A0020C5
:1001E00002440000E505000000440041F8B50600A7
:1001F0000D001400FF2303420DD0012102200E4BFD
:100200009847300CC0B20D4FB847300AC0B2B8475B
:10021000F0B2B84708E00A4B9847EEE72878074B5A
:1002200098470135013CA4B2002CF7D1054B802240
:1002300012049A61F8BDC04611010000E5050000F6
:100240008901000000440041F0B5DE464F464646B5
:10025000C0B586B06F4D802636046E619F206E4C0F
:10026000A0470020A04781460020A04780B26B4FE6
:10027000000238800020A04783B2388803433B80C7
:10028000AE614A461F2A19D0C22A11D1142B26D09A
:1002900001210120624B984700205F4B98475D4B3E
:1002A000802212049A6100205E4B984746281BD09A
:1002B00006B01CBC90469946A346F0BD8422D201EC
:1002C000934207D0584A9342E2D1584B80221203FE
:1002D0001A60DDE7554B802292021A60D8E7534B33
:1002E000802252031A60D3E745384E4B98474C287A
:1002F00019D00024A04500D283E001215220484BB0
:100300009847200CC0B2444DA847200AC0B2A84765
:10031000E0B2A8473F4B802212049A6180231B025F
:100320009C466444E6E74A383E4B98475828E0D15B
:1003300052383C4B98473A28DBD12F38394B9847F5
:100340003A28D6D103AC2000394B984763886268BD
:10035000D31A22889B1A354A53600720314CA04794
:1003600007060820A047000407430920A047000211
:1003700007430A20A0470743B846BAD02B4B1B6857
:10038000BB42B6D3294B5B68BB42B2D303AB5B899C
:100390009B4601931800274B984700900026802425
:1003A000240235000DE0771CBFB2009B9C466644DA
:1003B000681CFF301B4B98473070BB4514D001358B
:1003C0003E004545EFD3002E07D020001A4B98473A
:1003D000320000992000194B98470098184B984715
:1003E000124B01221A7284E72000134B9847019E9A
:1003F000320000992000114B9847B446644400270E
:10040000DDE70A4B1B7A002B00D151E70D4B9847D3
:100410004EE7C04600440041E5050000300A0020D8
:10042000110100005101000002440000D409002025
:10043000E1060000FD0D000079070000ED07000057
:10044000110E00008108000010B5594B196A802276
:1004500091431962196A574A0A401A62196A0222BC
:100460000A431A62524BDB681B07FBD5524B002232
:100470009A60514B5B78DB09FBD14F4B4F4A5A6076
:100480004D4B5B78DB09FBD14D4AD36908210B4307
:10049000D3614C4B3C22995C2020014399540120AC
:1004A00059215854995C0224214399541C32985480
:1004B000414B454A5A80404B5B78DB09FBD1404AAF
:1004C000136A20210B431362404A116801230B4336
:1004D00013603E4B1B68DB07FBD43C4B1B8ADB0BDA
:1004E000F7D13A4B3A4A1A60384B1B8ADB0BFBD1E7
:1004F000364BC02292025A60344B1B8ADB0BFBD175
:10050000324A344B5381116802230B4313602F4B43
:100510001B8ADB0BFBD12B4B8021C9029960802207
:1005200012049A6099619A6139215A5C202422430D
:100530005A543839532299541B3A985C20439854A2
:1005400051201954985C022420439854183299542D
:10055000194B214A5A80184B5B78DB09FBD1184AAA
:10056000136A08210B4313621C4A116801230B43D1
:1005700013601A4B1B68DB07FBD4184B1B8ADB0B81
:10058000F7D1164B164A1A60802292025A60134B1A
:100590001B8ADB0BFBD1114A033393721168013BB9
:1005A0000B4313600D4B1B8ADB0BFBD110BDC04608
:1005B00000080040FFFCFFFF000C004000060300A5
:1005C00000040040004400411040000000140042BC
:1005D0000400314005C5FFFF0E400000000C004242
:1005E0000C003000074A138B5B0A5B021843108330
:1005F000044B9B7B5B07FBD5024B188BC005C00DE2
:10060000C0B27047000C0042034B9B7BDB07FBD55D
:1006100080B2014B1883704700140042094B9B7B4A
:100620005B070BD4084A136801331360074A9342EF
:10063000F4D9054B01221A71002002E0014B188BFE
:10064000C0B2704700140042E0090020001BB70050
:10065000194A116801230B431360174B1B68DB0712
:10066000FBD4154B1B8ADB0BF7D1144B0E225A809F
:10067000124B5B78DB09FBD1114A136A08218B43CB
:100680001362104A116801230B4313600D4B1B6862
:10069000DB07FBD40B4B1B8ADB0BF7D1074B10227C
:1006A0005A80064B5B78DB09FBD1054A136A20218F
:1006B0008B4313627047C046000C0042000C0040A0
:1006C0000004004000140042014B18797047C046F6
:1006D000E0090020014B00221A607047E009002069
:1006E00070B504001B4B1B680725280018401B0928
:1006F0001D40062829D80121814080200002164B88
:10070000984780B2154B5880062D20D80121A9406A
:100710008020C001104B984780B2104B18801048C1
:1007200081684903490F08228A4092B21A81816880
:1007300089B25143596092005A810A4A01211170CD
:10074000220023CB23C2200070BD0020DAE7002066
:10075000E3E7C04600408000910C0000340A00200E
:1007600000400041E5090020024A137D02210B43AD
:10077000137570470040004110B584B00400154B5C
:100780001B78002B1ED0144B5B68A34218D3134B6D
:100790001B7DDB07FBD5114B1A7D01210A431A751E
:1007A0006408DC610E4A1A800C4B1B7DDB07FBD50D
:1007B0000A4B1A7D01210A431A751B7D9B0705D43C
:1007C00004B010BD6846074B9847DCE7064B9847D6
:1007D000F6E7C046E5090020340A00200040004149
:1007E00002A5FFFFE10600006907000070B584B0B4
:1007F00004000D0016001C4B1B78002B07D0F21CC8
:1008000092081A494868802303434B601AE06846FF
:10081000174B9847F3E708CD08C4013A0131154B4F
:100820001B899B088B4201D9002AF4D10F4B124936
:1008300019800E4B1B7DDB07FBD50C490B7D01207E
:1008400003430B75002A0DD0084B0C491980074B48
:100850001B7DDB07FBD505490B7D012003430B7591
:100860000021DCE704B070BDE50900200040004134
:10087000E1060000340A002004A5FFFF44A5FFFFA5
:1008800010B5064B984780231B021A6882F308882C
:10089000034A9360034B1B68984710BD5106000044
:1008A00000ED00E00480000010B5084A3823D45C55
:1008B000E4B2074B9847074B9847202C01D0064BD2
:1008C0009847064B9847002010BDC04600040040E2
:1008D0004904000049020000CD0B0000810800001F
:1008E00070B5054D2878054CA0476878A047A878D2
:1008F000A047E878A04770BD00000020090600006E
:1009000002003038C0B209280ED91300413BDBB2D7
:10091000052B07D91300613BDBB2052B05D8573AED
:10092000D0B201E0373AD0B270471000FCE70000C7
:1009300070B506000078044DA8470001C4B2707875
:10094000A8472043C0B270BD0109000070B5040083
:100950000B4B5868FF2303420ED0094D2200094972
:100960006868094B98476B681B196B60074B1A68DE
:10097000944664441C6070BD054B9847EDE7C04643
:1009800000000020400B0020ED010000E8090020DD
:100990008901000010B584B001AC462323700633F2
:1009A00063700C33A3700F3BE37004332371063B79
:1009B00063713A22A2710A4B1B68190EE171190C7E
:1009C0002172190A6172A372E2720020054B9847E6
:1009D0000C2221000020044B984704B010BDC046F3
:1009E000E809002089010000ED01000010B5094967
:1009F0008A88531C9BB28B800749885480225200FE
:100A0000934200D010BD1800044B9847014B0022C0
:100A10009A80F7E7E8090020400B00204D0900000C
:100A2000F8B52E4B9C79A21C2D4B995C621C9B5CEB
:100A30004F2B02D0432B4BD0F8BD3A2925D03F296C
:100A4000FAD1E31C264AD35C492B20D0452BF3D1A5
:100A5000224CA088234B98470023A3800133A37224
:100A6000EAE71E4B9879033000191D4BC0181E4B46
:100A700098471E4B98470234E4B2184BDB79033B8E
:100A80009C42EEDB1A4B9847D6E70024F5E7134E5D
:100A9000F779F81E174B98470500211D104C0919CE
:100AA0003A1F154B9847F379043BEB1800221A7054
:100AB0002800124B9847020083B2FF2010401B0A07
:100AC0001843308128000E4B9847094B9847B3E7ED
:100AD0003729B1D1064B9847AEE7C046E809002058
:100AE000400A00204D09000031090000ED09000016
:100AF000E1080000FD0D000079130000A90D0000C1
:100B0000110E000070B50023134AD27A9A420AD916
:100B1000124AD25C212A06D00F498A7901328A71A1
:100B20000133DBB2F0E70C4CA679701C0C4B9847F4
:100B30000500320009490B4B9847A379EB180022B6
:100B40001A702800084B9847E0712800074B984717
:100B50000123237370BDC046E8090020400A00202D
:100B6000FD0D000079130000A90D0000110E00001A
:100B700010B51249CA7A531CDBB2CB7210498854A3
:100B8000012B03D90D4B1B7B002B0BD00B4B1B7B7D
:100B9000002B06D0094AD37A91795B1AD279934215
:100BA00003DA10BD074B9847F0E7074B9847034B14
:100BB0000022DA729A711A73F3E7C046E80900203E
:100BC000400A0020050B0000210A000010B50B4B65
:100BD00098470B4B984704000A4B984700280BD1C5
:100BE0002000094B9847094B9B7A002BEFD0084B0C
:100BF0009847084B9847EAE710BDC046D506000065
:100C00001D060000C9060000710B0000E809002065
:100C10009509000049020000FEE7000010B5124AE5
:100C2000124B9A4209D0114B0F4A03E01168196028
:100C3000043304320E498B42F8D30E4B02E00022FB
:100C40001A6004330C4A9342F9D30C4BFF229343AE
:100C50000B4A93600B4A516880230B4353600A4B45
:100C600098470A4B9847FEE7241B0000000000202D
:100C7000B8090020B8090020680C0020000000001E
:100C800000ED00E000400041B50D0000A9080000A3
:100C9000002243088B4274D303098B425FD3030ABB
:100CA0008B4244D3030B8B4228D3030C8B420DD3CE
:100CB000FF22090212BA030C8B4202D3121209025C
:100CC00065D0030B8B4219D300E0090AC30B8B429A
:100CD00001D3CB03C01A5241830B8B4201D38B0348
:100CE000C01A5241430B8B4201D34B03C01A5241ED
:100CF000030B8B4201D30B03C01A5241C30A8B4230
:100D000001D3CB02C01A5241830A8B4201D38B021A
:100D1000C01A5241430A8B4201D34B02C01A5241BE
:100D2000030A8B4201D30B02C01A5241CDD2C30930
:100D30008B4201D3CB01C01A524183098B4201D3AC
:100D40008B01C01A524143098B4201D34B01C01A97
:100D5000524103098B4201D30B01C01A5241C3080F
:100D60008B4201D3CB00C01A524183088B4201D37E
:100D70008B00C01A524143088B4201D34B00C01A6A
:100D80005241411A00D20146524110467047FFE7D6
:100D900001B5002000F006F802BDC0460029F7D0DA
:100DA00076E770477047C04610B50A22002100F070
:100DB000E7FB10BD70B50D4E0D4DAD1BAD1006D04F
:100DC0000024A300F35801349847A542F9D100F05C
:100DD00097FE084E084DAD1BAD1006D00024A300B1
:100DE000F35801349847A542F9D170BD0C1B00009F
:100DF0000C1B00000C1B0000141B000010B5034B63
:100E00000100186800F00EF810BDC0460800002070
:100E100010B5034B0100186800F046FC10BDC04639
:100E200008000020F0B557464546DE464E46E0B580
:100E30000D000B3583B00700162D28D8102900D9D6
:100E4000C1E000F0DDFA102518230220CC4EF31883
:100E50001A005C68083A944200D15BE1032362689F
:100E60009A431300E268A168CA6091600122E31806
:100E7000596838000A435A6000F0CAFA2000083066
:100E800003B03CBC90469946A246AB46F0BD072352
:100E90009D4300D597E0A94200D994E000F0B0FA54
:100EA000F823FF339D4200D859E1680A00D18EE053
:100EB000042800D934E138239846A8098044393001
:100EC000C100AF4E71180839CC68A14218D0032375
:100ED00062689A431300521B0F2A00DD18E1002AB2
:100EE000C0DA03239C4608E06246636893435A1BBA
:100EF0000F2A00DD0CE1002AB4DAE468A142F3D144
:100F0000320034690832944267D003236168994300
:100F10008A460B00491B0F2900DD0DE17261326129
:100F20000029A3DA974A924500D94AE1DB08FF3A43
:100F30009910FF3A8A40DB0071689B190A4399684F
:100F40007260E360A1609C60CC60012183109940D5
:100F5000914248D80A4205D10323984349000430FE
:100F60000A42FBD003239846C3009946B144CC46BD
:100F700082466346DC68A44507D1F4E0002A00DB22
:100F800010E1E468A44500D1EDE042466368934374
:100F90005A1B0F2AF2DD0120804661190543656066
:100FA000A068E5680836C560A8604046F160B16099
:100FB00010434860CE608E603800E25000F028FA9E
:100FC000200008305CE70C2300203B6058E78021BC
:100FD0003F2389004020984673E7012172688310FF
:100FE00099409142B6D90323B46862689A43904607
:100FF000AA4202D3531B0F2B7CDC634A634B9346FC
:101000001B681268EB18013200D13BE1604A94463C
:1010100063441B0B1B0301930199380000F000FA95
:1010200003008146013300D1F9E04346E3188342CF
:1010300000D9F2E0574A0199924612689446524606
:1010400061441160834200D13EE15A461268013288
:1010500000D155E14A46D31A59185346196007235F
:101060004A46134000D123E1082189464A49D21A51
:101070009144CB1A019A38004A441105090D5B1AB4
:1010800019009B4600F0CCF9431C00D134E14B46DB
:10109000C01A01235844184353461B685B44190087
:1010A000534619604B46B3605860B44212D0434671
:1010B0000F2B00D81CE1072260680C3B9343063AD3
:1010C000024005201A436260E218506090600F2BC6
:1010D00000D933E1314B1A68914200D919600323DA
:1010E000B46862689A432E4B1868814200D89AE02F
:1010F000196098E0012229001343114365196160CA
:101100003800B5606B6000F083F920000830B7E666
:101110004046F5E6DC680230A34200D1F0E69DE6E9
:10112000142874D9542800D9AFE06E239846280BB0
:1011300080446F30C100C4E6012360191D4365601F
:1011400070613061C26082601A0053460A43426097
:101150003800E15000F05CF92000083090E62B00E8
:10116000E808083372E608239B46073BDC449B46AD
:10117000DA4443465246134200D0FAE66DE0C046D8
:1011800038040020FF01000040080020280A002049
:101190000F100000F809002008100000200A0020AD
:1011A000240A00200122E318596838000A435A60D3
:1011B000E368A268D3609A6000F02AF92000083042
:1011C0005EE65A0A042A39D9142A74D85B23984651
:1011D00090445C32D20008235B429C46B21894448F
:1011E00063469968032399468C4559D04B464A6813
:1011F0009A43524502D989688C45F7D1CB68726809
:101200009C466346A160E3609C60CC609DE65B23E6
:10121000984680445C30C10053E6B44274D0032346
:10122000B46862689A43531B954202D80F2B00DDC5
:1012300060E7380000F0ECF8002021E69A09382336
:10124000984690443932D200C5E74B461A68083BAD
:10125000013891469A4200D087E043460342F4D1D8
:1012600073688B4373604900994200D9BBE600293B
:1012700004D1B8E6042294464900E2440B42F9D076
:10128000504671E610330193C6E6AA235B009842EC
:1012900024D8DD3B9846E80B80447830C10010E646
:1012A000434601229B109A4073681A437260A8E774
:1012B00080235B01DEE6542A2FD81A0B6E23984652
:1012C00090446F32D20086E71A0500D0BDE60120B7
:1012D000019BB268434403435360FBE6244B9842AE
:1012E00026D87C239846A80C80447D30C100E8E5D0
:1012F00001234A4653609CE7002301209B46CBE62E
:101300005B464A461A60AAE61A4A01999246126852
:10131000944652466144116097E6AA2149008A42E8
:1013200014D8DA0B7723984690447832D20052E7EB
:10133000FE217E2389007F209846C2E521003800E7
:10134000083100F0B1F953461968C3E608498A42EA
:1013500006D89A0C7C23984690447D32D2003AE716
:10136000FE227E239200984635E773687BE7C046ED
:1013700054050000F8090020F0B50F2A37D90D00F8
:1013800005430C000300AD0735D11500103D2D09B4
:101390002E013618103627681F6067685F60A768DF
:1013A0009F60E7681034DF601033B342F3D10F243D
:1013B00001352D01491914404519032C1DD900236D
:1013C000CE58EE500433E61A032EF9D80323043C1A
:1013D000A4080134A4001A402D190919002A05D0C7
:1013E0000023CC5CEC5401339342FAD1F0BD0500EC
:1013F000002AF5D1FAE70500F2E72200F8E7C04637
:1014000010B5024800F03EFA10BDC046500C002056
:1014100010B5024800F038FA10BDC046500C00204C
:10142000002370B5064C05000800236000F0CCFADC
:10143000431C00D070BD2368002BFBD02B60F9E764
:10144000640C0020F0B54E464546DE465746E0B5F2
:101450001D00082383B083468A4690460E009946B5
:1014600000E03E000C98347800F008FA4A46001973
:101470004378771C1A42F4D12D2C5CD02B2C33D01E
:1014800000239946002D03D0102D59D0009504E07B
:10149000302C60D00A230A250093384B00994B4426
:1014A00018000193FFF77AFC230006000C000022CD
:1014B000002019000B00303B092B07D9113B192BD9
:1014C00003D90B00613B192B11D80A339D420EDD65
:1014D000511C06D0864221D31ED0009A50430122CF
:1014E000181839780137E5E7B71C7478C8E7531C3A
:1014F00017D04B46002B00D040424346002B04D06F
:10150000002A33D1434652461A6003B03CBC904691
:101510009946A246AB46F0BD9C42DEDA0122524219
:10152000DFE722235A4613604346002B20D07B1E60
:101530009A460198E6E70123B71C74789946A1E71B
:1015400010230093302CA8D120223B789343582BB2
:1015500006D00095A1E720223B789343582B09D170
:1015600010237C7800930237102596E70190DEE780
:101570000198CAE70823082500938EE7FFFFFF7F45
:101580001300084A30B50500106883B0446B002C86
:1015900000D1054C0A0000942900FFF753FF03B067
:1015A00030BDC046080000204C080020034B10B599
:1015B000002B02D0024800F005F810BD000000002A
:1015C000D515000010B5010000230022002000F016
:1015D00081F910BD70B5094B094CE41AA41009D06B
:1015E000084AA518AD00ED182B68013C9847043D4A
:1015F000002CF9D100F08EFA70BDC046201B00000F
:10160000241B0000FFFFFF3FF8B50C000600FFF7AA
:10161000F7FE204FBB685D6803239D431E4B2C1BC8
:101620009C466444240B1D4B013C24039C4207DD73
:1016300000213000FFF7F4FEBB685B19984204D02C
:101640003000FFF7E5FE0020F8BD61423000FFF7F3
:10165000E7FE431C0DD00122BB682D1B15435D60C6
:101660000F4B30001A68141B1C60FFF7D1FE0120DD
:10167000EAE700213000FFF7D3FEBA68831A0F2B88
:10168000DEDD08490968401A0549086001210B435D
:101690005360D5E738040020EF0F0000FF0F000073
:1016A000F809002040080020F8B5CE46474605005E
:1016B00080B50C1E55D0FFF7A3FE210008394F68F6
:1016C000012438000323A0430A1856689E43B146FC
:1016D000644EB368934229D04B465360D3189C465E
:1016E0003C4242D10F68C91B8B68C01998466346BB
:1016F0005F6808239C46B4442740E0456AD04346CF
:10170000CC68DC60A360002F32D10124484404433C
:10171000A0469368544C0F18A34200D17FE0D268D2
:10172000DA60936043464B60386025E003004B4429
:101730003C4206D10A68891A88689B18CA68C26048
:10174000906001221A434A60484AB16012689A4286
:1017500004D8474B28001968FFF756FF2800FFF709
:1017600057FE0CBC90469946F8BD5F682740CCD028
:10177000012303434B6008503E4B98421AD9430A59
:10178000042B33D88209140039323834D200B2180D
:10179000083A936803279A4239D05C68BC43844274
:1017A00033D99B689A42F8D1D368CB608A6099603C
:1017B000D160D3E7C008FF3B8210FF3B93407268C3
:1017C000C000134373608619B368CE608B60B1604C
:1017D000D960C3E7002F41D1030090684B44D26821
:1017E0001C43C26090604C60CB50B7E7142B07D904
:1017F000542B1CD8020B14006F326E34D200C6E793
:101800001C005C335B34DA00C1E71A00CCE701232B
:10181000A410A3407068034373601300C5E7D96048
:101820009960CB608B6043464B60386096E7AA2294
:101830005200934205D8C20B140078327734D2009C
:10184000A5E70D4A934205D8820C14007D327C3402
:10185000D2009CE7FE227E24920098E704434C606D
:1018600010607BE73804002040040020440800207A
:10187000280A0020FF01000054050000EC23C05896
:101880007047C0467047C0467047C04682B00029C6
:101890000AD0002A0BD0002B0BD013780B601078E5
:1018A000431E984102B0704701A9002AF3D10020DD
:1018B000F8E702204042F5E7002904D0FF2A04D8C7
:1018C00001200A7070470020FCE78A230360012092
:1018D0004042F7E7F0B54E464546DE465746E0B58E
:1018E000364D83B00600286898460F009146FFF7F2
:1018F000C9FF334B1C68A4235B00E058002852D07A
:1019000043681F2B13DC5A1C0192002E28D1019A28
:1019100002339B0042601F502868FFF7B5FF00208C
:1019200003B03CBC90469946A246AB46F0BD254B61
:10193000002B3DD0C8204000FFF760FA002837D0C8
:10194000A42200235200A15843600160A0504032FD
:10195000835004328350013301930023002ED6D0EC
:101960009A00924682444A46882154466250C422D4
:101970005200914681444A468739994012688B4605
:101980000A4394464A466146116084224146520009
:10199000A150022EBBD102005C468D32FF3211688D
:1019A0000C431460B3E720004D30FF30E050A7E750
:1019B0002868FFF769FF01204042B1E7480800208E
:1019C000E4190000FD0D0000044A1368002B00D14B
:1019D000034B1818106018007047C0462C0A0020EE
:1019E000682C00201000002043000000504F534995
:1019F00058000000000000002E0000000020202001
:101A000020202020202028282828282020202020AE
:101A1000202020202020202020202020208810107E
:101A200010101010101010101010101010040404DA
:101A30000404040404040410101010101010414198
:101A40004141414101010101010101010101010186
:101A5000010101010101010110101010101042429A
:101A60004242424202020202020202020202020256
:101A700002020202020202021010101020000000F6
:101A80000000000000000000000000000000000056
:101A90000000000000000000000000000000000046
:101AA0000000000000000000000000000000000036
:101AB0000000000000000000000000000000000026
:101AC0000000000000000000000000000000000016
:101AD0000000000000000000000000000000000006
:101AE00000000000000000000000000000000000F6
:101AF00000000000000000000000000000000000E6
:101B0000F8B5C046F8BC08BC9E467047AD1500004D
:101B1000CD000000F8B5C046F8BC08BC9E46704732
:041B2000A50000001C
:101B24007E4F3F5000010000100000200000000024
:101B340000000000FC02002064030020CC0300200D
:101B44000000000000000000000000000000000091
:101B54000000000000000000000000000000000081
:101B64000000000000000000000000000000000071
:101B74000000000000000000000000000000000061
:101B84000000000000000000000000000000000051
:101B94000000000000000000000000000000000041
:101BA4000000000000000000000000000000000031
:101BB4000000000000000000000000000000000021
:101BC4000000000000000000000000000000000011
:101BD4000000000000000000010000000000000000
:101BE4000E33CDAB34126DE6ECDE05000B000000C5
:101BF40000000000000000000000000000000000E1
:101C040000000000000000000000000000000000D0
:101C140000000000000000000000000000000000C0
:101C240000000000000000000000000000000000B0
:101F640038040020380400204004002040040020ED
:101F7400480400204804002050040020500400209D
:101F8400580400205804002060040020600400204D
:101F940068040020680400207004002070040020FD
:101FA40078040020780400208004002080040020AD
:101FB400880400208804002090040020900400205D
:101FC4009804002098040020A0040020A00400200D
:101FD400A8040020A8040020B0040020B0040020BD
:101FE400B8040020B8040020C0040020C00400206D
:101FF400C8040020C8040020D0040020D00400201D
:10200400D8040020D8040020E0040020E0040020CC
:10201400E8040020E8040020F0040020F00400207C
:10202400F8040020F804002000050020000500202A
:1020340008050020080500201005002010050020D8
:102044001805002018050020200500202005002088
:102054002805002028050020300500203005002038
:1020640038050020380500204005002040050020E8
:102074004805002048050020500500205005002098
:102084005805002058050020600500206005002048
:1020940068050020680500207005002070050020F8
:1020A40078050020780500208005002080050020A8
:1020B4008805002088050020900500209005002058
:1020C4009805002098050020A0050020A005002008
:1020D400A8050020A8050020B0050020B0050020B8
:1020E400B8050020B8050020C0050020C005002068
:1020F400C8050020C8050020D0050020D005002018
:10210400D8050020D8050020E0050020E0050020C7
:10211400E8050020E8050020F0050020F005002077
:10212400F8050020F8050020000600200006002025
:1021340008060020080600201006002010060020D3
:102144001806002018060020200600202006002083
:102154002806002028060020300600203006002033
:1021640038060020380600204006002040060020E3
:102174004806002048060020500600205006002093
:102184005806002058060020600600206006002043
:1021940068060020680600207006002070060020F3
:1021A40078060020780600208006002080060020A3
:1021B4008806002088060020900600209006002053
:1021C4009806002098060020A0060020A006002003
:1021D400A8060020A8060020B0060020B0060020B3
:1021E400B8060020B8060020C0060020C006002063
:1021F400C8060020C8060020D0060020D006002013
:10220400D8060020D8060020E0060020E0060020C2
:10221400E8060020E8060020F0060020F006002072
:10222400F8060020F8060020000700200007002020
:1022340008070020080700201007002010070020CE
:10224400180700201807002020070020200700207E
:10225400280700202807002030070020300700202E
:1022640038070020380700204007002040070020DE
:10227400480700204807002050070020500700208E
:10228400580700205807002060070020600700203E
:1022940068070020680700207007002070070020EE
:1022A400780700207807002080070020800700209E
:1022B400880700208807002090070020900700204E
:1022C4009807002098070020A0070020A0070020FE
:1022D400A8070020A8070020B0070020B0070020AE
:1022E400B8070020B8070020C0070020C00700205E
:1022F400C8070020C8070020D0070020D00700200E
:10230400D8070020D8070020E0070020E0070020BD
:10231400E8070020E8070020F0070020F00700206D
:10232400F8070020F807002000080020000800201B
:1023340008080020080800201008002010080020C9
:102344001808002018080020200800202008002079
:102354002808002028080020300800203008002029
:10236400FFFFFFFF00000200400C002043000000BC
:102374000000000000000000000000000000000059
:102384000000000000000000000000004300000006
:102394000000000000000000000000000000000039
:1023A40000000000000000000000000043000000E6
:1023B4000000000000000000000000000000000019
:1023C40000000000000000000000000043000000C6
:1023D40000000000000000000000000000000000F9
:1023E40000000000000000000000000043000000A6
:1023F40000000000000000000000000000000000D9
:102404000000000000000000000000004300000085
:1024140000000000000000000000000000000000B8
:102424000000000000000000000000004300000065
:102434000000000000000000000000000000000098
:10244400000000000000000000000000B9180000B7
:102454008D18000000000000FC190000F8190000AD
:10246400F4190000F4190000F4190000F419000034
:10247400F4190000F4190000F4190000F419000024
:10248400F4190000FFFFFFFFFFFFFFFFFFFFFFFF47
:10249400FFFF0000010041534349490000000000D0
:1024A4000000000000000000000000000000000028
:1024B40000000000000041534349490000000000AF
:1024C4000000000000000000000000000000000008
:0824D400000000000000000000
:00000001FF
