:10800000082800202D81000029810000298100001E
:108010000000000000000000000000000000000060
:1080200000000000000000000000000029810000A6
:1080300000000000000000002981000029810000EC
:108040002981000029810000298100002981000088
:10805000298100004D8D000029810000259D000030
:108060002981000029810000298100002981000068
:108070002981000029810000298100002981000058
:108080002981000029810000298100002981000048
:10809000298100000000000000000000298100008C
:1080A0002981000029810000298100002981000028
:1080B0000000000010B5064C2378002B07D1054BBB
:1080C000002B02D0044800E000BF0123237010BD44
:1080D000680000200000000008DC0000084B10B51C
:1080E000002B03D00749084800E000BF0748036899
:1080F000002B00D110BD064B002BFBD09847F9E7B1
:10810000000000006C00002008DC000008DC00001B
:108110000000000010B5024B9847024B984710BD75
:108120000D85000035B80000FEE700002148224917
:1081300070B5884204D00023204CCA18A24232D322
:1081400000211F4B1F4A934231D3FF211E4B1F4A70
:108150008B43936002220C25082430261C4B1D48BB
:108160005A62C378FC398B431343C370C378AB4363
:108170002343C370184B987BB04306002020304344
:108180009873987BA84304439C73987B884302436D
:108190009A738023114A51680B435360104B9847E0
:1081A000104B9847FEE7C55804331560C5E702C376
:1081B000C9E7C04608DC000000000020680000207D
:1081C00068000020080800200080000000ED00E0AA
:1081D000FC70004100500041004800410040004157
:1081E00031D90000219F000070B51F244209C0B2A0
:1081F0000440FF234D1C09D11A40D201144BA21890
:10820000D218137802318B43137070BD01251340CF
:10821000104ADB019B181E1940363278AA432A43C4
:1082200032706208284209D00F209A183032137831
:10823000090103401943C9B21170E6E70F209B18EA
:1082400030331A780140824311431970DDE7C0468C
:10825000404400410044004110B5012A19D0002AD1
:1082600007D0022A25D0452215490020154B9847F2
:108270001EE0C023C001DB05C318596080238AB209
:10828000DB051343104A090C80188362C0231B06C8
:108290000CE0C023C001DB05C31859600B4B8AB248
:1082A0001343094A090C80188362094B1943816200
:1082B00010BDC023C001DB05C3189960DEE7C046CE
:1082C0009AD90000FD8B00000044004100000240EC
:1082D000000002C00422C001034B0918C9180B7822
:1082E00093430B707047C046404400410423024A48
:1082F000D1690B43D36170470004004010B5034BB4
:10830000984703490348044B984710BDED8200008D
:1083100000400041D4030020C9850000802170B5D1
:108320000122104D49010020A8470F4B0C210020CD
:1083300098470E4C0E490C20A04780210D4EC900D5
:10834000316002220120A8470B492A20A047802142
:108350000901316002220120A84708492B20A047CB
:1083600070BDC04659820000D5820000E98100003E
:1083700003000C009400006003002A0003002B009F
:108380004023044A116A0B431362034A034B5A8089
:108390007047C0460004004018400000000C004038
:1083A00010B5044B98470449044B05489847054BC2
:1083B000984710BD81830000001800420D86000020
:1083C000F00300201D830000012270B510000F4D46
:1083D0000821A8470E4B0321012098470D4C0E4958
:1083E0002320A04780210D4EC903316002220120C5
:1083F000A8470B493620A04780210904316002229A
:108400000120A84707493720A04770BD59820000C6
:10841000D5820000E9810000030023009400006081
:1084200003003600030037008023044A116A0B431F
:108430001362034A034B5A807047C0460004004051
:1084400019400000000C004010B5044B9847044947
:10845000044B05489847054B984710BD29840000F8
:10846000001C00420D860000BC030020C9830000F0
:10847000F8B58024C026640402220E4FF6052100C0
:108480000020B84774610C4D18210020A8470B4C00
:108490000B491820A0478021022289040020B847F8
:1084A00080239B04736119210020A84705491920E6
:1084B000A047F8BD59820000D5820000E981000084
:1084C00006001800060019002022064BD9690A434D
:1084D000DA61402259690A435A61034A034B5A80C0
:1084E0007047C0460004004006400000000C0040F9
:1084F00010B5034B9847034B9847034B984710BD63
:10850000C9840000F188000071840000F8B5124BA6
:10851000C02798471021FF05104CB961104E022268
:108520000020B047220001258021443213788901C0
:10853000AB43002013704D34B9610222B047237859
:10854000AB432370074B9847074B9847074B984717
:10855000074B9847F8BDC046798C000000440041A5
:1085600059820000FD820000A183000049840000C0
:10857000F1840000EFF31083036072B6BFF35F8FE6
:108580007047BFF35F8F036883F310887047000064
:10859000044B10B51C68044B9847044B01002000A5
:1085A000984710BD84000020558C0000718C00009D
:1085B000436910B5002B00D0984710BD836910B5F2
:1085C000002B00D0984710BD70B504000D000028A6
:1085D00003D00800431E9841C0B20749074B382218
:1085E000984729002000064B9847002803D1054BE7
:1085F0002360054B636070BDB6D90000FD8B0000A1
:10860000ED8C0000B1850000BD85000070B5040050
:108610000D00002803D00800431E9841C0B209494C
:10862000094B402298476560201D2900074B984759
:10863000002806DB0020064BA382064B2361064B75
:10864000E36070BDCDD90000FD8B0000A58D00005A
:108650000080FFFFD9860000A186000030B504002D
:1086600087B00D00002803D00800431E9841C0B217
:10867000B3220849084B98472B68201D03936B6869
:1086800003A90493AB6801930593044B984707B083
:1086900030BDC046CDD90000FD8B00006D8F0000BD
:1086A0007FB50400431E98410E001500C0B2A322FE
:1086B0000649074B984700232000029301A9054B68
:1086C0000C3801960395984704B070BDCDD90000D1
:1086D000FD8B00005D8600007FB50400431E9841BD
:1086E0000E001500C0B287220649074B98470023A9
:1086F0002000019301A9054B0C3802960395984779
:1087000004B070BDCDD90000FD8B00005D86000077
:108710000F22002370B50A4C02405E01A5196D7846
:1087200059B2854209D0365D002E01D1AA4204D04B
:108730000133042BF1D101214942080070BDC0462C
:10874000880000200020704770B5084B04000D0021
:108750009847074B40011B189A780020032A03D141
:108760009B6929002000984770BDC0461187000012
:1087700088000020F0B5394B87B000900F000192BF
:108780009847374D4401002F42D12E19F770295DCB
:10879000002934D12200B7780C327078F369032FA6
:1087A00028D10C27AA180131F75798477378002869
:1087B0000DD00522B270033AF2701800002F01DBD1
:1087C000802018430121274B984707B0F0BD0422B1
:1087D000B27003AA03905060002F08DB802003438F
:1087E00013720123100053721F4B9847EDE70F20BF
:1087F0000340F5E7AA1898470223B370E5E7012381
:10880000B3702C19E178E369019A00989847DCE786
:108810002B19012F0CD10222DA70295D002904D115
:108820009A7000980F4B9847EBE705229A70E8E79B
:10883000022F08D10422DA702A5D002A01D19F702C
:10884000C3E70122F2E7032F04D100229A70053218
:10885000DA70D6E706229A70FAE7C0461187000060
:1088600088000020959A0000BD9B0000F0B51C4BCD
:1088700085B0040098471B4F430103930C33FB184A
:10888000019319002000184B98478026C0B2174D5D
:108890007642082808D001212000A847012134434E
:1088A000E0B2A84705B0F0BD002126432000A8474C
:1088B000F3B2002118000293A847039B0199FE1808
:1088C00001272000B770736998470028EAD1052373
:1088D0003900B3702000A84739000298E1E7C0468C
:1088E0001187000088000020659B0000959A000019
:1088F00010B5114B984700281DDB104C802220003A
:108900000F4B00219847FF200E4A631C8134190049
:108910001870133120330A604A608A60A342F6D18E
:10892000094C0A490020A04709490120A04702201C
:108930000849A047002010BDE996000088000020EB
:108940008BD9000045870000F99C00006D8800006D
:10895000498700007587000010B5014B984710BD8E
:10896000D59C000010B5014B984710BDAD97000095
:1089700010B5014B984710BDF597000010B5014B9D
:10898000984710BD05980000F8B5104C06000D0082
:108990001700A047002813DAFF20A047041E12DBAF
:1089A0003A00290030000A4B9847002807DB094BA2
:1089B00064011A195670032200201540E554F8BDD1
:1089C00014204042FBE71520FBE7C046118700005A
:1089D0001598000088000020002110B582B2024BDB
:1089E0000800984710BDC0468989000070B5074B44
:1089F00005009847041E07DB054B28009847054BE8
:108A000064011C19FF23637070BDC046118700000C
:108A1000DD9800008800002070B50C4B05009847D9
:108A200000280FDB0A4C4001035D24185A425341D1
:108A30000133A3702800074B9847002801DA002370
:108A4000A37070BD12204042FBE7C04611870000B2
:108A50008800002059990000F0B5037A8BB005001A
:108A600001931800354B98476B7A061E03936C6888
:108A700062DB334B06A8984773010093009A314B91
:108A80009E18B37804AAD71D3B703B78DBB20293E3
:108A9000029A2D4B012A1DD10232B27006A89847C6
:108AA000284B009AD35C002B25D0019BDA09039B4D
:108AB000591E8B41DBB2297A2D6807A807954460BF
:108AC000002A36D080220A434372204B0272984714
:108AD0000BB0F0BD06A898473B780220DBB2052B0F
:108AE000F6D0062B04D00120002BF1D1132000E09A
:108AF00010204042ECE7F27CB37C12029B189BB240
:108B0000002B05D104221C00029BB2701A00D2E790
:108B10009C4200D91C000B49009A8C466244127B8F
:108B20007F2A04D99C429B4101225B42C3E7002378
:108B3000ECE70F220A40C7E71220DAE711870000AE
:108B4000758500008800002083850000BD9B000023
:108B5000F8B504000D1E1BD1124B9847061E1EDBF4
:108B600002212000104FB847002810D02900200013
:108B7000B84700280BDB0D4B76019E19032101231A
:108B8000F170B3702A00F369200098472800F8BDFF
:108B9000054B012900D0022120009847F7E7122059
:108BA0004042F4E711870000959A000088000020F9
:108BB00070B50F4B15000C009847002D00D10D4DDE
:108BC000002805DB012C09D0002C02D0022C0AD091
:108BD00070BD094B400118184561F9E7064B40018B
:108BE00018188561F4E7044B40011818C561EFE7D8
:108BF000118700004587000088000020002800D170
:108C000000BE70470068002800D170478842F9D143
:108C10000120FAE770B50C4B05000C000668984778
:108C2000030001205840C0B2084B4F220849984722
:108C30002B68002B03D12C60236070BD1E003368AD
:108C4000002BFBD13460F7E7058C0000FD8B0000A2
:108C5000E9D900000300F0204000584310B5034B51
:108C60000230032198476423584310BD69B80000BF
:108C70000139FDD87047000010B50224074A536837
:108C800023435360064B9847064B98472000064CF9
:108C9000A047064B9847FD20A04710BD004000416B
:108CA0007D8D000049900000B18C000061900000B3
:108CB000C3070BD4830708D50222094BFF329A6001
:108CC000084A5A605A78D209FCD170478022044B76
:108CD00052009A60044A5A605A78D209FCD1E9E7F6
:108CE000000C0040010301000007010070B5040002
:108CF0000D00002804D00F4BC81843425841C0B2A1
:108D000046220D490D4B98479E2225616B680C4900
:108D100013406B600B4B0C4A1C602023CB67BFF3E6
:108D20004F8FBFF36F8FC021490053500020136055
:108D300070BDC04600C0FFBE07DA0000FD8B00001A
:108D400004E100E00801002000E100E001210A4BFD
:108D500010B5186803691A7D0A4204D00368002B15
:108D600000D0984710BD1A7D52080A42FAD002225C
:108D70001A754368F3E7C04608010020064B1A7ACB
:108D8000D2B21A725A7AD2B25A729A7AD2B29A720B
:108D9000DA7AD2B2DA72704700040040C36919422D
:108DA000FCD17047654BF7B5CA18920AD2B20700DA
:108DB0000D00634B042A00D184E0052A00D0B1E005
:108DC000043A1124002062435E4C1834A4188742F0
:108DD00003D02800421E9041C0B25B4A5B499847CD
:108DE000002C00D1A6E0EB69594EDB071AD41C23F6
:108DF000227803211A4028000192B04702222B68F2
:108E0000134208D02B680321934328002B60B047FE
:108E100002212800B0470123019A032113432B604C
:108E20002800B04701212800B0471C2223783D606C
:108E30001340082B48D1474A44490120404B9847EA
:108E40006278237812021A43A37803211B041A4381
:108E5000E37828001B0613433F4A13402B60B047BA
:108E60006279237912021A43A37907211B041A435A
:108E7000E37928001B061343384A1340384A13434A
:108E80006B60B047627A237A12021A43A37A1B04FA
:108E90001A43E37A1B0613436B622B00627B303369
:108EA0001A70EB69002BFCD10722237900201340B4
:108EB0005A1E934101333B71E37BA27B1B02134398
:108EC000FB80FEBD00227CE7264A204901201C4B86
:108ED00098476278237812021A43A37828001B046B
:108EE0001A43E37803211B0613431B4A13402B60EC
:108EF000B0476279237912021A43A37928001B0430
:108F00001A43E37907211B061343174A13408022B3
:108F1000920213436B60B047237B2B73637B303526
:108F20002B70C1E70024A04200D052E7064A07494F
:108F3000380098470D204042C3E7C04600F8FFBD07
:108F4000FD8B000024DA0000250900005EDA000035
:108F50009D8D000003090000FCFEFFFFBFDDFDFF4B
:108F600040020200EF080000BF1DFDFFF0B50568DC
:108F700085B001900291037928000393431E984124
:108F80000F684E68C0B22C4A2C492D4B98470720D9
:108F9000EC69044031D12B4B0321280098472B6802
:108FA0009B072DD5012321009C4604232A7ED2B2A3
:108FB0001A4227D0AB6A002E04D0039833700128E0
:108FC00012D80136013152B2002A2DDA01231320C2
:108FD0005B426B8381332B76404203232A7E1A4205
:108FE000FCD02B7605B0F0BD1B0A73700236E9E7A2
:108FF0007B7802371B02034313E004204042F1E771
:109000001420FBE7A142DED363461A42DBD0019B6A
:10901000DB88002F05D0039B3878012BE8D80300AC
:1090200001370134AB62CEE7029B9B689C42BCD304
:109030009942BAD32000D0E7850A00005EDA00002A
:10904000FD8B00009D8D00000222044B99690A43AC
:109050001F219A611A7F0A401A7770470008004062
:10906000822302221949DB014B80194B9A840E326C
:10907000D8681042FCD0174ADA62174A1268920E7A
:109080003F2A0ED080209202800002439A6206227C
:109090009A849A8C520707D41022D8681042FCD0C8
:1090A00007E0FC22D201F1E7D020DA680240D02AA2
:1090B000FBD18022988C02439A844A78D209FCD151
:1090C00002219A698A439A617047C046000C0040A9
:1090D00000080040B90501042460800000207047AA
:1090E000074B9A8C920605D4D021DA680A40D02A20
:1090F000FBD170471022D9681142FCD0F9E7C04675
:1091000000080040002803D0002901D00230C0B27E
:109110001423013043430148C01870470C0100205C
:109120000F2370B50100807C072503401A00CC7C1A
:10913000083225405B01012D08D014495201521814
:109140001021D171124A9B18597270BD40252C42D2
:1091500006D08026AC43CC740D4C1C196671A571E9
:109160000825CC7C5201AC43CC7400240949483119
:10917000C9188C728C76054952186F21D171044A36
:109180009B185972044B9B689847DEE700500041DA
:10919000FF5000418C0100200C01002020220F23F1
:1091A0008A4010B50400807C054903405B015B18D0
:1091B000D2B25A72034BA2681B690121984710BDB5
:1091C000FF5000410C01002010B50300807CFF28F7
:1091D00009D04024DA7C224205D0A243DA74024A44
:1091E00014699A68A04710BD0C010020F7B525242A
:1091F00001AD837C2C70241994466C70FF2B1AD01F
:109200004027C47C3C4216D00F2423401C00083465
:109210006601002910D00A4FF61980273771084AD5
:109220006401A418074A695C5B019B18E1715972DB
:109230006146054B9847F7BD014AB6187771EEE7CE
:1092400000500041FF500041C9910000F7B50F22C6
:10925000847C01AF14400B3A3A7004327A702200D9
:1092600008320B002D4D61015601002B24D0AD5D5D
:109270006D066D0F2A4E4836B4461E017618B4446A
:109280006646B67AF6B2022D1AD1013D2E4217D0AB
:109290006446A47A5201AC436546AC721F4DFC5C37
:1092A0005219D4711F4A89184C72591E8B410422DD
:1092B000D9B21D4B9847F7BDAE5D07253540D9E7BC
:1092C00002252E4019D06646B67AC47CAE43654668
:1092D000AE72124EFD5C52019219D571114A891875
:1092E00007224D722240012AE5D16206E3D5C17CF6
:1092F000C9098B42DFD00022DBE76000084AC018B2
:109300004832000112189672084A6401A418054AEE
:10931000FB5C8918E3714B72CDE7C04600500041F9
:109320008C010020FF500041ED91000000510041F0
:1093300070B50A4DFF262C00C835143403212000D7
:10934000074B98470021A674E1741434AC42F5D160
:1093500004486022044B4830984770BD0C0100203F
:10936000C99100008C0100208BD90000F0B50F25B9
:1093700085B00091837C04001D4001936B01029332
:109380000023994206D04D4B6A0148339B185B6914
:109390009B049B0C268A4A4A0396964202D0721E70
:1093A00092B20392E27C9446072261461140009AF1
:1093B0000291002A04D043496A0152180221D17156
:1093C000A26867689918A1606A01B94240D26046F4
:1093D0007F1ABBB2394F80062ED5321C9E4200D96F
:1093E0001A1C236896B259183200374BE068984728
:1093F000324BE26869015B189A656B01FF18FB6DDF
:10940000B604B20C9E0BB6031643FE65FB6D2F4AE5
:109410001340FB65009B002B08D1029B4E22012BC1
:1094200000D0043A2A496B015B189A72254B6D01F2
:10943000ED1880236B713AE080201E1C800183426E
:1094400000D9061C2368BA185918B6B29165D4E73A
:109450001027604638420ED0E37C6A01BB43E374B8
:10946000164B1A499B18DA6D920B9203DA65DA6D86
:109470000A40DA65CEE7029801281AD14B25144834
:1094800012185572039A13409E420CD14025E37C7A
:109490000198AB43E3740F4BDB689847002806D173
:1094A000E37C2B43E374002120000B4B984705B06D
:1094B000F0BD07484A251218E3E7C0468C0100209A
:1094C000FF0300000051004179D90000FF3F00F088
:1094D000FF5000410C010020C99100000F23F0B59E
:1094E000827C87B01A40530104000D1E019205933F
:1094F00068D0059A674B9B18D86C0001820C0392C8
:10950000DF6CBF04BF0C238A0293029A624B9A421B
:1095100003D01300013B9BB202930723E27C029E1F
:1095200013403E400493002D05D0019B5B495B0135
:109530005B180121D97193060DD56268002A0AD003
:10954000A0682368121A92B21818E168964200D2F5
:109550003200534B9847019A63685101002B34D174
:109560001020E27C024200D18BE0824320331A4378
:10957000E274484B059AE1689B189964218A1A00A5
:109580004848DB6C8904090903400B43D364D36C5E
:109590009B0B9B03D364002D0DD1019B04995A01B1
:1095A0002523012904D13B4B48339B189D762D235D
:1095B0003D4952189372019B384A5B019B18402227
:1095C0001A711FE003910F009DE7002D1CD0228A25
:1095D000B24219D91022E37C9343E374A368DF19E4
:1095E000A760049B012B48D12F4BC9182D234B7228
:1095F000019B002B02D1274BE2689A6400212000D6
:109600002A4B984707B0F0BDA668039AB446624457
:109610001000A2609342E4D920269B1AE27C9BB200
:10962000278A324212D0381C9F4200D9181C019A56
:1096300083B25001174AE46810188464154A194827
:109640005218D16C9B041B0901409EE7BB420DD907
:109650008026B601B3420ED8029A93432468019A39
:10966000201854010B4A1419A064E7E7BB42F5D255
:109670001643E674F2E73300F0E70B4BC9182523D5
:10968000B5E7002DA3D1A268039B94466344A36071
:10969000A7E7C0468C010020FF03000000510041F5
:1096A00079D90000FF3F00F0FF500041C991000050
:1096B000802302009B0007209A4214D8013BFF3B05
:1096C00001389A420FD80138802A0CD80138402A34
:1096D00009D80138202A06D80138102A03D80630C4
:1096E000904280414042704710B52A4CA378DB0776
:1096F0000DD40323A2781A42FCD10222237813420C
:109700003CD1012323700233A2781A42FCD10123F9
:10971000A2781A42FCD1204B204A1A605A609A6003
:10972000DA601A611E4B98471F201E4B1A68530BB4
:10973000910C920103400140520F834200D1052356
:109740001F2900D10239072A00D1023A9B010B439D
:109750001203134323850323E2781A43E2700C2299
:10976000E1780A43E27004222270A0781840FCD10C
:109770000D4B483363620123238110BD237893434B
:1097800023700323A2781A42FCD10223A2781A4242
:10979000FCD1B6E7005000410C010020DD90000034
:1097A00031930000246080008C01002003220E4BC6
:1097B0009978114215D199781142FCD10222197879
:1097C000C9B2114206D080210020084A1160084A1F
:1097D0001A8370470A431A70032299781142FCD108
:1097E000F1E711204042F4E70050004100E100E0C1
:1097F0008D0200000121024A13898B4313817047B7
:109800000050004180231843014B98727047C046B6
:1098100000500041F7B500266B460F2400900192DE
:109820009E5704400F002B4BF10F20009847032355
:1098300005001F40022C44D8837CFF2B44D1002F0D
:109840000FD1F143234BC90F20009847837CFF2B96
:109850003AD1F33B6343204A9B58002B36D1132067
:1098600030E0002E16DA0C2262431B4B9B185A681C
:10987000002A1BD10C236343174CE4186368EB6088
:109880006B469B8800202B826B461B780137EF7458
:10989000AB74FEBD0C2363430F4A9B58002B0BD0C7
:1098A0000C2262430C4B9B181B8900E05B89019AD8
:1098B0009342D4DB002EDDDB0C235C43064BE358E4
:1098C000DDE712204042E4E71420FBE7002EE7DA50
:1098D000C9E7C046059100007CDA0000F7B50F2506
:1098E00043B2DF0F05400193040039002800164BF6
:1098F00098470600022D14D8837CFF2B11D0032239
:10990000124B390098470722F37C1340012B09D1F1
:10991000002208340E4B6401E2540023F374FF3339
:10992000B374F7BD63B2002B07DA7022094B6D01E7
:10993000ED186B7893436B70EFE7064B6401E41806
:10994000637893436370E8E705910000ED910000B0
:1099500000500041FF500041F7B50F2544B20540CB
:10996000E10F464B28009847454B6901CE187278A5
:109970000700D2B2022D00D97BE0837C0193FF2B3C
:1099800000D176E03F4DC37C48356D1807201900A3
:10999000014001293BD17724144000D06CE0112311
:1099A00073703B8A00931800374B9847E0230007F9
:1099B000DB051840009B354A9B03134003436B6053
:1099C000009B40219B049B0C8022184368610F2060
:1099D000B1717271019AAC7202402A485201AC76A0
:1099E00085182800FE68AE64ED6C9E03284B2B4062
:1099F0003343C364C36C9B0B9B03C364204BD318DA
:109A0000B0225A71A03A99719A722000FEBD002CC2
:109A100017DA7020140004402ED11B0103401343B9
:109A200073703F8A184B38009847E0230007DB0526
:109A300018408023BF04BF0C384368617371AC7653
:109A4000E3E71040041E17D15B075B0F13437370ED
:109A50003F8A0D4B380098470C4ABB031340E02265
:109A60000007D2051040184340236860B371AC7200
:109A7000CBE712204042C9E71420FBE70591000024
:109A8000FF5000418C010020B196000000C0FF0F84
:109A9000FF3F00F0F8B507000F25C4092F400E0066
:109AA000380021002B4B9847022F4FD8012E15D19B
:109AB0001022A240837C28491D406B01D2B25B1862
:109AC0005A712023A340254A6D01DBB2AD18AB7259
:109AD0000823C27C1343C3740020F8BD837C002E8E
:109AE00029D12B401E4A5B0199181C4A9B18102251
:109AF000A240DD792A42EFD0D2B25A712022A24090
:109B0000D5B25D721E7A324204D00122A240D2B296
:109B10001D725A710723C27C1340012B08D1FF31FB
:109B2000CB7930210B40D7D128398A43C274D3E78F
:109B300008239A43FAE71D40074B6D01ED181023E7
:109B4000A340A8791840431E9841C6E7122040421E
:109B5000C3E7C0460591000000510041FF5000419D
:109B600000500041F8B50F231840114B4401483311
:109B70001B190F0019685D68AD04AD0C022812D8DE
:109B8000002F10D00B4BE4186378112B0ED1102648
:109B9000237A0020334205D008223800064B98472C
:109BA00028002672F8BD12204042FBE71320FBE795
:109BB0008C010020FF50004179D90000F0B50F253D
:109BC000037A87B01D405BB20193DB0F039319004A
:109BD0000700384B28009847374A038A04001E00C4
:109BE000934201D05E1EB6B27A6816400296022DEC
:109BF0005DD83D6831498D420BD9314851198142B8
:109C000007D803210D4004D1019900290EDB9A42A7
:109C100006D2E3680125002B08D11320404215E04D
:109C2000029B002B14D0E368002B40D0E37C022081
:109C30001B070BD4234B05A89847E17C40230E005B
:109C4000214A1E4006D005A89047012007B0F0BD6C
:109C5000029DEBE70B43E37405A890477F213B6827
:109C600023607B68A6606360039BDA01E37C0B40A2
:109C7000134369011D0020239D430D43E5747B7A46
:109C8000002B03D0029E73425E41F6B21022E37CA9
:109C9000360193431E43019BE67400212000002BF4
:109CA00003DA0A4B98470020D0E7094BFAE7122065
:109CB000B4E7C04605910000FF030000FFFFFF1F4F
:109CC000FF7F002075850000838500006D930000F4
:109CD000DD940000002900D10549012802D1054B7F
:109CE000596070470028FCD1024B1960F9E7C04663
:109CF000DD9000000C010020002900D10749002858
:109D000002D1074B99607047012802D1044BD960FA
:109D1000F9E70228F7D1024B1961F4E7DD90000062
:109D20000C010020F7B5654B654D1A8C92B201927B
:109D3000002A57D19A8B1F8B042017403A0002400B
:109D400003D098832B689847F7BD8021890039405C
:109D500020D05C49998399829239FF3919835A4BF3
:109D60001800483001890907090F032906D0008D22
:109D700011000007000F032808D1012248335201C7
:109D80009A180023118913814904490D03206B6837
:109D90009847D9E780223E00164003D09A836B682B
:109DA0000520F5E770223C00144009D09A839A827E
:109DB000444A1A83454B98476B6831000220E7E715
:109DC0000826390031400BD041494C709E839A825D
:109DD0003C4A1A833F4B98476B6821000120D7E724
:109DE000FC0726D42C00002701261434A27CFF2A6D
:109DF0003ED00F231A40330093400199194237D0C7
:109E0000354953015B183249520152181B78927A36
:109E100013402DD0142247217A43AA181032D27D44
:109E20001140012915D1DA0609D520002B4B98479E
:109E30001EE0244C9C839C821A836B68A8E7402117
:109E4000194001D0310001E09B0611D52000244BC0
:109E50000DE051B200291ADA5906F3D4190701D5D9
:109E600031001BE0990708D5310020001D4B9847B1
:109E700001371434092FB9D166E707210A40012AB6
:109E8000F6D100215A0709D4DB06F1D5CDE7202110
:109E9000194001D00021D9E7580702D52000124B04
:109EA000E5E7334203D031002000104BDFE7072104
:109EB0000A40012ADCD11A07E6D5D1E7005000415B
:109EC0000C010020010200008C010020E190000044
:109ED000FF500041319300000751004121910000E3
:109EE0009D9100006D9300004D920000DD940000F4
:109EF000F8B50748074DFA27A8470024BF003800E7
:109F0000054B9847661C21000448A8473400F6E733
:109F1000A0DA00008DAE000091850000D8DA0000C4
:109F200010B5054B9847054B98470028FBD0044BCC
:109F300004489847044B9847158100008DB10000F4
:109F40009185000010270000F19E00007047F7B5D2
:109F500001930B9B06000091150014009B0705D18F
:109F6000099B0A9A5B1B1B199A420AD8099F099BF5
:109F7000E218D21B002F0CD10B9B9B0716D41000AC
:109F8000FEBD2200671C019B00992020B0473C00C9
:109F9000E6E7089B013FD85D0099019BB047E6E7E3
:109FA000541C019B00992020B04722000A99531BA2
:109FB0009942F5D8E3E70000F0B587B00EAC2478FD
:109FC0000490A446129C05910C980D99119FA50729
:109FD00017D4002F08D0E50706D56546002D02D11D
:109FE0000C26344200D0013F3026109D8D4222D8ED
:109FF000012630252640002E03D08F4201D91F298B
:10A000001ED9E5063CD565051ED400291CD0109D3F
:10A01000A94201D0B94217D14E1E002E13D00F9D78
:10A020000239102D13D031000F9D022D23D11F298D
:10A0300012D860351DE01F29DAD846540131D4E723
:10A0400045540131D7E731000F9D102DECD1A50605
:10A050000CD478251F290CD9039401910090029704
:10A06000059904980F4CA04707B0F0BD58251F294B
:10A07000F2D8455401311F29EED83025455401311D
:10A080001F29E9D86546002D03D02D2545540131FF
:10A09000E2E7650701D52B25F8E72507DCD5202564
:10A0A000F4E7C0464F9F0000F0B597B00B931CAB90
:10A0B00010CB08901B7809910A920C93219F002CD9
:10A0C00001D110239F437B0502D50025AC4221D04E
:10A0D0006123BA0600D541230026DBB20A3B0D936B
:10A0E000164B1E99200098470D9BC9B2CB18751CC2
:10A0F000DBB2092901D83031CBB2202106AA52188F
:10A10000935520001E990E4B9847041E02D02E0036
:10A11000202DE5D1209B069705931F9B0195049365
:10A120001E9B0A9A03930C9B099902930EAB009312
:10A1300008980B9B034CA04717B0F0BD75B9000001
:10A1400069B80000B99F0000F0B599B00D9320AB3D
:10A150001B781E9C0E93229B1F9D0893239B0A90A5
:10A16000099323000B910C922B4303D1269A1033B1
:10A170009A432692269B5B0504D5230000262B4399
:10A18000B34228D0269A6123920600D541230027A6
:10A19000DBB20A3B0F931A4E089A099B2000290054
:10A1A000B0470F9BD2B2D3187E1CDBB2092A01D86C
:10A1B0003032D3B2202108AA5218D35520002900EA
:10A1C0000F4C089A099BA0470D000400014302D0E0
:10A1D0003700202EDFD1269B01960693259B0C9AF3
:10A1E0000593249B0B990493089B0A9803930E9B59
:10A1F000044C029310AB00930D9BA04719B0F0BD27
:10A20000D1BB0000B99F000010B5002801D0014B60
:10A21000984710BDD5AE0000F0B599B009900A91ED
:10A220000B920C93B94C1E9A1F9B10001900A0476B
:10A23000002808D1229B0393219B029303230193BF
:10A24000B34B009324E001221E981F99B14C524257
:10A25000B14BA047002807D0229B0393219B029378
:10A2600004230193AD4BECE701221E981F99AC4DDE
:10A270005242AC4BA847002814D00423229A1A4219
:10A280000DD0A94A2299019303912199009202913C
:10A290000C9B0B9A0A990998A44CA04720E0A44A69
:10A2A0000323EFE700221E981F99A24BA84700281E
:10A2B00006D11E981F9900229F4BA047002811D05D
:10A2C000229B0B9A0493219B0A990393209B099844
:10A2D00002931E9B1F9C009301940C9B974CA047DC
:10A2E00019B0F0BD00221E981F990023A047002836
:10A2F00000D181E01E9A1F9B00200021904CA047B6
:10A3000001231E901F910D93229B5B0576D50023A0
:10A310003022089310AB08990791209909290AD98E
:10A3200008995A54209901392091089901310891CE
:10A330002029F0D107911E981F99824B9847209BA6
:10A340000690DA00804B9B185C681B680E930F9494
:10A350007E4B98477A4D02000B001E981F99A84724
:10A360000E9A0F9B7A4CA0477A4B0F000600984735
:10A37000794B0400984702000B0030003900A847D1
:10A380000022764B664D06000F00A847002838D003
:10A390000134714B20009847714D02000B000E985C
:10A3A0000F99A847002803D00024069B0133069389
:10A3B000209B002B53D1654B06989847604C0200B8
:10A3C0000B001E981F99A0470022644B514E0400B9
:10A3D0000D00B047002807D0200000225F4B290065
:10A3E0004F4CA047002804D00123069A1340D318ED
:10A3F00006930A245B4F6DE00D9085E706232093BA
:10A4000085E70022554B30003900424DA84700280F
:10A41000CED1002C01D0E307CAD50134C8E7209B78
:10A420002000013B209310AB6E1C39005D194E4B90
:10A43000984730312970200039004C4B9847041E52
:10A4400030D135003021209B10AA9B19202D0AD035
:10A450006E1C9D4228D12E2307965355C9E70A2723
:10A46000089D202DDBD10323229A1340012B39D1E3
:10A47000219B002B36D00D9B002B02D10C331A42AE
:10A4800002D0219B013B2193302210AB2199A9429C
:10A4900028D91F2D23D9229B01950393219B029339
:10A4A00010ABCEE63500DCE751553500CEE710AAFB
:10A4B0009446079B06985D1C63441E0021002C4BAC
:10A4C00098473031317006982100B847069000282F
:10A4D000C9D00795079B1F2BE9D91D00C3E7EA5494
:10A4E0000135D3E71F2DD6D80D9A10AB002A03D023
:10A4F0002D225A550135CEE7229A520701D52B223B
:10A50000F7E7229A1207C6D52022F2E775BB0000B2
:10A5100041DB000081BB0000FFFFEFFF45DB0000D7
:10A52000A9BB0000FFFFEF7F38DB00004F9F00005A
:10A530003DDB000065CDCD4165CDCDC175A50000E9
:10A5400055D1000081D70000E8DA0000E9D700000B
:10A5500055CC000011BC00006DD800000000E03FA9
:10A5600095BB00007DB9000075B9000069B8000016
:10A5700049BB0000F0B597B00E931C9B0C900A935A
:10A580001D9B0D910B930F920B9B0A9A0A980B99A6
:10A59000CA4CA047002811D00122C94B52420A9848
:10A5A0000B99C84CA047002808D10122C64C524242
:10A5B000C64B0A980B99A047002811D0209B0A9AF5
:10A5C00004931F9B0D9903931E9B0C9802930B9B66
:10A5D000BF4C009201930E9B0F9AA04717B0F0BD9D
:10A5E000002200230A980B99A047002800D157E1C8
:10A5F0008022120694460A9B09930B9B634407939F
:10A600008023209ADB001A401292131E01D10633D8
:10A610001E93079BAF4F5800AF4B400DC018B84773
:10A62000AE4DAF4AAF4BA847AF4DB04AB04BA8476D
:10A63000079BB04A1B03099C1B0B1A4305000E0025
:10A6400020001100AC4C0022AC4BA047A34CAC4AFC
:10A65000AC4BA047A44C02000B0028003100A047DF
:10A66000A94B98470890B8479C4EA84AA84B0400AD
:10A670000D00B04700229C4EA64BB047A24B984716
:10A68000A54AA64B139029002000944CA047040033
:10A6900013980D00B847914EA14AA24BB047020053
:10A6A0000B0020002900944CA0478C4C02000B00AA
:10A6B00006000F00A0473200109011913B003000BF
:10A6C0003900894CA04700221490159110981199D7
:10A6D000954B964CA0470022954B834CA047934C3A
:10A6E00002000B0010981199A0470022914B7E4C5C
:10A6F000A0478E4C02000B0010981199A0470D0046
:10A700008021040032003B007B4E0020C905B04789
:10A7100002000B0020002900734CA047834C02006C
:10A720000B0014981599A0470022724B6E4CA0475D
:10A73000814A139B9446634400221B05674CA04743
:10A74000614C06000F0002000B0009980799A04712
:10A7500000280AD0089B3000013B089339000022F2
:10A76000734B724CA04706000F00C624089B63334E
:10A770009C42A441209B644204341B0520D56F4AAF
:10A780006F4B099807996F4DA847002800D18BE0BF
:10A7900000226D4B099807994B4DA847002800D11E
:10A7A00082E0089A1E9900238A4201DA8B1A013B43
:10A7B0001E9380230024209ADB001A4320920894E1
:10A7C0001F9B0025A34200D91D1B0223209A1A407B
:10A7D000109203D0634263415B421D40089B002BF3
:10A7E00007D03200099807993B00504EB0470990B6
:10A7F0000791002200230A980B99334EB047002896
:10A8000005D0802000068446079961440791209A6C
:10A810004E4B0395134004931E9B099A0293079B8A
:10A820000D99009201930C980E9B0F9A284DA84702
:10A83000002C00D1D2E6209B45269B0600D4203672
:10A840000200451C0E9B30000D990C9EB04705235D
:10A850000593002303930A330293089B013CDB0F0B
:10A860000193089B0494DA179B18534000932A0025
:10A870000E9B0D990C98364CA047109B002B00D1D5
:10A88000ACE60F9B1F9AC31A9A4200D8A6E6441C56
:10A8900002000E9B20200D990C9DA8472000F0E798
:10A8A0000A9A0B9B0992AAE61E9B002B88D0129B4A
:10A8B0005A1E93411E9AD31A1E9381E775BB00005E
:10A8C000FFFFEF7FA9BB000081BB0000FFFFEFFF90
:10A8D00019A20000E9D7000001FCFFFF55CC0000E1
:10A8E000FB799F501344D33FCDBD0000B3C8608BAC
:10A8F000288AC63F0000F03F55D100000000F83F15
:10A9000061436F63A787D23F81D7000071A37909A4
:10A910004F930A400000E03F1655B5BBB16B0240B3
:10A92000EF39FAFE422EE63F00002C40EDC3000056
:10A930000000244000001840FF0300002D431CEBE2
:10A94000E2361A3FBDBB000080842E41FFF7FFFFB7
:10A95000A9A00000F0B599B00C900D910B921E00CB
:10A960001E9D002901D1AB4B0C93002730780028A5
:10A970000CD10B9B3A009F4200D35A1E0B9B0D99A2
:10A9800000200C9CA047380019B0F0BD252808D045
:10A990007C1C3A000B9B0C9F0D99B8470136270091
:10A9A000E4E7002401210820B21C561E33782B2B2B
:10A9B00016D00BD8202B15D0232B15D01A00303AE7
:10A9C000092A62D800230A21109315E02D2B04D008
:10A9D000302BF3D10C430132E7E702231C43FAE7A3
:10A9E0000423FBE70443F6E71023F7E7109B013647
:10A9F0004B43303BD318109332781300303B092B74
:10AA0000F4D9002233780A922E2B0FD1727880234A
:10AA10001100DB0030391C43731C09294DD81E007E
:10AA20000A2132781300303B092B3FD933786C2B45
:10AA300058D050D8682B5DD06A2B64D03078652808
:10AA400000D15CE100D9AFE0472800D157E15DD8E3
:10AA5000452800D153E19BD9462801D120231C432E
:10AA60000722EB1D9343109A1D0003920A9A049447
:10AA700002923A005C681B680D99009301940C984F
:10AA80000B9B654C0835A0478CE0002210922A2BC6
:10AA9000B7D12A682B1D1092002A04DA022214432F
:10AAA000109A5242109201361D00AAE70A9B013605
:10AAB0004B43303BD3180A93B3E72A2A09D12B68BA
:10AAC00002360A93DB430A9ADB171A400A920435CE
:10AAD000ACE71E00AAE7742B01D07A2BAED18023FD
:10AAE0005B000BE073786C2BF9D1C0239B001C43F7
:10AAF0000236A3E77378682B03D080231C4301360A
:10AB00009CE7C023F3E780239B00F7E7622800D18E
:10AB1000B6E106D8582800D03AE7202310221C437B
:10AB200075E0632800D10CE1642800D030E71023E1
:10AB30000A229C43692801D0642868D1630501D5A5
:10AB400001239C4380239B00692802D0642800D005
:10AB5000A0E01C4266D00721EB1D8B4319681D0045
:10AB60005B68049200220592DA0F0292DA170F92C4
:10AB70000E924A40109814920F9A07905A400A98E1
:10AB800015920690149A159B0E980F99121A8B41E4
:10AB900000920193083508940B9B3A000D990C988C
:10ABA0001E4CA047070056E06F2800D166E108D888
:10ABB000672800D1A3E000D24EE7692800D0E7E67D
:10ABC000B5E7732800D1F7E01BD8702800D0DFE686
:10ABD0002B1D109321231C43193B04930A9B0594BE
:10ABE000039310230293002301932B683A000093F0
:10ABF0000D990B9B0C980A4CA04701360700109D3D
:10AC0000B4E6752893D01022782800D0C0E60C2333
:10AC10009C4393E74D9F000019A2000049A100004A
:10AC2000A9A000002B1D1193E30516D52B681099E0
:10AC30000292DA0F049101920A99DA179B1805948F
:10AC40000391534000933A000B9B0D990C988D4C47
:10AC5000A0470700119D013688E6630615D52B68CD
:10AC6000DBB210990292DA0F049101920A99DA1775
:10AC70009B18119D05940391534000933A000B9B40
:10AC80000D990C987F4CA0478CE72B682106E8D5DE
:10AC90001BB2E6E7234012D00721EB1D8B43049241
:10ACA00000221D001099089407910A9905920691B7
:10ACB00002925C681B680835009301946CE7291DBB
:10ACC0001191E10508D51099059404910A99029211
:10ACD000039101932B68B5E763060BD52B68DBB2B4
:10ACE000029200221099119D04910A9905940391F2
:10ACF0000192C2E72B682106F2D59BB2F0E7202330
:10AD000002009A43472A04D180231B011C430223DB
:10AD10009843452801D120231C430722EB1D934370
:10AD20001D00109A049403920A9A083502925C68F6
:10AD30001B683A00009301940D990B9B0C98524CA0
:10AD4000A1E602232340119329D10A930A9BFC1800
:10AD5000023312930A9B01330A930A9A109B93427F
:10AD600016D828682B1D0A93C0B20B9B22000D99A0
:10AD70000C9DA847119B671C002B06D0129D013D1E
:10AD80002D1B109A7B199A420DD801360A9DEDE5CC
:10AD900022000B9B0D9920200C9CA047D6E7012395
:10ADA0003C001293DDE77C1C3A000B9B0C9F0D9935
:10ADB0002020B8472700E4E72B1D17932B68119339
:10ADC0000A9B002B01D101235B42119A1500D31875
:10ADD0002A78002A01D0AB4231D1119BED1A802391
:10ADE000DB002340139303D00A9B9D4200D91D0032
:10ADF0000223234016932CD12B005A1C1292109A36
:10AE00007C1BE4189A421CD82500119B1B1B585D23
:10AE1000002807D0139B002B1FD00A9B0A9A013BE6
:10AE2000002A19D1169B2F00002B05D0129B109AD7
:10AE30005B1BFB189A4218D80136179D96E5013521
:10AE4000C6E70B9B22000D9920200C9CA047129B6B
:10AE5000D3E712953C00D7E70A936F1C2A000B9B9F
:10AE60000C9D0D99A8473D00CFE77C1C3A000B9B39
:10AE70000C9F0D992020B8472700D7E70822C6E687
:10AE80000222C4E6A9A0000075A500000FB41FB5FA
:10AE900006AB10CB03930A4B98470122039B524207
:10AEA000009302A923000748074CA0470400074B62
:10AEB0009847200004B010BC08BC04B01847C04636
:10AEC000D1AE000009A2000055A90000D3AE0000D9
:10AED0007047704770B505000B4C0C4821680C4B4F
:10AEE00045540131194003D50A4B01391943013149
:10AEF00021600A2D06D1084B9847084B2800984737
:10AF00000023236070BDC046F40200200804002026
:10AF1000FF03008000FCFFFF65B100009185000089
:10AF2000F0B516000A7885B0530601900C009B0F0F
:10AF3000012B56D1637909792C4D1B020B432978DB
:10AF4000994202D0697899424BD152B2002A12DA62
:10AF50000020012E0DD06378212B18D1E279A3793E
:10AF600012021A43072A3FD10300A91D0198204C61
:10AF7000A04705B0F0BDE379A7791B021F431D4B25
:10AF8000984763780100202B03D0222B1AD00D2084
:10AF900028E0072F28D1002E02D133003A00E5E740
:10AFA0003A0002A8144CA0472B69002B05D1A81D1C
:10AFB000072202A9A0470020DBE702A89847002843
:10AFC000F5D1F8E700230A4E1A0019001800B0471F
:10AFD0006B69002BEFD0E078A2780002104398470D
:10AFE000E9E70A204042C4E70120FBE7F80200201D
:10AFF0001DB300003DB7000079D90000F7B515007A
:10B00000012950D0002904D01B2002290AD00D208C
:10B0100008E08368106800931E0002330193002843
:10B0200002D10A20404220E00821437982788B43F4
:10B03000022BF6D133789A425FD0FF2B5FD132706A
:10B0400069680522304B9847041E0FD128680422F6
:10B0500003786968C0182C4B9847019B0136B342AE
:10B06000DDD101222000294B5A71FEBD637922797E
:10B070001B02A778D21892B2E1783800244B984787
:10B0800000283ED17BB2234A002B09DAB770380082
:10B0900090472C602078696820181F4B9847D3E7A9
:10B0A000009B1F71F3E78468002A05D0136808220B
:10B0B0005B799343022BB4D12378FF2B07D0FF2574
:10B0C000A0782570A84202D0144B9847A5706378E9
:10B0D000FF2B07D0FF25E0786570A84202D00F4B08
:10B0E0009847E5702079FF2803D00C4B9847FF2341
:10B0F00023710020054B5871B7E7122092E71C20FE
:10B1000090E714208EE7C0465DB70000F8020020EB
:10B1100089890000198A000077B70000ED890000D6
:10B1200010B50A4B984701280CD80948094B006212
:10B13000C3611830084B984701200849084B9847CD
:10B14000002010BD11204042FBE7C04649B7000077
:10B15000F8020020FDAF0000E5B60000000000206E
:10B1600055B6000010B5074B0A00597904000029B4
:10B1700005D0D87821000123034CA04710BD112031
:10B180004042FBE7F80200201DB30000014B587954
:10B190007047C046F8020020064B10B51C69002C11
:10B1A00000D110BD20006368002201219847246867
:10B1B000F5E7C0461C03002070B505000E00064BE5
:10B1C000DC68002C00D170BD6368002B02D0310018
:10B1D000280098472468F4E71C030020F8B5050010
:10B1E0000E0017000B4B9C68002C01D12000F8BD0D
:10B1F0006368002B01D12468F6E73A00310028008B
:10B200009847002804D00A30F5D001204042EEE7EC
:10B210000120ECE71C030020054B10B55C68002CF6
:10B2200000D110BD6368002B00D098472468F6E772
:10B230001C03002010B51400002903D0012923D0DD
:10B24000002010BD1378002BFAD15378052B0FD0B6
:10B25000092BF5D1D1789378090219430D4BD97692
:10B260004A1E91410331997601200B4B9847E7E73D
:10B270000A4B90789847E178A378090219434B1E4E
:10B280009941044B0231EEE70A00054B21000020F2
:10B290009847D5E71C030020B9B100007D89000064
:10B2A000DDB1000070B5002402260C4B98470C4D10
:10B2B00020000C4BAE76EC766C7798470A4B287FD3
:10B2C00098470A4D21002000094AA8473100094A41
:10B2D0002000A8472000084B984770BD99B1000096
:10B2E0001C030020ED890000D9890000B18B00000B
:10B2F00039B3000035B20000198A000010B50028EB
:10B3000002D0012803D010BD024B9847FBE7024B47
:10B310009847F8E7B9B10000A5B200001FB501AC2D
:10B32000207263722000034B01910292984704B08F
:10B3300010BDC046598A0000F7B5B34B0022040087
:10B340000D0098470022431C00D15AE1013290427F
:10B3500000D156E129781F230A009A4304D0802A9D
:10B3600000D1B1E000224CE1687801380A28F9D810
:10B3700000F066FA42F854F80BF8F8F806F85E00A8
:10B38000AA78002A05D1A14B984700220123110079
:10B39000CBE09F4D2B6803CB9E4B9847021E00D1FC
:10B3A0002FE1C37881781B02C91889B241189A4BE2
:10B3B000042201919847FF230090009A002AE4D0CC
:10B3C00096789E4216D02F69002F0AD10098042249
:10B3D00003780199C018904B009098473300009073
:10B3E000EBE76A46002138007B6898470028EDD0DB
:10B3F0003F68E9E71E00E9E70229B3D1EE79AB79AE
:10B4000036021E43AED131002879844B9847012380
:10B41000320031002000824CA047F1E00229A1D186
:10B42000EB79AE791B021E439CD128790139ECE7F8
:10B43000EC78AB7824021C432B796D79744E2D0285
:10B440001D433368F27E03CB724B9847002889D0A6
:10B4500004220090C37881781B02C91889B2411870
:10B460006D4F0191B847002800D17BE78378AB424C
:10B4700010D1C378A3420DD137690090002F00D1BD
:10B4800070E701216A4638007B689847011E08D0A2
:10B490003F68F3E70098042203780199C0180090F0
:10B4A000E0E77B686A4638009847002800D059E7F3
:10B4B000002C04D00122AA40737F1343737700232A
:10B4C0001A0019001800A6E768780A2800D949E789
:10B4D00000F0C0F9680048FF48FF48FF48FF48FFF8
:10B4E0000B0048FF600048FF8500E978AA78090250
:10B4F00011430B0A022B1FD0032B3BD0012B00D092
:10B5000030E7EB79AA791B0213431D1C122B00D9DB
:10B5100012253F4B01221B68ADB203CB3E4B98472F
:10B520000023011E00D11DE72A0020003C4CA0474B
:10B5300042424241D2B264E0AB79ED7901312D0251
:10B540001D43334BCAB21E7F1B6803CB314B984758
:10B55000011E00D106E7C37882781B02D21892B28E
:10B5600000239542E0D9013E35406B426B41150006
:10B57000DBB2D9E7AB79ED79CAB22D021D43244B7A
:10B580001E7F1B6803CB274B9847011E00D1E9E6BD
:10B590000278E5E71E49CB7E4A69137049690023AA
:10B5A000012237E71F23194001290CD9022900D0B5
:10B5B000D8E62879194B98470022904221DB0123D5
:10B5C0001840009001E000230093114D02226946CB
:10B5D000154B686998470023022269691AE70C4EE7
:10B5E0006B792A79707F1B02134318410124204094
:10B5F0002ED173692200187071690300084DA847A5
:10B6000001221000FEBDC046DDB1000099B100006E
:10B610001C03002095B700005DB70000518B0000AF
:10B620001DB30000D1B7000079D900002A00022123
:10B63000200063689847002803DA2468002CF5D1BD
:10B6400090E6736901221870002371691800E2E620
:10B650003469F3E710B5012809D0002802D0022888
:10B6600008D010BD05480430054B9847F9E703485A
:10B670000830F9E701480C30F6E7C0461C0300200B
:10B68000158C000070B50400431E98410C4A0D4B08
:10B69000C0B20D4998470D4B984700280EDB0C4D62
:10B6A00020220C4B0021280098476C610A49002099
:10B6B0000A4CA04701200A49A047002070BDC0469F
:10B6C00055030000FD8B00004ADB0000F1880000FC
:10B6D0001C0300208BD9000019B20000598900001A
:10B6E000FDB2000010B501000248034B103098472E
:10B6F00010BDC0461C030020158C000010B50A4B7D
:10B700009C7E002C0BD100280CD002681860D279E6
:10B710001A7701229A76054B9847200010BD042025
:10B720004042FBE70920FBE71C030020658900007D
:10B7300010B5014B984710BD71890000014B586945
:10B740007047C0461C030020034B987E102318420C
:10B7500000D018007047C0461C03002010B5884276
:10B7600001D3002010BD0378012BFAD9447894420C
:10B77000F8D0C018F3E7884201D30020704703785F
:10B78000012BFAD94278042AF7D0052AF6D0C0183E
:10B79000F1E7000070B50D4B150002220C00984730
:10B7A00000280FD170BD0378012B0DD94378022BEF
:10B7B0000AD14379AB42F5D0C278837812029B1844
:10B7C0009BB2C018A042EED30020EBE75DB70000AB
:10B7D00070B50D0016000024A84201D3002070BDF2
:10B7E00003222900054B98470028F8D00378012B45
:10B7F000F4D9B442F3D0C0180134EDE75DB70000CE
:10B80000064810B5064B40309847064B9847064B04
:10B8100006489847064B984710BDC0463C03002099
:10B8200085B6000021B10000FDB600000800002030
:10B8300031B7000010B5014B984710BD01B80000AA
:10B8400002B4714649084900095649008E4402BCB9
:10B850007047C04603B47146490840004900095E7C
:10B8600049008E4403BC7047002243088B4274D3C6
:10B8700003098B425FD3030A8B4244D3030B8B42F1
:10B8800028D3030C8B420DD3FF22090212BA030CFA
:10B890008B4202D31212090265D0030B8B4219D3DB
:10B8A00000E0090AC30B8B4201D3CB03C01A5241FB
:10B8B000830B8B4201D38B03C01A5241430B8B4243
:10B8C00001D34B03C01A5241030B8B4201D30B032C
:10B8D000C01A5241C30A8B4201D3CB02C01A524153
:10B8E000830A8B4201D38B02C01A5241430A8B4216
:10B8F00001D34B02C01A5241030A8B4201D30B02FF
:10B90000C01A5241CDD2C3098B4201D3CB01C01A18
:10B91000524183098B4201D38B01C01A5241430922
:10B920008B4201D34B01C01A524103098B4201D310
:10B930000B01C01A5241C3088B4201D3CB00C01A7D
:10B94000524183088B4201D38B00C01A52414308F5
:10B950008B4201D34B00C01A5241411A00D201461A
:10B96000524110467047FFE701B5002000F0F0F8A3
:10B9700002BDC0460029F7D076E7704703460B4367
:10B980007FD4002243088B4274D303098B425FD3D8
:10B99000030A8B4244D3030B8B4228D3030C8B4204
:10B9A0000DD3FF22090212BA030C8B4202D31212EA
:10B9B000090265D0030B8B4219D300E0090AC30BBF
:10B9C0008B4201D3CB03C01A5241830B8B4201D36C
:10B9D0008B03C01A5241430B8B4201D34B03C01A55
:10B9E0005241030B8B4201D30B03C01A5241C30ACD
:10B9F0008B4201D3CB02C01A5241830A8B4201D33E
:10BA00008B02C01A5241430A8B4201D34B02C01A27
:10BA10005241030A8B4201D30B02C01A5241CDD2CC
:10BA2000C3098B4201D3CB01C01A524183098B4217
:10BA300001D38B01C01A524143098B4201D34B0100
:10BA4000C01A524103098B4201D30B01C01A524163
:10BA5000C3088B4201D3CB00C01A524183088B42EA
:10BA600001D38B00C01A524143088B4201D34B00D3
:10BA7000C01A5241411A00D2014652411046704745
:10BA80005DE0CA0F00D04942031000D3404253404A
:10BA900000229C4603098B422DD3030A8B4212D30A
:10BAA000FC22890112BA030A8B420CD3890192113C
:10BAB0008B4208D3890192118B4204D389013AD079
:10BAC000921100E08909C3098B4201D3CB01C01A4E
:10BAD000524183098B4201D38B01C01A5241430961
:10BAE0008B4201D34B01C01A524103098B4201D34F
:10BAF0000B01C01A5241C3088B4201D3CB00C01ABC
:10BB0000524183088B4201D38B00C01A5241D9D2D3
:10BB100043088B4201D34B00C01A5241411A00D254
:10BB20000146634652415B10104601D34042002B50
:10BB300000D54942704763465B1000D3404201B5CF
:10BB4000002000F005F802BD0029F8D016E7704784
:10BB50007047C0468446101C62468C46191C6346DA
:10BB600000E0C0461FB501F013F8002801D4002101
:10BB7000C8421FBD10B500F06DFF4042013010BD3E
:10BB800010B501F005F8002801DB002010BD0120F0
:10BB900010BDC04610B500F0FBFF002801DD0020FD
:10BBA00010BD012010BDC04610B500F08DFF00286B
:10BBB00001DC002010BD012010BDC04610B500F012
:10BBC00083FF002801DA002010BD012010BDC0460F
:10BBD000002B11D1002A0FD1002900D1002802D05A
:10BBE0000021C943081C07B4024802A14018029072
:10BBF00003BDC0465DFFFFFF03B4684601B5029870
:10BC000000F024F8019B9E4602B00CBC7047C04671
:10BC100070B500220C4B04000D00FFF7CFFF002889
:10BC200004D12000290001F0ABFD70BD064B0022BD
:10BC30002000290001F08EFA01F0A2FD80231B06EE
:10BC40009C466044F1E7C0460000E041F0B557462D
:10BC50004E464546DE46E0B5040083B00D009246F0
:10BC600099468B422FD82CD04946504601F054FEBD
:10BC700029000600200001F04FFE331A9846203BB1
:10BC80009B4600D574E053465A4693401F005346E6
:10BC9000424693401E00AF4229D826D05B46A41BE3
:10BCA000BD41002B00DA79E00022002300920193CD
:10BCB00001235A4693400193012342469340009347
:10BCC00019E08242D0D900220023009201930C9BFC
:10BCD000002B01D01C605D600098019903B03CBC52
:10BCE00090469946A246AB46F0BDA342D6D9002263
:10BCF0000023009201934346002BE8D0FB07720813
:10BD00001A4346467B080EE0AB4201D1A2420CD852
:10BD1000A41A9D41012024196D410021013E2418DF
:10BD20004D41002E06D0AB42EED9013E24196D41A3
:10BD3000002EF8D15B460098019900196941002B4B
:10BD400022DB2B005A46D3402A004446E2401C0026
:10BD50005B461500002B2CDB26009E40330026009E
:10BD60004746BE403200801A994100900191AEE7EB
:10BD7000424620239B1A5246DA40414613004A4667
:10BD80008A4017001F4382E7424620239B1A2A005D
:10BD900046469A402300F3401343D5E7424620230A
:10BDA00000219B1A0022009101920122DA400192A7
:10BDB00082E74246202326009B1ADE402F00B4462D
:10BDC000974066463B003343C9E7C046F8B5454651
:10BDD000DE4657464E460C03E0B54E00C90F884676
:10BDE0000D00610A440F0C43C70019035800DB0F14
:10BDF0009B464B0A510F0B43760D400D1900D200A4
:10BE0000D84500D1AEE0351A002D00DCF6E0002860
:10BE10000FD1134300D1DBE06B1E002B00D037E1C4
:10BE2000BA1A9742BF41641A7F42E41B01261700E9
:10BE300024E0C64B9E424DD080231B041943382D6D
:10BE400000DD07E11F2D00DD38E12020431B9A466D
:10BE50000B0050468340994613004846EB40184378
:10BE6000030050468240501E8241E9401A43BA1AEC
:10BE7000611A9742A441170064420C1B230262D549
:10BE80006402650A002D00D1DFE0280001F026FDE4
:10BE90000300083B1F2B00DDD2E020223C00D21A19
:10BEA0009D40D4409F4025439E4200DDC4E09E1B40
:10BEB000731C1F2B00DDF1E0202238002900D21A6C
:10BEC000D840914097402C000143781E8741DC40C8
:10BED00000260F437B0709D00F233B40042B05D0DE
:10BEE0003B1DBB42BF417F42E4191F0023022CD5FA
:10BEF000964B01369E4200D19AE04546944BFF088E
:10BF00001C406007760564020743240B760D002170
:10BF10002403230B0C0D8F4A24051C4314403305C6
:10BF200023435B00ED075B082B43380019003CBC42
:10BF300090469946A246AB46F8BD6446044300D1FC
:10BF400011E2040067467B07C6D145466007FF083B
:10BF50000743E4087D4B9E4230D024037605240B32
:10BF6000760DD4E7331A9A46002B78DD002831D0BD
:10BF700076488642AED08020000401435346382BD9
:10BF800000DCE9E00A43511E8A410021D219BA427D
:10BF9000BF4109197C4217000C192302D3D56B4B02
:10BFA00001369E4200D13AE10120694B1C407B08DA
:10BFB00007401F43E007074364088BE723003B4328
:10BFC00000D1CBE18022120314432403240B9EE70B
:10BFD0002E007FE70800104300D1B4E0581E00286F
:10BFE00000D0DEE0BA18BA429B4164185B42E41804
:10BFF000170001262302A6D50226D5E7002D6ED113
:10C00000701C4005400D012800DCF9E0B81A844698
:10C0100087428041E51A40422D1A280200D489E067
:10C02000D71BBA4292411C1B5242A51AD84629E797
:10C030004546002400276AE7454CF61A2C4049E79C
:10C040003D002838854000272EE7380001F046FCE7
:10C0500020301DE70A43511E8A41002107E7002BCB
:10C0600000D0F3E0701C43055B0D012B00DCADE05C
:10C07000364B984200D1D1E0BA18BA42BF41641899
:10C080007F42E419E707520817436408060021E7D6
:10C090002E48854200D193E01D00D0E629001F3EC6
:10C0A000F140202B00D18DE04022D31A9D402F4338
:10C0B0007D1EAF4100240F43002644E72B000800FB
:10C0C000203BD8400300202D00D17DE04020451BBF
:10C0D000A9400A43511E8A4100211A43C7E6002E97
:10C0E00050D01A4EB04257D080266B429946360443
:10C0F00034434B46382B00DDD6E01F2B00DD35E105
:10C100002026F51A2600AE40B2463E00DE40AC4680
:10C11000350056462E436546AF407D1EAF41DC409C
:10C120003743D71BBA4292410C1B5242A41A060055
:10C13000D846A3E6644667462C4300D0A2E6002515
:10C140000026002706E71E00C4E6C046FF070000E1
:10C15000FFFF7FFFFFFF0F801F2B63DC2020C31A30
:10C16000080098409C46834653461000D840030080
:10C170005846184363469A40531E9A415346024319
:10C18000D94003E726003E4306D0EB439946002BF7
:10C19000C7D0944EB042ACD10C0017000600D84670
:10C1A00098E6904B9A450BD08246E7E6002800D0EF
:10C1B0009EE01800104300D1E9E01C001700D846AB
:10C1C000884E87E6002572E7002182E723003B4383
:10C1D000002E00D0ABE0002B00D1E7E00B001343B2
:10C1E00000D177E6BA18BA42BF4164187F42E41919
:10C1F000230200D4F2E07C4B17001C40060069E6E5
:10C2000020003843002ED1D100285BD11C001443FC
:10C2100000D1A8E01C001700D8465BE60600002409
:10C22000002797E650460B002038C34099465346F6
:10C23000202B00D195E0402350461B1A99400A4319
:10C24000511E8A414B4600211A439FE6002E30D1F1
:10C2500026003E4367D0DB439A46002B1CD0614E3C
:10C26000B04260D05346382B00DD96E01F2B00DD36
:10C270009FE02026F31A26009E409C46B346534674
:10C280003E00DE4033005E461E4363469F407B1EF9
:10C290009F415346DC403743BF1897429241641890
:10C2A0005242A418060078E627437C1EA7410024CA
:10C2B00037E74C4EB04236D080265B4236049A4671
:10C2C0003443CFE71800104300D103E6B81A844680
:10C2D0006745AD41E01A6D42401B050200D42CE6D3
:10C2E000D71BBA4292411C1B5242A41AD846F1E510
:10C2F0001800104300D163E7F80867070743802060
:10C30000E4080003044208D0DD08054205D1D20844
:10C31000590711430F002C00D8467B0FE4001C4343
:10C32000FF00304ED6E50C0017000600D2E5002BCA
:10C3300038D00B00134300D142E7F80867070743E2
:10C340008020E40800030442E7D0CB080342E4D194
:10C35000D208490711430F001C00DEE70027002424
:10C36000D5E500216BE700250027F3E54E462500C3
:10C37000203EF5404B462E00202B2DD04025ED1AB7
:10C38000AC4027437C1EA74100243743C9E68024E4
:10C3900000252403134E0027DCE527437C1EA7411C
:10C3A000002479E70C0017000E4E93E50C001700EF
:10C3B00090E556462300203EF34099465346202BF5
:10C3C0000ED0402356469B1B9C4027437C1EA74112
:10C3D0004B4600241F435FE70024D2E71700B2E575
:10C3E0000024F2E7FF070000FFFF7FFFF0B557468C
:10C3F0004546DE464E46E0B54C000E0387B0834608
:10C4000092461D008046360B640DCF0F002C4FD096
:10C410006F4B9C4235D08023420F1B04F600134320
:10C4200033439946C30098466A4B00269C46002336
:10C43000644403932B031B0B9B466B00ED0F50468C
:10C440005B0D01955ED0624A934253D05A46D100AB
:10C450008022400F120402430A4393465246D10001
:10C460005C4A944600226344380068408446029047
:10C47000E41A16430F2E00D9B4E0574BB6009B596F
:10C480009F460300334399466CD1002398460233FC
:10C4900008260393CEE7CB464146039A0197022A2A
:10C4A00065D1019B4A4C9C460023002298466BE0D4
:10C4B0000300334399464ED0002E00D1BCE130003A
:10C4C00001F00CFA03000B3B1C2B00DDACE11D223C
:10C4D000D31A5A460100DA4008398E40130033431C
:10C4E00099465B468B40984600233C4C0026241A14
:10C4F00003939FE751465A46114329D100229346A0
:10C500000232B1E7594601431ED05B46002B00D1F1
:10C510009EE1584601F0E2F903000B3B1C2B00DDC5
:10C520008FE102005946083A91408B461D21CB1AF3
:10C530005146D9400B0059460B4351469B4691400A
:10C54000264B00221B1A8FE7002301229B468BE714
:10C550005146032288E7002398460133042600242D
:10C56000039367E70323B14603930C2662E7032A8C
:10C5700000D15CE2019B012A00D0E4E113409C461B
:10C58000002300240022984600211203130B0A0DF9
:10C5900012051A432305124C4046224013436246BB
:10C5A0005B00D2075B081343190007B03CBC904600
:10C5B0009946A246AB46F0BD002380229C4612035A
:10C5C0009846034CE0E70023014C00229846DBE745
:10C5D000FF07000001FCFFFF60DB00000DFCFFFF18
:10C5E000FFFF0F80D94500D939E100D134E10023A4
:10C5F00046464D469A46013C5B460A0E1B021A43CC
:10C600000B02170C039313041B0C390028009046EF
:10C610000193FFF729F90200019B83465A43280042
:10C6200039009146FFF7A6F9350C09040D43A945D9
:10C630000DD95B464544013BA84500D93AE1A945DF
:10C6400000D837E102235B429C464544E3444B4615
:10C65000EB1A390018000493FFF706F9019B050057
:10C660004343390004989946FFF784F933040904D9
:10C670001B0C0B43994509D943446A1E984500D9C0
:10C680001AE1994500D817E1023D43444A469B1AF6
:10C690005A4612042A4303999346100C0A0C9146F9
:10C6A00009045A46090C4E460D001204120C45436B
:10C6B000059151437243704352190E0CB2189542C2
:10C6C00003D980256D02AC466044150C09041204A0
:10C6D000090C28185218834200D2CEE000D1C8E0DD
:10C6E0001D1A53469E1AB24592415242AB1A9A46BF
:10C6F000984500D117E139001800FFF7B5F8019B04
:10C7000005004343390050460493FFF733F904987A
:10C710000B04310C1943884209D941446B1E8845EA
:10C7200000D907E1884200D804E1023D4144049B5E
:10C73000CB1A180039000493FFF796F8019B824644
:10C740004343390004980193FFF714F901980B044F
:10C750003104090C194388420DD953464144013B29
:10C76000884500D9E8E0884200D8E5E002235B4232
:10C770009C464144E244019B2D04CE1A5146294374
:10C78000059D4F462A000B04080C1B0C5A434543D9
:10C790007B4378435B19170CFB189D4203D9802516
:10C7A0006D02AC4660441D0C12041B04120C2818C8
:10C7B0009B18864200D293E000D18EE001231943FA
:10C7C000A04BE318002B00DC99E04A0700D09EE064
:10C7D0005A46D20106D55A469B4B1A4080239346AF
:10C7E000DB00E318994A934268DD0123029A984CD2
:10C7F0001A400023944698460022C5E680224B4604
:10C80000120313420AD05B46134206D11A431203A5
:10C81000120BAC4688468E4CB6E64B461A431203C2
:10C82000120BBC468A4CAFE603005A46283B9A409E
:10C8300000239146984657E6584601F04FF82030BD
:10C8400040E603005246283B9A400021934677E693
:10C8500001F044F820305FE6884500D2C7E64B4639
:10C86000DE075D0843465B081E434346DB079A46E6
:10C87000C2E60025924500D333E7039E5946B446ED
:10C88000E244B245AD416D424544EB18013998454B
:10C8900007D2984200D97FE000D1BCE01D1A8B4638
:10C8A0001FE79845FAD1039D5545F2D943468B467B
:10C8B0001D1A16E79B46CAE61500E7E65A46C90860
:10C8C00052070A435B0590465C0D5A4601230299C4
:10C8D00052021940120B8C4656E6002B00D16FE72E
:10C8E00046444A1EB04529D91100864200D065E76A
:10C8F000039A934200D061E762E701214942012097
:10C90000C21A382A21DD029B03409C4638E60F22DA
:10C910000A40042A00D15BE70A00111D91429241AE
:10C920005242934454E7474BE318002BE5DD0122C4
:10C930005242F2E71D00FAE69A461CE7B04239D8A7
:10C940006ED011003AE702933AE71F2A3CDC20231D
:10C950009B1A0C005846994098404B1E99415B46E3
:10C96000D440D340204308431A00430709D00F2383
:10C970000340042B05D00100081D88429B415B4207
:10C98000D21813023AD50123029A01241A40002337
:10C99000944698460022F7E5022149428C46039DC1
:10C9A000E344AC46E244AA45AD416D424544ED182E
:10C9B0002D1A96E68A1E03994D008D4289414942FF
:10C9C0004144761803958FE71F204042C31A58460A
:10C9D000D8400300202A28D040205D46821A954086
:10C9E00029434A1E91411943072300220B4009D0D5
:10C9F0000F2300220B400800042BBDD10100530778
:10CA00005202120BC90819430123884602990024D7
:10CA100019408C46B8E55245BED88B46002560E6E5
:10CA2000039D9D42C6D3110062E70025D8E780220E
:10CA30005B4612031A43019B1203120B9C46884665
:10CA4000034CA1E5FF030000FFFFFFFEFE0700000F
:10CA5000FF070000F0B54F464646D6465C00C0B51D
:10CA60001F03DB0F9A46174B0E034D00844680468A
:10CA7000360B6D0DC90F91463F0B640D01209D4291
:10CA800008D09C4201D0A5420BD01CBC90469946D0
:10CA9000A246F0BD63463343F7D1AC42F5D13A43E9
:10CAA000F3D10120BE42F0D1C845EED1514507D0A7
:10CAB000002DEAD163461E433000461EB041E4E734
:10CAC0000020E2E7FF070000F0B54546DE46574686
:10CAD0004E46E0B51F033D0B2C4F0E034C00AB46FA
:10CAE0005D008446360B640DC90F90466D0DDB0F5B
:10CAF000BC422AD0254FBD422DD0002C0FD130434F
:10CB00000700814678427841C0B2002D17D15F46B8
:10CB10003A4314D14B460020002B0AD006E0002DEA
:10CB200002D15846024301D0994218D0484201210F
:10CB300008433CBC90469946A246AB46F0BD00284F
:10CB4000F2D00120013B1843F3E737000743D1D06F
:10CB500002204042EDE75F461743CED0F8E7AC42F3
:10CB6000E4DC03DA481E01210843E2E75E45DDD834
:10CB700006D000205E45DCD20123481E1843D8E7CA
:10CB8000C445D3D80020C445F6D3D2E7FF07000040
:10CB9000F0B54E464546DE4657465C00E0B51F03FD
:10CBA000DB0F99462A4B0E034D00C90F8446360B06
:10CBB0006D0D8B4690463F0B640D9D4220D0244B5B
:10CBC0009C4222D0002D12D1304343424341DBB27C
:10CBD000002C1FD0002B0CD04B460120013B0343FF
:10CBE00018003CBC90469946A246AB46F0BD002CCE
:10CBF00016D0CB4517D05B46594201230B43EFE7D4
:10CC0000310002230143EBD1D9E73900022311435C
:10CC1000E6D1D7E73A43DDD100230028E0D0EAE7A8
:10CC20003A43E6D1E7E7A542E5DC05DBBE42E2D8C0
:10CC300007D00023BE42D3D25946012301390B430A
:10CC4000CEE7C445D7D80023C445F5D3C8E7C046CE
:10CC5000FF070000F0B557464546DE464E46E0B5B4
:10CC60000C0398464E00230B87B0070092469B4664
:10CC7000760DCD0F002E6BD06D4B9E4235D08024AB
:10CC80005B46420F2404DB0014431C43C300994657
:10CC9000684BA3469C460023002766440293434604
:10CCA0001C035A00DB0F5046240B520D984600D14E
:10CCB00076E05F4B9A426DD08023410F1B040B43FB
:10CCC0005C49E4008C461C43C3000020624441469A
:10CCD000B6186940721C0191944607430F2F00D982
:10CCE000B0E0554ABF00D25997465B460343994688
:10CCF00000D087E000239B46023308270293CEE74B
:10CD000042460192022867D0032800D10EE2012892
:10CD100000D062E1002300240022994601990140DD
:10CD2000CDB2002112030B0D120B1B051343434A16
:10CD3000240513401C436400ED0764082C43484657
:10CD4000210007B03CBC90469946A246AB46F0BDD8
:10CD5000034399464FD05B46002B00D189E15846EA
:10CD600000F0BCFD03000B3B1C2B00DD7AE11D2213
:10CD7000D31A3A0001005C46DA4008398C401300AF
:10CD80008F4023439B46B94600232D4E0027361A79
:10CD9000029384E7534623432AD10024022096E7D6
:10CDA0005346234320D0002C00D157E1200000F04F
:10CDB00095FD03000B3B1C2B00DD49E11D21CB1A27
:10CDC00051460200D9405346083A944093400C43E0
:10CDD0001B4A121A00207AE70125019B144C1D40C2
:10CDE0000023002299469CE70024002201206EE7E0
:10CDF000534603206BE700239B460133042700269C
:10CE000002934CE7032381460C27029347E78022D5
:10CE10000023002512039946054C82E75C464B46E9
:10CE200002986FE75C464B46019502986AE7C04658
:10CE3000FF07000001FCFFFFA0DB0000FFFF0F80E9
:10CE40000DFCFFFF4A464946170C1A0C1B041B0C2D
:10CE500008041900000C41431500884619007D4361
:10CE60007943039589462900150045434D440295B1
:10CE700045462D0CAA46029D5544A94506D98A4629
:10CE8000802149028946CA4451460391290C0491E4
:10CE9000414609042D04090C88462900250C240468
:10CEA0004144240C059121004143884621007943E7
:10CEB0008A466843414650448146080C48446F43C3
:10CEC000824503D98021490289464F44010C894695
:10CED00039004944029141460F0404993F0C8846A9
:10CEE0000004C01980444146049159460F0C0904BE
:10CEF000090C884659438A463900514389464146C0
:10CF00004A435146090C8B467B43D2185A449342FC
:10CF100003D980235B029B46D94451460904090C7E
:10CF20008A46414661437C43130C12044B445244ED
:10CF3000A1468A463C0041466C434D4351464D4410
:10CF40000F0C7D19A94503D9802149028846444424
:10CF5000049F0399B84641448B4683458041414232
:10CF60008846514608042F04000C3F185846029981
:10CF700010188946904292414F44BA46524299460F
:10CF80009346C244D144CB448F42BF41C2458941FC
:10CF900099459B41934592417F4249422D0C524213
:10CFA0000F435B4213437F19FF185B463C19DB0DAF
:10CFB000059A64021C43430213435D1EAB415A466B
:10CFC000C00D034352021343E20156D501205A0813
:10CFD00003401343E207134364085A48604400289F
:10CFE0004DDD5A0709D00F221A40042A05D01A1D18
:10CFF0009A429B415B42E4181300E20104D5802071
:10D00000514AC00014406044504A904200DDE3E6BB
:10D010000125DB0862071A436402019B9146220B3B
:10D020004405640D1D407CE68022594612031142DE
:10D0300008D0144206D122431203120B45469946EA
:10D04000434C6EE65B461A431203120B404C68E6F3
:10D0500003005446283B9C400023B9E600F03EFC08
:10D060002030A6E60300283B9F400023BB4699469C
:10D070008AE600F033FC203074E6B446ADE70125C3
:10D080002A1A382A06DD019B00241D4000230022B5
:10D09000994646E61F2A21DC20252000AD1A1E00F5
:10D0A000AB40A840D6405D1EAB4130431843D4404E
:10D0B000430709D00F230340042B05D00300181D9C
:10D0C00098429B415B42E418230221D50125019B34
:10D0D00001241D4000230022994622E61F2521003D
:10D0E0006D42281AC1400800202A1DD05F35AA1AB7
:10D0F000944023435C1EA341072503431D400022A7
:10D10000002D09D00F2200241A401800042AD6D17D
:10D11000030065076402220BDB082B4301259946B7
:10D12000019B00241D40FCE50024E2E7802201254C
:10D130001203224301991203120B0D409946044C2D
:10D14000EFE5C046FF030000FFFFFFFEFE07000003
:10D15000FF070000F0B54646D6464F460C03C0B563
:10D16000CD0F4E00610A440F0C43C1005800400D22
:10D1700084468A460F001903500F490A0143C648E6
:10D18000760DA846DB0FD200844500D1D8E00120FF
:10D190004340AB4200D1A6E06046351A002D00DCCA
:10D1A00005E1002810D10B00134300D1D7E06B1E1E
:10D1B000002B00D04BE153469F1ABA458041641AB8
:10D1C0004042241A01261EE0B34B9E4248D08023E1
:10D1D0001B041943382D00DD19E11F2D00DD4CE142
:10D1E00020230F005B1B10009A409F40E840531E15
:10D1F0009A41E940074317435346DF1B611ABA457A
:10D20000A44164420C1B230200D4C5E06402650AF9
:10D21000002D00D1F6E0280000F060FB0300083B81
:10D220001F2B00DDE9E020223C00D21A9D40D440B3
:10D230009F4025439E4200DDDBE09E1B731C1F2B9D
:10D2400000DD0AE120223800D21A290097402C0084
:10D250009140D8407A1E9741DC40002601430F439D
:10D260007B0709D00F233B40042B05D03B1DBB425D
:10D27000BF417F42E4191F00230225D5864B0136AA
:10D280009E4200D1AFE0854B01251C40434662071A
:10D29000FF08640276051743240B760D1D4000211C
:10D2A0002403230B0C0D7E4A24051C431440330534
:10D2B00023435B00ED075B082B43380019001CBCBF
:10D2C00090469946A246F0BD012543466207FF08F5
:10D2D0001743E4081D40704B9E4236D02403760568
:10D2E000240B760DDBE76346F31A002B00DC94E099
:10D2F0006046002835D068488642B1D080273F0478
:10D300003943382B00DCFDE00A43170000217A1E68
:10D310009741574457458041091944420C1923024B
:10D320003AD55D4B01369E4200D14BE101225B4B69
:10D330001C407B0817401F43E207174364088FE730
:10D340000800104300D024E721E723003B4300D12D
:10D35000B9E18022120314432403240B9FE72E001B
:10D360007EE70800104300D1CAE0581E844600281A
:10D3700000D0E7E0524452458041641840422418EE
:10D3800017000126230207D50226CFE764462C4367
:10D3900000D1B3E12C0067467B0700D062E763074A
:10D3A000FF081F4301254346E4081D4093E7002D75
:10D3B00078D1751C6D056D0D012D00DCF2E0504635
:10D3C000801A8245BF41651A7F42ED1B84462802C0
:10D3D00000D48CE05046171ABA4292410C1B5542B9
:10D3E000651B984614E70125434600241D4000278D
:10D3F00055E72A4CF61A2C4032E73D002838854084
:10D40000002717E7380000F069FA203006E70A43E2
:10D41000170000217A1E9741EEE6002B00D0E5E0D0
:10D42000731C9C465B055B0D012B00DC9FE01A4BD7
:10D430009C4500D1C5E052445245804164184042A9
:10D440002418E707520817436408664608E712489D
:10D45000854200D185E01D00BCE629001F3EF14059
:10D46000202B00D17FE04022D31A9D402F437D1E08
:10D47000AF4100240F4300268EE72B000F00203B16
:10D48000DF40202D71D040235D1BA9400A43511E6F
:10D490008A4100211743AFE6FF070000FFFF7FFF2F
:10D4A000FFFF0F80002E3ED0B34EB44545D08026FE
:10D4B00036046D423443382D00DDA8E01F2D00DD19
:10D4C0001FE1202627005046761BB740E84007435F
:10D4D0005046B040461EB041EC403843171ABA429D
:10D4E00092410C1B5242A41A664698468BE664464B
:10D4F00067462C4300D08BE6002500260027EAE68D
:10D500001E00ADE61F2B60DC2027F81A0F008446B2
:10D5100087401000D840074360468240501E824139
:10D52000D9401743F5E626005046064305D0ED43A3
:10D53000002DD3D0904EB445BDD10C0017006646E7
:10D5400098468DE68C4883420BD06346D9E6002D81
:10D5500000D096E00800104300D1E2E00C00170074
:10D560009846854E7CE6002580E700218EE7230063
:10D5700050460343002E00D0A8E0002B00D1DEE08F
:10D580000B00134300D16BE65244524580416418AE
:10D59000404224181700230200D4FDE6774B66466C
:10D5A0001C405DE6250050460543002ECFD1002DDE
:10D5B0004FD10C00144300D1A0E00C001700984696
:10D5C0004EE666460024002785E61F000800203F3F
:10D5D000F8400700202B00D18EE04020C31A99406C
:10D5E0000A43511E8A410021174392E6002E14D1AE
:10D5F00026005046064362D0DB43002B5CD18718DF
:10D600009742924164185242A418664687E65046F3
:10D610002043441EA041002460E7574EB4454ED03D
:10D62000802636045B423443382B00DD7FE01F2B1D
:10D6300000DD8BE0202627005046F61AB740D84080
:10D6400007435046B040461EB0410743DC40BF1878
:10D65000D6E70D00154300D102E65046801A8245F8
:10D66000BF41651A7F42ED1B8446280200D48DE637
:10D670005046171ABA4292410C1B5242A41A9846BD
:10D68000EEE50D00154300D16BE750466707C00873
:10D6900007438020E4080003044207D0CD08054278
:10D6A00004D12C009846D70849070F437B0FE400AC
:10D6B0001C43FF00304ED3E52F4EB445B4D10C00CF
:10D6C00017006646CCE500270024E8E5002B39D09A
:10D6D0000B00134300D144E7C008670707438020CD
:10D6E000E40800030442E1D0CB080342DED1D708AE
:10D6F00049070F431C00D9E7002171E700250027E7
:10D70000E9E52E002700203EF740202D2FD04026AF
:10D71000751BAC4050462043441EA04100243843B2
:10D72000DCE6802400252403134E0027D3E5504671
:10D7300020430700781E87410024BF1860E70C00D3
:10D7400017008DE50C0017000B4E89E51E00270021
:10D75000203EF740202B0CD04026F31A9C40504628
:10D760002043441EA04107430024BF1848E700247B
:10D77000D0E70024F3E7C046FF070000FFFF7FFF6C
:10D7800030B5134D0A034B00120B5B0DC90F00247B
:10D79000AB4210DD0F4CA3420FDC80240E4D64031E
:10D7A0002243ED1A1F2D0BDD0C48C31ADA405442F8
:10D7B000002900D11400200030BD094BCC18FAE735
:10D7C000084CE840A44663449A400243EFE7C04651
:10D7D000FE0300001D0400003304000013040000D9
:10D7E000FFFFFF7FEDFBFFFF70B5002830D0C317B0
:10D7F000C4185C40C50F200000F070F8174B184AA1
:10D800001B1AD21A1F2A18DD164AD21A9440002277
:10D8100024035B05240B5B0D0021100024030A0D7B
:10D82000240B12052243104C1B05224013435B00BE
:10D83000ED075B082B43190070BD210091400A00E1
:10D840000B21081AC4405B052403240B5B0DE3E79E
:10D850000025002300240022DEE7C0461E0400004D
:10D860003304000013040000FFFF0F8010B5041EF6
:10D8700028D000F033F8154B154A1B1AD21A1F2A6C
:10D8800015DD144AD21A9440002224035B05240BB0
:10D890005B0D0021100024030A0D240B1205224306
:10D8A0000D4C1B05224013435B00590810BD21009D
:10D8B00091400A000B21081AC4405B052403240B85
:10D8C0005B0DE6E7002300240022E2E71E040000CF
:10D8D0003304000013040000FFFF0F801C2101230C
:10D8E0001B04984201D3000C10391B0A984201D343
:10D8F000000A08391B09984201D30009043902A221
:10D90000105C40187047C046040302020101010187
:10D91000000000000000000010B5002903D1FFF74F
:10D92000DDFF203002E0081CFFF7D8FF10BDC04625
:10D9300070B500260C4D0D4C641BA410A64209D1F5
:10D94000002600F04DF90A4D0A4C641BA410A642B3
:10D9500005D170BDB300EB5898470136EEE7B30030
:10D96000EB5898470136F2E7ECDB0000ECDB0000F7
:10D97000ECDB0000F0DB0000002310B59A4200D180
:10D9800010BDCC5CC4540133F8E703008218934205
:10D9900000D1704719700133F9E72E2E2F68706C93
:10D9A0002F706F72742F68706C5F6770696F5F6241
:10D9B0006173652E68002E2E2F68616C2F73726361
:10D9C0002F68616C5F666C6173682E63002E2E2F6A
:10D9D00068616C2F7372632F68616C5F7370695F2D
:10D9E0006D5F73796E632E63002E2E2F68616C2F2E
:10D9F0007574696C732F7372632F7574696C735FC0
:10DA00006C6973742E63002E2E2F68706C2F6E76E7
:10DA10006D6374726C2F68706C5F6E766D63747278
:10DA20006C2E6300000000000000000000000000F9
:10DA30000000000000000000000000000C000100D9
:10DA400000000200000000000500FF01040C0011AE
:10DA50000000000200000000000500FF01052E2E5E
:10DA60002F68706C2F736572636F6D2F68706C5FB9
:10DA7000736572636F6D2E6300000000B4020020B6
:10DA800000000000400000007402002000000000C0
:10DA900040000000340200200000000040000000B0
:10DAA00077656C636F6D6520746F20746865207492
:10DAB000657374206170706C69636174696F6E2C3A
:10DAC0002074686973206C6F6F702077696C6C20AC
:10DAD0007265706561740A006C6F6F702025640A4E
