:10000000002400202D01000029010000290100002A
:1000100000000000000000000000000000000000E0
:1000200000000000000000000000000029010000A6
:10003000000000000000000029010000290100006C
:100040002901000029010000290100002901000008
:1000500029010000090D000029010000E11C000039
:1000600029010000290100002901000029010000E8
:1000700029010000290100002901000029010000D8
:1000800029010000290100002901000029010000C8
:10009000290100000000000000000000290100000C
:1000A00029010000290100002901000029010000A8
:1000B0000000000010B5064C2378002B07D1054B3B
:1000C000002B02D0044800E000BF0123237010BDC4
:1000D0006800002000000000B42A0000084B10B5A2
:1000E000002B03D00749084800E000BF0748036819
:1000F000002B00D110BD064B002BFBD09847F9E731
:10010000000000006C000020B42A0000B42A0000A7
:100110000000000010B5024B9847024B984710BDF5
:100120000D050000C5280000FEE700002148224917
:1001300070B5884204D00023204CCA18A24232D3A2
:1001400000211F4B1F4A934231D3FF211E4B1F4AF0
:100150008B43936002220C25082430261C4B1D483B
:100160005A62C378FC398B431343C370C378AB43E3
:100170002343C370184B987BB043060020203043C4
:100180009873987BA84304439C73987B88430243ED
:100190009A738023114A51680B435360104B984760
:1001A000104B9847FEE7C55804331560C5E702C3F6
:1001B000C9E7C046B42A0000000000206800002003
:1001C00068000020000400200000000000ED00E0B6
:1001D000FC700041005000410048004100400041D7
:1001E0000D290000AD1E000070B51F244209C0B2E9
:1001F0000440FF234D1C09D11A40D201144BA21810
:10020000D218137802318B43137070BD012513404F
:10021000104ADB019B181E1940363278AA432A4344
:1002200032706208284209D00F209A1830321378B1
:10023000090103401943C9B21170E6E70F209B186A
:1002400030331A780140824311431970DDE7C0460C
:10025000404400410044004110B5012A19D0002A51
:1002600007D0022A25D0452215490020154B984772
:100270001EE0C023C001DB05C318596080238AB289
:10028000DB051343104A090C80188362C0231B0648
:100290000CE0C023C001DB05C31859600B4B8AB2C8
:1002A0001343094A090C80188362094B1943816280
:1002B00010BDC023C001DB05C3189960DEE7C0464E
:1002C00076290000DD0B00000044004100000240E0
:1002D000000002C00422C001034B0918C9180B78A2
:1002E00093430B707047C046404400410423024AC8
:1002F000D1690B43D36170470004004010B5034B34
:10030000984703490348044B984710BDED0200008D
:1003100000400041CC030020A9050000802170B5F9
:100320000122104D49010020A8470F4B0C2100204D
:1003300098470E4C0E490C20A04780210D4EC90055
:10034000316002220120A8470B492A20A0478021C2
:100350000901316002220120A84708492B20A0474B
:1003600070BDC04659020000D5020000E90100003E
:1003700003000C009400006003002A0003002B001F
:100380004023044A116A0B431362034A034B5A8009
:100390007047C0460004004018400000000C0040B8
:1003A00010B5044B98470449044B05489847054B42
:1003B000984710BD8103000000180042ED050000C1
:1003C000E80300201D030000012270B510000F4D4E
:1003D0000821A8470E4B0321012098470D4C0E49D8
:1003E0002320A04780210D4EC90331600222012045
:1003F000A8470B493620A04780210904316002221A
:100400000120A84707493720A04770BD59020000C6
:10041000D5020000E9010000030023009400006001
:1004200003003600030037008023044A116A0B439F
:100430001362034A034B5A807047C04600040040D1
:1004400019400000000C004010B5044B98470449C7
:10045000044B05489847054B984710BD29040000F8
:10046000001C0042ED050000B4030020C903000099
:10047000F8B58024C026640402220E4FF605210040
:100480000020B84774610C4D18210020A8470B4C80
:100490000B491820A0478021022289040020B84778
:1004A00080239B04736119210020A8470549192066
:1004B000A047F8BD59020000D5020000E901000084
:1004C00006001800060019002022064BD9690A43CD
:1004D000DA61402259690A435A61034A034B5A8040
:1004E0007047C0460004004006400000000C004079
:1004F00010B5034B9847034B9847034B984710BDE3
:10050000C9040000D108000071040000F8B5124BC6
:10051000C02798471021FF05104CB961104E0222E8
:100520000020B04722000125802144321378890140
:10053000AB43002013704D34B9610222B0472378D9
:10054000AB432370074B9847074B9847074B984797
:10055000074B9847F8BDC046350C000000440041E9
:1005600059020000FD020000A10300004904000040
:10057000F1040000EFF31083036072B6BFF35F8FE6
:100580007047BFF35F8F036883F310887047436938
:1005900010B5002B00D0984710BD836910B5002B13
:1005A00000D0984710BD000070B504000D00002871
:1005B00003D00800431E9841C0B20749074B3822B8
:1005C000984729002000064B9847002803D1054B87
:1005D0002360054B636070BD92290000DD0B0000B5
:1005E000A90C00008F0500009B05000070B50400F9
:1005F0000D00002803D00800431E9841C0B20949ED
:10060000094B402298476560201D2900074B9847F9
:10061000002806DB0020064BA382064B2361064B15
:10062000E36070BDA9290000DD0B0000610D000032
:100630000080FFFFB90600008106000030B504000D
:1006400087B00D00002803D00800431E9841C0B2B7
:10065000B3220849084B98472B68201D03936B6809
:1006600003A90493AB6801930593044B984707B023
:1006700030BDC046A9290000DD0B0000290F000095
:100680007FB50400431E98410E001500C0B2A3229E
:100690000649074B984700232000029301A9054B08
:1006A0000C3801960395984704B070BDA929000045
:1006B000DD0B00003D0600007FB50400431E98419D
:1006C0000E001500C0B287220649074B9847002349
:1006D0002000019301A9054B0C3802960395984719
:1006E00004B070BDA9290000DD0B00003D0600002C
:1006F0000F22002370B50A4C02405E01A5196D78E7
:1007000059B2854209D0365D002E01D1AA4204D0EB
:100710000133042BF1D101214942080070BDC046CC
:10072000840000200020704770B5084B04000D00C5
:100730009847074B40011B189A780020032A03D1E1
:100740009B6929002000984770BDC046F106000053
:1007500084000020F0B5394B87B000900F00019263
:100760009847374D4401002F42D12E19F770295D6B
:10077000002934D12200B7780C327078F369032F46
:1007800028D10C27AA180131F75798477378002809
:100790000DD00522B270033AF2701800002F01DB71
:1007A000802018430121274B984707B0F0BD042251
:1007B000B27003AA03905060002F08DB802003432F
:1007C00013720123100053721F4B9847EDE70F205F
:1007D0000340F5E7AA1898470223B370E5E7012321
:1007E000B3702C19E178E369019A00989847DCE727
:1007F0002B19012F0CD10222DA70295D002904D1B6
:100800009A7000980F4B9847EBE705229A70E8E73B
:10081000022F08D10422DA702A5D002A01D19F70CC
:10082000C3E70122F2E7032F04D100229A700532B8
:10083000DA70D6E706229A70FAE7C046F1060000A1
:1008400084000020511A0000791B0000F0B51C4BF9
:1008500085B0040098471B4F430103930C33FB18EA
:10086000019319002000184B98478026C0B2174DFD
:100870007642082808D001212000A84701213443EE
:10088000E0B2A84705B0F0BD002126432000A847EC
:10089000F3B2002118000293A847039B0199FE18A8
:1008A00001272000B770736998470028EAD1052313
:1008B0003900B3702000A84739000298E1E7C0462C
:1008C000F106000084000020211B0000511A0000E6
:1008D00010B5114B984700281DDB104C80222000DA
:1008E0000F4B00219847FF200E4A631C81341900EA
:1008F0001870133120330A604A608A60A342F6D12F
:10090000094C0A490020A04709490120A0470220BC
:100910000849A047002010BDA51600008400002053
:100920006729000025070000B51C00004D080000E5
:10093000290700005507000010B5014B984710BD6E
:10094000911C000010B5014B984710BD69170000BD
:1009500010B5014B984710BDB117000010B5014B01
:10096000984710BDC1170000F8B5104C06000D00E7
:100970001700A047002813DAFF20A047041E12DB4F
:100980003A00290030000A4B9847002807DB094B42
:1009900064011A195670032200201540E554F8BD71
:1009A00014204042FBE71520FBE7C046F10600009B
:1009B000D117000084000020002110B582B2024B44
:1009C0000800984710BDC0466909000070B5074B84
:1009D00005009847041E07DB054B28009847054B88
:1009E00064011C19FF23637070BDC046F10600004E
:1009F000991800008400002070B50C4B0500984742
:100A000000280FDB0A4C4001035D24185A42534171
:100A10000133A3702800074B9847002801DA002310
:100A2000A37070BD12204042FBE7C046F1060000F3
:100A30008400002015190000F0B5037A8BB0050082
:100A400001931800354B98476B7A061E03936C6828
:100A500062DB334B06A8984773010093009A314B31
:100A60009E18B37804AAD71D3B703B78DBB2029383
:100A7000029A2D4B012A1DD10232B27006A8984766
:100A8000284B009AD35C002B25D0019BDA09039BED
:100A9000591E8B41DBB2297A2D6807A8079544605F
:100AA000002A36D080220A434372204B02729847B4
:100AB0000BB0F0BD06A898473B780220DBB2052BAF
:100AC000F6D0062B04D00120002BF1D1132000E03A
:100AD00010204042ECE7F27CB37C12029B189BB2E0
:100AE000002B05D104221C00029BB2701A00D2E731
:100AF0009C4200D91C000B49009A8C466244127B30
:100B00007F2A04D99C429B4101225B42C3E7002318
:100B1000ECE70F220A40C7E71220DAE7F1060000EF
:100B2000750500008400002083050000791B00008B
:100B3000F8B504000D1E1BD1124B9847061E1EDB94
:100B400002212000104FB847002810D029002000B3
:100B5000B84700280BDB0D4B76019E1903210123BA
:100B6000F170B3702A00F369200098472800F8BD9F
:100B7000054B012900D0022120009847F7E71220F9
:100B80004042F4E7F1060000511A00008400002002
:100B900070B50F4B15000C009847002D00D10D4D7E
:100BA000002805DB012C09D0002C02D0022C0AD031
:100BB00070BD094B400118184561F9E7064B40012B
:100BC00018188561F4E7044B40011818C561EFE778
:100BD000F10600002507000084000020002800D155
:100BE00000BE70470068002800D170478842F9D1E4
:100BF0000120FAE770B50C4B05000C000668984719
:100C0000030001205840C0B2084B4F2208499847C2
:100C10002B68002B03D12C60236070BD1E0033684D
:100C2000002BFBD13460F7E7E50B0000DD0B000083
:100C3000C529000010B50224074A536823435360B6
:100C4000064B9847064B98472000064CA047064B9A
:100C50009847FD20A04710BD00400041390D00001D
:100C6000051000006D0C00001D100000C3070BD420
:100C7000830708D50222094BFF329A60084A5A605E
:100C80005A78D209FCD170478022044B52009A60F6
:100C9000044A5A605A78D209FCD1E9E7000C0040B6
:100CA000010301000007010070B504000D000028D9
:100CB00004D00F4BC81843425841C0B246220D49D8
:100CC0000D4B98479E2225616B680C4913406B6061
:100CD0000B4B0C4A1C602023CB67BFF34F8FBFF335
:100CE0006F8FC021490053500020136070BDC04673
:100CF00000C0FFBEE3290000DD0B000004E100E0BE
:100D00000401002000E100E001210A4B10B5186841
:100D100003691A7D0A4204D00368002B00D098476B
:100D200010BD1A7D52080A42FAD002221A75436891
:100D3000F3E7C04604010020064B1A7AD2B21A72B9
:100D40005A7AD2B25A729A7AD2B29A72DA7AD2B203
:100D5000DA72704700040040C3691942FCD1704741
:100D6000654BF7B5CA18920AD2B207000D00634B63
:100D7000042A00D184E0052A00D0B1E0043A11240D
:100D8000002062435E4C1834A418874203D0280028
:100D9000421E9041C0B25B4A5B499847002C00D18B
:100DA000A6E0EB69594EDB071AD41C2322780321F5
:100DB0001A4028000192B04702222B68134208D043
:100DC0002B680321934328002B60B04702212800A1
:100DD000B0470123019A032113432B602800B04739
:100DE00001212800B0471C2223783D601340082BC6
:100DF00048D1474A44490120404B984762782378BC
:100E000012021A43A37803211B041A43E378280033
:100E10001B0613433F4A13402B60B0476279237986
:100E200012021A43A37907211B041A43E37928000D
:100E30001B061343384A1340384A13436B60B047CC
:100E4000627A237A12021A43A37A1B041A43E37AC2
:100E50001B0613436B622B00627B30331A70EB6905
:100E6000002BFCD107222379002013405A1E934106
:100E700001333B71E37BA27B1B021343FB80FEBD6E
:100E800000227CE7264A204901201C4B98476278C3
:100E9000237812021A43A37828001B041A43E3782C
:100EA00003211B0613431B4A13402B60B047627992
:100EB000237912021A43A37928001B041A43E37909
:100EC00007211B061343174A134080229202134343
:100ED0006B60B047237B2B73637B30352B70C1E78E
:100EE0000024A04200D052E7064A0749380098473C
:100EF0000D204042C3E7C04600F8FFBDDD0B0000F7
:100F0000002A0000250900003A2A0000590D0000BF
:100F100003090000FCFEFFFFBFDDFDFF40020200F1
:100F2000EF080000BF1DFDFFF0B5056885B001901A
:100F30000291037928000393431E98410F684E687D
:100F4000C0B22C4A2C492D4B98470720EC6904402D
:100F500031D12B4B0321280098472B689B072DD5B7
:100F6000012321009C4604232A7ED2B21A4227D0B4
:100F7000AB6A002E04D003983370012812D80136D2
:100F8000013152B2002A2DDA012313205B426B8318
:100F900081332B76404203232A7E1A42FCD02B76E3
:100FA00005B0F0BD1B0A73700236E9E77B780237A3
:100FB0001B02034313E004204042F1E71420FBE747
:100FC000A142DED363461A42DBD0019BDB88002FAF
:100FD00005D0039B3878012BE8D803000137013492
:100FE000AB62CEE7029B9B689C42BCD39942BAD3CA
:100FF0002000D0E7850A00003A2A0000DD0B00003F
:10100000590D00000222044B99690A431F219A617D
:101010001A7F0A401A777047000800408223022294
:101020001949DB014B80194B9A840E32D868104263
:10103000FCD0174ADA62174A1268920E3F2A0ED085
:1010400080209202800002439A6206229A849A8C3F
:10105000520707D41022D8681042FCD007E0FC22C7
:10106000D201F1E7D020DA680240D02AFBD18022F9
:10107000988C02439A844A78D209FCD102219A6959
:101080008A439A617047C046000C00400008004047
:10109000B90501042460800000207047074B9A8C3A
:1010A000920605D4D021DA680A40D02AFBD17047D5
:1010B0001022D9681142FCD0F9E7C0460008004070
:1010C000002803D0002901D00230C0B2142301301F
:1010D00043430148C0187047080100200F2370B532
:1010E0000100807C072503401A00CC7C0832254093
:1010F0005B01012D08D01449520152181021D17101
:10110000124A9B18597270BD40252C4206D0802689
:10111000AC43CC740D4C1C196671A5710825CC7CB0
:101120005201AC43CC74002409494831C9188C726F
:101130008C76054952186F21D171044A9B18597257
:10114000044B9B689847DEE700500041FF50004188
:10115000880100200801002020220F238A4010B5BA
:101160000400807C054903405B015B18D2B25A72CF
:10117000034BA2681B690121984710BDFF50004135
:101180000801002010B50300807CFF2809D040240E
:10119000DA7C224205D0A243DA74024A14699A68C2
:1011A000A04710BD08010020F7B5252401AD837CC0
:1011B0002C70241994466C70FF2B1AD04027C47CE5
:1011C0003C4216D00F2423401C000834660100293D
:1011D00010D00A4FF61980273771084A6401A41805
:1011E000074A695C5B019B18E17159726146054BC6
:1011F0009847F7BD014AB6187771EEE700500041F5
:10120000FF50004185110000F7B50F22847C01AF2B
:1012100014400B3A3A7004327A70220008320B0004
:101220002D4D61015601002B24D0AD5D6D066D0F73
:101230002A4E4836B4461E017618B4446646B67A3D
:10124000F6B2022D1AD1013D2E4217D06446A47A7F
:101250005201AC436546AC721F4DFC5C5219D4710F
:101260001F4A89184C72591E8B410422D9B21D4B5A
:101270009847F7BDAE5D07253540D9E702252E40DA
:1012800019D06646B67AC47CAE436546AE72124E3D
:10129000FD5C52019219D571114A891807224D72CD
:1012A0002240012AE5D16206E3D5C17CC9098B42FF
:1012B000DFD00022DBE76000084AC0184832000196
:1012C00012189672084A6401A418054AFB5C891832
:1012D000E3714B72CDE7C046005000418801002009
:1012E000FF500041A91100000051004170B50A4DA6
:1012F000FF262C00C835143403212000074B9847E3
:101300000021A674E1741434AC42F5D10448602283
:10131000044B4830984770BD08010020851100003B
:101320008801002067290000F0B50F2585B00091E5
:10133000837C04001D4001936B01029300239942BA
:1013400006D04D4B6A0148339B185B699B049B0C8C
:10135000268A4A4A0396964202D0721E92B203929D
:10136000E27C9446072261461140009A0291002ACD
:1013700004D043496A0152180221D171A2686768FA
:101380009918A1606A01B94240D260467F1ABBB287
:10139000394F80062ED5321C9E4200D91A1C236874
:1013A00096B259183200374BE0689847324BE268E2
:1013B00069015B189A656B01FF18FB6DB604B20CEE
:1013C0009E0BB6031643FE65FB6D2F4A1340FB656B
:1013D000009B002B08D1029B4E22012B00D0043A27
:1013E0002A496B015B189A72254B6D01ED18802319
:1013F0006B713AE080201E1C8001834200D9061CDC
:101400002368BA185918B6B29165D4E71027604618
:1014100038420ED0E37C6A01BB43E374164B1A4991
:101420009B18DA6D920B9203DA65DA6D0A40DA6581
:10143000CEE7029801281AD14B251448121855728C
:10144000039A13409E420CD14025E37C0198AB43A4
:10145000E3740F4BDB689847002806D1E37C2B43ED
:10146000E374002120000B4B984705B0F0BD0748FE
:101470004A251218E3E7C04688010020FF03000058
:101480000051004155290000FF3F00F0FF5000418E
:1014900008010020851100000F23F0B5827C87B081
:1014A0001A40530104000D1E0192059368D0059A5D
:1014B000674B9B18D86C0001820C0392DF6CBF0451
:1014C000BF0C238A0293029A624B9A4203D0130004
:1014D000013B9BB202930723E27C029E13403E40F5
:1014E0000493002D05D0019B5B495B015B18012132
:1014F000D97193060DD56268002A0AD0A0682368C6
:10150000121A92B21818E168964200D23200534B78
:101510009847019A63685101002B34D11020E27C76
:10152000024200D18BE0824320331A43E274484BDD
:10153000059AE1689B189964218A1A004848DB6C77
:101540008904090903400B43D364D36C9B0B9B03B1
:10155000D364002D0DD1019B04995A012523012943
:1015600004D13B4B48339B189D762D233D4952189F
:101570009372019B384A5B019B1840221A711FE04D
:1015800003910F009DE7002D1CD0228AB24219D989
:101590001022E37C9343E374A368DF19A760049BE4
:1015A000012B48D12F4BC9182D234B72019B002BC7
:1015B00002D1274BE2689A64002120002A4B984709
:1015C00007B0F0BDA668039AB44662441000A2605A
:1015D0009342E4D920269B1AE27C9BB2278A3242AE
:1015E00012D0381C9F4200D9181C019A83B25001B6
:1015F000174AE46810188464154A19485218D16CC7
:101600009B041B0901409EE7BB420DD98026B60111
:10161000B3420ED8029A93432468019A20185401C9
:101620000B4A1419A064E7E7BB42F5D21643E674EF
:10163000F2E73300F0E70B4BC9182523B5E7002D7F
:10164000A3D1A268039B94466344A360A7E7C04666
:1016500088010020FF0300000051004155290000CF
:10166000FF3F00F0FF500041851100008023020081
:101670009B0007209A4214D8013BFF3B01389A4255
:101680000FD80138802A0CD80138402A09D80138EF
:10169000202A06D80138102A03D80630904280410B
:1016A0004042704710B52A4CA378DB070DD40323C2
:1016B000A2781A42FCD10222237813423CD10123A2
:1016C00023700233A2781A42FCD10123A2781A4275
:1016D000FCD1204B204A1A605A609A60DA601A6185
:1016E0001E4B98471F201E4B1A68530B910C9201FA
:1016F00003400140520F834200D105231F2900D12E
:101700000239072A00D1023A9B010B43120313430B
:1017100023850323E2781A43E2700C22E1780A431E
:10172000E27004222270A0781840FCD10D4B48339F
:1017300063620123238110BD237893432370032325
:10174000A2781A42FCD10223A2781A42FCD1B6E751
:10175000005000410801002099100000ED12000027
:10176000246080008801002003220E4B99781142EA
:1017700015D199781142FCD102221978C9B21142CF
:1017800006D080210020084A1160084A1A83704759
:101790000A431A70032299781142FCD1F1E7112013
:1017A0004042F4E70050004100E100E08D020000FB
:1017B0000121024A13898B43138170470050004175
:1017C00080231843014B98727047C0460050004177
:1017D000F7B500266B460F24009001929E570440F7
:1017E0000F002B4BF10F20009847032305001F40EB
:1017F000022C44D8837CFF2B44D1002F0FD1F1431E
:10180000234BC90F20009847837CFF2B3AD1F33B31
:101810006343204A9B58002B36D1132030E0002E22
:1018200016DA0C2262431B4B9B185A68002A1BD104
:101830000C236343174CE4186368EB606B469B888A
:1018400000202B826B461B780137EF74AB74FEBD12
:101850000C2363430F4A9B58002B0BD00C2262438E
:101860000C4B9B181B8900E05B89019A9342D4DBE7
:10187000002EDDDB0C235C43064BE358DDE7122032
:101880004042E4E71420FBE7002EE7DAC9E7C04650
:10189000C1100000582A0000F7B50F2543B2DF0F32
:1018A00005400193040039002800164B98470600B4
:1018B000022D14D8837CFF2B11D00322124B390048
:1018C00098470722F37C1340012B09D100220834EA
:1018D0000E4B6401E2540023F374FF33B374F7BD7D
:1018E00063B2002B07DA7022094B6D01ED186B789B
:1018F00093436B70EFE7064B6401E41863789343FE
:101900006370E8E7C1100000A91100000050004119
:10191000FF500041F7B50F2544B20540E10F464B9B
:1019200028009847454B6901CE1872780700D2B25B
:10193000022D00D97BE0837C0193FF2B00D176E060
:101940003F4DC37C48356D1807201900014001291F
:101950003BD17724144000D06CE0112373703B8A94
:1019600000931800374B9847E0230007DB05184029
:10197000009B354A9B03134003436B60009B40214F
:101980009B049B0C8022184368610F20B171727117
:10199000019AAC7202402A485201AC7685182800A0
:1019A000FE68AE64ED6C9E03284B2B403343C3644A
:1019B000C36C9B0B9B03C364204BD318B0225A719A
:1019C000A03A99719A722000FEBD002C17DA70209F
:1019D000140004402ED11B010340134373703F8A4F
:1019E000184B38009847E0230007DB051840802398
:1019F000BF04BF0C384368617371AC76E3E71040F5
:101A0000041E17D15B075B0F134373703F8A0D4BA6
:101A1000380098470C4ABB031340E0220007D20568
:101A20001040184340236860B371AC72CBE71220BA
:101A30004042C9E71420FBE7C1100000FF500041FD
:101A4000880100206D16000000C0FF0FFF3F00F06E
:101A5000F8B507000F25C4092F400E0038002100FB
:101A60002B4B9847022F4FD8012E15D11022A240A0
:101A7000837C28491D406B01D2B25B185A71202328
:101A8000A340254A6D01DBB2AD18AB720823C27CBE
:101A90001343C3740020F8BD837C002E29D12B4052
:101AA0001E4A5B0199181C4A9B181022A240DD793E
:101AB0002A42EFD0D2B25A712022A240D5B25D7232
:101AC0001E7A324204D00122A240D2B21D725A7153
:101AD0000723C27C1340012B08D1FF31CB79302181
:101AE0000B40D7D128398A43C274D3E708239A43DD
:101AF000FAE71D40074B6D01ED181023A340A879AC
:101B00001840431E9841C6E712204042C3E7C04632
:101B1000C110000000510041FF5000410050004141
:101B2000F8B50F231840114B440148331B190F001F
:101B300019685D68AD04AD0C022812D8002F10D0D2
:101B40000B4BE4186378112B0ED11026237A00205A
:101B5000334205D008223800064B984728002672E9
:101B6000F8BD12204042FBE71320FBE7880100206C
:101B7000FF50004155290000F0B50F25037A87B0CA
:101B80001D405BB20193DB0F039319000700384B34
:101B900028009847374A038A04001E00934201D068
:101BA0005E1EB6B27A6816400296022D5DD83D6878
:101BB00031498D420BD931485119814207D803214F
:101BC0000D4004D1019900290EDB9A4206D2E36848
:101BD0000125002B08D11320404215E0029B002B69
:101BE00014D0E368002B40D0E37C02201B070BD409
:101BF000234B05A89847E17C40230E00214A1E4054
:101C000006D005A89047012007B0F0BD029DEBE784
:101C10000B43E37405A890477F213B6823607B68F2
:101C2000A6606360039BDA01E37C0B401343690108
:101C30001D0020239D430D43E5747B7A002B03D0C8
:101C4000029E73425E41F6B21022E37C360193435A
:101C50001E43019BE67400212000002B03DA0A4B8F
:101C600098470020D0E7094BFAE71220B4E7C046B6
:101C7000C1100000FF030000FFFFFF1FFF7F0020D7
:101C80007505000083050000291300009914000069
:101C9000002900D10549012802D1054B5960704740
:101CA0000028FCD1024B1960F9E7C04699100000EA
:101CB00008010020002900D10749002802D1074B64
:101CC00099607047012802D1044BD960F9E70228D6
:101CD000F7D1024B1961F4E79910000008010020C8
:101CE000F7B5654B654D1A8C92B20192002A57D117
:101CF0009A8B1F8B042017403A00024003D0988330
:101D00002B689847F7BD80218900394020D05C4975
:101D1000998399829239FF3919835A4B18004830B8
:101D200001890907090F032906D0008D110000075A
:101D3000000F032808D10122483352019A180023CA
:101D4000118913814904490D03206B689847D9E72D
:101D500080223E00164003D09A836B680520F5E789
:101D600070223C00144009D09A839A82444A1A8314
:101D7000454B98476B6831000220E7E70826390099
:101D800031400BD041494C709E839A823C4A1A8361
:101D90003F4B98476B6821000120D7E7FC0726D40A
:101DA0002C00002701261434A27CFF2A3ED00F23EA
:101DB0001A40330093400199194237D035495301F5
:101DC0005B183249520152181B78927A13402DD079
:101DD000142247217A43AA181032D27D11400129DA
:101DE00015D1DA0609D520002B4B98471EE0244C6C
:101DF0009C839C821A836B68A8E74021194001D01C
:101E0000310001E09B0611D52000244B0DE051B2BA
:101E100000291ADA5906F3D4190701D531001BE05D
:101E2000990708D5310020001D4B9847013714341D
:101E3000092FB9D166E707210A40012AF6D100210E
:101E40005A0709D4DB06F1D5CDE72021194001D08E
:101E50000021D9E7580702D52000124BE5E73342AD
:101E600003D031002000104BDFE707210A40012A90
:101E7000DCD11A07E6D5D1E7005000410801002067
:101E800001020000880100209D100000FF50004169
:101E9000ED12000007510041DD1000005911000053
:101EA00029130000091200009914000010B5034B1B
:101EB0009847034B9847002010BDC046150100000D
:101EC000A5280000F0B516000A7885B053060190E9
:101ED0000C009B0F012B56D1637909792C4D1B0205
:101EE0000B432978994202D0697899424BD152B27A
:101EF000002A12DA0020012E0DD06378212B18D190
:101F0000E279A37912021A43072A3FD10300A91DDF
:101F10000198204CA04705B0F0BDE379A7791B02DA
:101F20001F431D4B984763780100202B03D0222BC1
:101F30001AD00D2028E0072F28D1002E02D133001F
:101F40003A00E5E73A0002A8144CA0472B69002BA1
:101F500005D1A81D072202A9A0470020DBE702A89F
:101F600098470028F5D1F8E700230A4E1A00190017
:101F70001800B0476B69002BEFD0E078A278000220
:101F800010439847E9E70A204042C4E70120FBE7F5
:101F9000F002002021230000412700005529000005
:101FA000F7B51500012950D0002904D01B200229C3
:101FB0000AD00D2008E08368106800931E000233E9
:101FC0000193002802D10A20404220E008214379F1
:101FD00082788B43022BF6D133789A425FD0FF2B65
:101FE0005FD1327069680522304B9847041E0FD1CB
:101FF0002868042203786968C0182C4B9847019B15
:102000000136B342DDD101222000294B5A71FEBDB9
:10201000637922791B02A778D21892B2E17838004E
:10202000244B984700283ED17BB2234A002B09DA83
:10203000B770380090472C602078696820181F4BD3
:102040009847D3E7009B1F71F3E78468002A05D007
:10205000136808225B799343022BB4D12378FF2BBA
:1020600007D0FF25A0782570A84202D0144B9847CE
:10207000A5706378FF2B07D0FF25E0786570A84234
:1020800002D00F4B9847E5702079FF2803D00C4B06
:102090009847FF2323710020054B5871B7E71220A2
:1020A00092E71C2090E714208EE7C04661270000CD
:1020B000F002002069090000F90900007B270000F8
:1020C000CD09000010B50A4B984701280CD80948E3
:1020D000094B0062C3611830084B9847012008493A
:1020E000084B9847002010BD11204042FBE7C04636
:1020F0004D270000F0020020A11F0000E92600008B
:10210000000000205926000010B5074B0A0059793D
:102110000400002905D0187921000023034CA047B2
:1021200010BD11204042FBE7F002002021230000F7
:1021300010B5074B0A0059790400002905D0D8785A
:1021400021000123034CA04710BD11204042FBE7B2
:10215000F00200202123000010B50A00032810D847
:10216000094B00F0BFFB02080A0C18790221074B4B
:102170009847002010BDD878F8E71961F9E7596150
:10218000F7E70D204042F5E7F0020020910B000038
:10219000014B58797047C046F0020020064B10B53D
:1021A0001C69002C00D110BD2000636800220121B1
:1021B00098472468F5E7C0461403002070B5050071
:1021C0000E00064BDC68002C00D170BD6368002B4C
:1021D00002D03100280098472468F4E71403002057
:1021E000F8B505000E0017000B4B9C68002C01D1C0
:1021F0002000F8BD6368002B01D12468F6E73A009F
:10220000310028009847002804D00A30F5D001207A
:102210004042EEE70120ECE714030020054B10B527
:102220005C68002C00D110BD6368002B00D098477B
:102230002468F6E71403002010B51400002903D029
:10224000012923D0002010BD1378002BFAD1537838
:10225000052B0FD0092BF5D1D178937809021943BA
:102260000D4BD9764A1E91410331997601200B4BD3
:102270009847E7E70A4B90789847E178A3780902F6
:1022800019434B1E9941044B0231EEE70A00054BFE
:10229000210000209847D5E714030020BD2100004D
:1022A0005D090000E121000070B5002402260C4BFE
:1022B00098470C4D20000C4BAE76EC766C77984727
:1022C0000A4B287F98470A4D21002000094AA84759
:1022D0003100094A2000A8472000084B984770BDEC
:1022E0009D21000014030020CD090000B909000061
:1022F000910B00003D23000039220000F909000085
:1023000010B5002802D0012803D010BD024B984719
:10231000FBE7024B9847F8E7BD210000A922000027
:102320001FB501AC207263722000034B0191029231
:10233000984704B010BDC046390A0000F7B5B34B4A
:10234000002204000D0098470022431C00D15AE1EE
:102350000132904200D156E129781F230A009A43A6
:1023600004D0802A00D1B1E000224CE16878013825
:102370000A28F9D800F0ACFA42F854F80BF8F8F84B
:1023800006F85E00AA78002A05D1A14B98470022E2
:1023900001231100CBE09F4D2B6803CB9E4B984748
:1023A000021E00D12FE1C37881781B02C91889B2BF
:1023B00041189A4B042201919847FF230090009AFC
:1023C000002AE4D096789E4216D02F69002F0AD1B9
:1023D0000098042203780199C018904B0090984708
:1023E00033000090EBE76A46002138007B6898478D
:1023F0000028EDD03F68E9E71E00E9E70229B3D1E4
:10240000EE79AB7936021E43AED131002879844B88
:1024100098470123320031002000824CA047F1E0B0
:102420000229A1D1EB79AE791B021E439CD12879F8
:102430000139ECE7EC78AB7824021C432B796D79F9
:10244000744E2D021D433368F27E03CB724B9847C6
:10245000002889D004220090C37881781B02C91813
:1024600089B241186D4F0191B847002800D17BE730
:102470008378AB4210D1C378A3420DD13769009065
:10248000002F00D170E701216A4638007B68984729
:10249000011E08D03F68F3E70098042203780199F1
:1024A000C0180090E0E77B686A463800984700282B
:1024B00000D059E7002C04D00122AA40737F1343B7
:1024C000737700231A0019001800A6E768780A2815
:1024D00000D949E700F010FA680048FF48FF48FFBC
:1024E00048FF48FF0B0048FF600048FF8500E9787F
:1024F000AA78090211430B0A022B1FD0032B3BD0F1
:10250000012B00D030E7EB79AA791B0213431D1C85
:10251000122B00D912253F4B01221B68ADB203CB11
:102520003E4B98470023011E00D11DE72A002000E2
:102530003C4CA04742424241D2B264E0AB79ED79D3
:1025400001312D021D43334BCAB21E7F1B6803CBE2
:10255000314B9847011E00D106E7C37882781B02F1
:10256000D21892B200239542E0D9013E35406B4229
:102570006B411500DBB2D9E7AB79ED79CAB22D0218
:102580001D43244B1E7F1B6803CB274B9847011E1E
:1025900000D1E9E60278E5E71E49CB7E4A6913706F
:1025A00049690023012237E71F23194001290CD96B
:1025B000022900D0D8E62879194B9847002290428A
:1025C00021DB01231840009001E000230093114D0E
:1025D00002226946154B68699847002302226969FF
:1025E0001AE70C4E6B792A79707F1B02134318414E
:1025F000012420402ED173692200187071690300F4
:10260000084DA84701221000FEBDC046E121000090
:102610009D2100001403002099270000612700007D
:10262000310B000021230000D527000055290000B0
:102630002A000221200063689847002803DA2468F2
:10264000002CF5D190E6736901221870002371699E
:102650001800E2E63469F3E710B5012809D0002834
:1026600002D0022808D010BD05480430054B984719
:10267000F9E703480830F9E701480C30F6E7C046AF
:1026800014030020F50B000070B50400431E9841B0
:102690000C4A0D4BC0B20D4998470D4B9847002886
:1026A0000EDB0C4D20220C4B0021280098476C615A
:1026B0000A4900200A4CA04701200A49A0470020EF
:1026C00070BDC04655030000DD0B00007C2A0000F1
:1026D000D108000014030020672900001D2200001B
:1026E000390900000123000010B501000248034B26
:1026F0001030984710BDC04614030020F50B0000B1
:1027000010B50A4B9C7E002C0BD100280CD002681F
:102710001860D2791A7701229A76054B98472000E3
:1027200010BD04204042FBE70920FBE71403002012
:102730004509000010B5014B984710BD5109000034
:10274000014B58697047C04614030020034B987E24
:102750001023184200D018007047C0461403002010
:1027600010B5884201D3002010BD0378012BFAD99F
:1027700044789442F8D0C018F3E7884201D300208F
:1027800070470378012BFAD94278042AF7D0052A3A
:10279000F6D0C018F1E7000070B50D4B150002220D
:1027A0000C00984700280FD170BD0378012B0DD97C
:1027B0004378022B0AD14379AB42F5D0C2788378B3
:1027C00012029B189BB2C018A042EED30020EBE788
:1027D0006127000070B50D0016000024A84201D347
:1027E000002070BD03222900054B98470028F8D02F
:1027F0000378012BF4D9B442F3D0C0180134EDE7CB
:102800006127000010B540210248034B9847002083
:1028100010BDC046340300200921000010B511008E
:102820000248034B9847002010BDC04634030020E7
:102830003121000037B5012501AA031C10801D427B
:102840000AD00649064C0020A04706492800A047A8
:1028500040210548054B984700203EBD1D2800003B
:102860005921000005280000340300200921000040
:10287000064810B5064B40309847064B9847064B24
:1028800006489847064B984710BDC04634030020C1
:1028900089260000C5200000012700000800002054
:1028A0003527000010B5044B98470028FBD003499A
:1028B0000320034B9847FEE79121000035280000D4
:1028C0005921000010B5014B984710BD7128000038
:1028D00002B4714649084900095649008E4402BCB9
:1028E0007047C04602B4714649084900095C490076
:1028F0008E4402BC7047C04603B47146490840008C
:102900004900095E49008E4403BC704770B500263B
:102910000C4D0D4C641BA410A64209D1002600F0FA
:10292000B9F80A4D0A4C641BA410A64205D170BD2B
:10293000B300EB5898470136EEE7B300EB589847E1
:102940000136F2E7A02A0000A02A0000A02A000019
:10295000A42A0000002310B59A4200D110BDCC5C1F
:10296000C4540133F8E703008218934200D1704742
:1029700019700133F9E72E2E2F68706C2F706F726B
:10298000742F68706C5F6770696F5F626173652E2A
:1029900068002E2E2F68616C2F7372632F68616C34
:1029A0005F666C6173682E63002E2E2F68616C2F3A
:1029B0007372632F68616C5F7370695F6D5F7379A9
:1029C0006E632E63002E2E2F68616C2F7574696CF8
:1029D000732F7372632F7574696C735F6C69737492
:1029E0002E63002E2E2F68706C2F6E766D637472BE
:1029F0006C2F68706C5F6E766D6374726C2E630002
:102A000000000000000000000000000000000000C6
:102A100000000000000000000C00010000000200A7
:102A2000000000000500FF01040C0011000000027E
:102A300000000000000500FF01052E2E2F68706CBD
:102A40002F736572636F6D2F68706C5F736572634F
:102A50006F6D2E6300000000B00200200000000037
:102A60004000000070020020000000004000000054
:102A70003002002000000000400000002E2E2F75C4
:102A800073622F6465766963652F75736264632E64
:102A900063000000F8B5C046F8BC08BC9E4670470D
:102AA000DD000000F8B5C046F8BC08BC9E46704783
:042AB000B50000006D
:102AB40000000000C51E000010000020650000207A
:102AC4001201000202000040EB0304240001000094
:102AD40000010902430002010080320904000001E0
:102AE4000202000005240001100524010100042451
:102AF400020205240600010705820340000A0904B6
:102B04000100020A00000007050102400000070559
:082B14008102400000000000F6
:00000001FF
